{"abi":[{"type":"constructor","inputs":[{"name":"subscriptionId","type":"uint256","internalType":"uint256"},{"name":"vrfCoordinator","type":"address","internalType":"address"},{"name":"keyHash","type":"bytes32","internalType":"bytes32"}],"stateMutability":"nonpayable"},{"type":"function","name":"BuyTicket","inputs":[],"outputs":[{"name":"","type":"bool","internalType":"bool"},{"name":"","type":"uint256","internalType":"uint256"}],"stateMutability":"payable"},{"type":"function","name":"ChangeOnwer","inputs":[{"name":"_new_owner","type":"address","internalType":"address"}],"outputs":[],"stateMutability":"nonpayable"},{"type":"function","name":"CreateAndStartLottery","inputs":[{"name":"_name","type":"string","internalType":"string"},{"name":"_max_amount","type":"uint256","internalType":"uint256"}],"outputs":[{"name":"","type":"bool","internalType":"bool"}],"stateMutability":"payable"},{"type":"function","name":"ReleaseComissions","inputs":[],"outputs":[],"stateMutability":"nonpayable"},{"type":"function","name":"ReleaseRewards","inputs":[],"outputs":[],"stateMutability":"nonpayable"},{"type":"function","name":"RequestRandomWinner","inputs":[],"outputs":[{"name":"","type":"uint256","internalType":"uint256"},{"name":"","type":"address","internalType":"address"}],"stateMutability":"nonpayable"},{"type":"function","name":"acceptOwnership","inputs":[],"outputs":[],"stateMutability":"nonpayable"},{"type":"function","name":"owner","inputs":[],"outputs":[{"name":"","type":"address","internalType":"address"}],"stateMutability":"view"},{"type":"function","name":"rawFulfillRandomWords","inputs":[{"name":"requestId","type":"uint256","internalType":"uint256"},{"name":"randomWords","type":"uint256[]","internalType":"uint256[]"}],"outputs":[],"stateMutability":"nonpayable"},{"type":"function","name":"requestRandomWords","inputs":[],"outputs":[],"stateMutability":"nonpayable"},{"type":"function","name":"s_finished","inputs":[],"outputs":[{"name":"","type":"bool","internalType":"bool"}],"stateMutability":"view"},{"type":"function","name":"s_max_amount","inputs":[],"outputs":[{"name":"","type":"uint256","internalType":"uint256"}],"stateMutability":"view"},{"type":"function","name":"s_name","inputs":[],"outputs":[{"name":"","type":"string","internalType":"string"}],"stateMutability":"view"},{"type":"function","name":"s_owner","inputs":[],"outputs":[{"name":"","type":"address","internalType":"address"}],"stateMutability":"view"},{"type":"function","name":"s_randomWords","inputs":[{"name":"","type":"uint256","internalType":"uint256"}],"outputs":[{"name":"","type":"uint256","internalType":"uint256"}],"stateMutability":"view"},{"type":"function","name":"s_requestId","inputs":[],"outputs":[{"name":"","type":"uint256","internalType":"uint256"}],"stateMutability":"view"},{"type":"function","name":"s_rewards","inputs":[],"outputs":[{"name":"","type":"uint256","internalType":"uint256"}],"stateMutability":"view"},{"type":"function","name":"s_rewards_released","inputs":[],"outputs":[{"name":"","type":"bool","internalType":"bool"}],"stateMutability":"view"},{"type":"function","name":"s_started","inputs":[],"outputs":[{"name":"","type":"bool","internalType":"bool"}],"stateMutability":"view"},{"type":"function","name":"s_ticket_nonce","inputs":[],"outputs":[{"name":"","type":"uint256","internalType":"uint256"}],"stateMutability":"view"},{"type":"function","name":"s_vrfCoordinator","inputs":[],"outputs":[{"name":"","type":"address","internalType":"contract IVRFCoordinatorV2Plus"}],"stateMutability":"view"},{"type":"function","name":"s_winner","inputs":[],"outputs":[{"name":"","type":"address","internalType":"address"}],"stateMutability":"view"},{"type":"function","name":"setCoordinator","inputs":[{"name":"_vrfCoordinator","type":"address","internalType":"address"}],"outputs":[],"stateMutability":"nonpayable"},{"type":"function","name":"transferOwnership","inputs":[{"name":"to","type":"address","internalType":"address"}],"outputs":[],"stateMutability":"nonpayable"},{"type":"event","name":"CoordinatorSet","inputs":[{"name":"vrfCoordinator","type":"address","indexed":false,"internalType":"address"}],"anonymous":false},{"type":"event","name":"OwnershipTransferRequested","inputs":[{"name":"from","type":"address","indexed":true,"internalType":"address"},{"name":"to","type":"address","indexed":true,"internalType":"address"}],"anonymous":false},{"type":"event","name":"OwnershipTransferred","inputs":[{"name":"from","type":"address","indexed":true,"internalType":"address"},{"name":"to","type":"address","indexed":true,"internalType":"address"}],"anonymous":false},{"type":"event","name":"ReturnedRandomness","inputs":[{"name":"randomWords","type":"uint256[]","indexed":false,"internalType":"uint256[]"}],"anonymous":false},{"type":"error","name":"OnlyCoordinatorCanFulfill","inputs":[{"name":"have","type":"address","internalType":"address"},{"name":"want","type":"address","internalType":"address"}]},{"type":"error","name":"OnlyOwnerOrCoordinator","inputs":[{"name":"have","type":"address","internalType":"address"},{"name":"owner","type":"address","internalType":"address"},{"name":"coordinator","type":"address","internalType":"address"}]},{"type":"error","name":"ZeroAddress","inputs":[]}],"bytecode":{"object":"0x60c060405234801561000f575f5ffd5b50604051612cf3380380612cf3833981810160405281019061003191906103d5565b8133805f5f73ffffffffffffffffffffffffffffffffffffffff168273ffffffffffffffffffffffffffffffffffffffff16036100a3576040517f08c379a000000000000000000000000000000000000000000000000000000000815260040161009a9061047f565b60405180910390fd5b815f5f6101000a81548173ffffffffffffffffffffffffffffffffffffffff021916908373ffffffffffffffffffffffffffffffffffffffff1602179055505f73ffffffffffffffffffffffffffffffffffffffff168173ffffffffffffffffffffffffffffffffffffffff161461012557610124816101e660201b60201c565b5b5050505f73ffffffffffffffffffffffffffffffffffffffff168173ffffffffffffffffffffffffffffffffffffffff160361018d576040517fd92e233d00000000000000000000000000000000000000000000000000000000815260040160405180910390fd5b8060025f6101000a81548173ffffffffffffffffffffffffffffffffffffffff021916908373ffffffffffffffffffffffffffffffffffffffff160217905550508060a081815250508260808181525050505050610505565b3373ffffffffffffffffffffffffffffffffffffffff168173ffffffffffffffffffffffffffffffffffffffff1603610254576040517f08c379a000000000000000000000000000000000000000000000000000000000815260040161024b906104e7565b60405180910390fd5b8060015f6101000a81548173ffffffffffffffffffffffffffffffffffffffff021916908373ffffffffffffffffffffffffffffffffffffffff1602179055508073ffffffffffffffffffffffffffffffffffffffff165f5f9054906101000a900473ffffffffffffffffffffffffffffffffffffffff1673ffffffffffffffffffffffffffffffffffffffff167fed8889f560326eb138920d842192f0eb3dd22b4f139c87a2c57538e05bae127860405160405180910390a350565b5f5ffd5b5f819050919050565b61032781610315565b8114610331575f5ffd5b50565b5f815190506103428161031e565b92915050565b5f73ffffffffffffffffffffffffffffffffffffffff82169050919050565b5f61037182610348565b9050919050565b61038181610367565b811461038b575f5ffd5b50565b5f8151905061039c81610378565b92915050565b5f819050919050565b6103b4816103a2565b81146103be575f5ffd5b50565b5f815190506103cf816103ab565b92915050565b5f5f5f606084860312156103ec576103eb610311565b5b5f6103f986828701610334565b935050602061040a8682870161038e565b925050604061041b868287016103c1565b9150509250925092565b5f82825260208201905092915050565b7f43616e6e6f7420736574206f776e657220746f207a65726f00000000000000005f82015250565b5f610469601883610425565b915061047482610435565b602082019050919050565b5f6020820190508181035f8301526104968161045d565b9050919050565b7f43616e6e6f74207472616e7366657220746f2073656c660000000000000000005f82015250565b5f6104d1601783610425565b91506104dc8261049d565b602082019050919050565b5f6020820190508181035f8301526104fe816104c5565b9050919050565b60805160a0516127cd6105265f395f61120e01525f61123401526127cd5ff3fe60806040526004361061014a575f3560e01c80639eccacf6116100b5578063e0c862891161006e578063e0c86289146103fc578063e397824014610412578063e89e106a1461043c578063f2fde38b14610466578063f6eaffc81461048e578063fde8f0bf146104ca5761014a565b80639eccacf6146102fc578063a044ee2a14610326578063a280a8f71461034e578063afb41dac14610378578063bba1964f146103a2578063d8e4b3a0146103cc5761014a565b80637428fe05116101075780637428fe0514610221578063761aef781461024b57806379ba50971461026a57806384a95d97146102805780638da5cb5b146102aa5780638ea98117146102d45761014a565b8063037c325f1461014e5780631b56563c146101785780631fe543e31461018e5780633dc452e1146101b6578063507f9f4b146101e05780635e8de0db146101f6575b5f5ffd5b348015610159575f5ffd5b506101626104f4565b60405161016f919061162c565b60405180910390f35b348015610183575f5ffd5b5061018c6104fa565b005b348015610199575f5ffd5b506101b460048036038101906101af91906116e1565b610621565b005b3480156101c1575f5ffd5b506101ca6106e5565b6040516101d7919061177d565b60405180910390f35b3480156101eb575f5ffd5b506101f461070b565b005b348015610201575f5ffd5b5061020a6108c2565b604051610218929190611796565b60405180910390f35b34801561022c575f5ffd5b506102356109c0565b604051610242919061162c565b60405180910390f35b6102536109c6565b6040516102619291906117d7565b60405180910390f35b348015610275575f5ffd5b5061027e610aff565b005b34801561028b575f5ffd5b50610294610c8e565b6040516102a191906117fe565b60405180910390f35b3480156102b5575f5ffd5b506102be610ca1565b6040516102cb919061177d565b60405180910390f35b3480156102df575f5ffd5b506102fa60048036038101906102f59190611841565b610cc8565b005b348015610307575f5ffd5b50610310610ea5565b60405161031d91906118c7565b60405180910390f35b348015610331575f5ffd5b5061034c60048036038101906103479190611841565b610eca565b005b348015610359575f5ffd5b50610362610f9c565b60405161036f91906117fe565b60405180910390f35b348015610383575f5ffd5b5061038c610fae565b604051610399919061162c565b60405180910390f35b3480156103ad575f5ffd5b506103b6610fb4565b6040516103c39190611950565b60405180910390f35b6103e660048036038101906103e19190611a98565b611040565b6040516103f391906117fe565b60405180910390f35b348015610407575f5ffd5b506104106111bc565b005b34801561041d575f5ffd5b506104266112ff565b604051610433919061177d565b60405180910390f35b348015610447575f5ffd5b50610450611324565b60405161045d919061162c565b60405180910390f35b348015610471575f5ffd5b5061048c60048036038101906104879190611841565b61132a565b005b348015610499575f5ffd5b506104b460048036038101906104af9190611af2565b61133e565b6040516104c1919061162c565b60405180910390f35b3480156104d5575f5ffd5b506104de61135e565b6040516104eb91906117fe565b60405180910390f35b60065481565b5f1515600760019054906101000a900460ff1615151461054f576040517f08c379a000000000000000000000000000000000000000000000000000000000815260040161054690611b67565b60405180910390fd5b5f5f600760039054906101000a900473ffffffffffffffffffffffffffffffffffffffff1673ffffffffffffffffffffffffffffffffffffffff16600a5460405161059990611bb2565b5f6040518083038185875af1925050503d805f81146105d3576040519150601f19603f3d011682016040523d82523d5f602084013e6105d8565b606091505b50915091508161061d576040517f08c379a000000000000000000000000000000000000000000000000000000000815260040161061490611c10565b60405180910390fd5b5050565b60025f9054906101000a900473ffffffffffffffffffffffffffffffffffffffff1673ffffffffffffffffffffffffffffffffffffffff163373ffffffffffffffffffffffffffffffffffffffff16146106d5573360025f9054906101000a900473ffffffffffffffffffffffffffffffffffffffff166040517f1cf993f40000000000000000000000000000000000000000000000000000000081526004016106cc929190611c2e565b60405180910390fd5b6106e0838383611371565b505050565b600760039054906101000a900473ffffffffffffffffffffffffffffffffffffffff1681565b600b5f9054906101000a900473ffffffffffffffffffffffffffffffffffffffff1673ffffffffffffffffffffffffffffffffffffffff163373ffffffffffffffffffffffffffffffffffffffff161461079a576040517f08c379a000000000000000000000000000000000000000000000000000000000815260040161079190611c9f565b60405180910390fd5b6001600760016101000a81548160ff02191690831515021790556107f3576040517f08c379a00000000000000000000000000000000000000000000000000000000081526004016107ea90611d07565b60405180910390fd5b5f5f600b5f9054906101000a900473ffffffffffffffffffffffffffffffffffffffff1673ffffffffffffffffffffffffffffffffffffffff164760405161083a90611bb2565b5f6040518083038185875af1925050503d805f8114610874576040519150601f19603f3d011682016040523d82523d5f602084013e610879565b606091505b5091509150816108be576040517f08c379a00000000000000000000000000000000000000000000000000000000081526004016108b590611c10565b60405180910390fd5b5050565b5f5f6001600760026101000a81548160ff021916908315150217905561091d576040517f08c379a000000000000000000000000000000000000000000000000000000000815260040161091490611d6f565b60405180910390fd5b5f6001905060095f8281526020019081526020015f205f9054906101000a900473ffffffffffffffffffffffffffffffffffffffff16600760036101000a81548173ffffffffffffffffffffffffffffffffffffffff021916908373ffffffffffffffffffffffffffffffffffffffff16021790555080600760039054906101000a900473ffffffffffffffffffffffffffffffffffffffff1692509250509091565b60085481565b5f5f6001151560075f9054906101000a900460ff16151514610a1d576040517f08c379a0000000000000000000000000000000000000000000000000000000008152600401610a1490611dd7565b60405180910390fd5b662386f26fc100003414610a66576040517f08c379a0000000000000000000000000000000000000000000000000000000008152600401610a5d90611e3f565b60405180910390fd5b3360095f60085481526020019081526020015f205f6101000a81548173ffffffffffffffffffffffffffffffffffffffff021916908373ffffffffffffffffffffffffffffffffffffffff16021790555060085f815480929190610ac990611e8a565b9190505550662386f26fc10000600a5f828254610ae69190611ed1565b925050819055505f600190508060085492509250509091565b60015f9054906101000a900473ffffffffffffffffffffffffffffffffffffffff1673ffffffffffffffffffffffffffffffffffffffff163373ffffffffffffffffffffffffffffffffffffffff1614610b8e576040517f08c379a0000000000000000000000000000000000000000000000000000000008152600401610b8590611f4e565b60405180910390fd5b5f5f5f9054906101000a900473ffffffffffffffffffffffffffffffffffffffff169050335f5f6101000a81548173ffffffffffffffffffffffffffffffffffffffff021916908373ffffffffffffffffffffffffffffffffffffffff1602179055505f60015f6101000a81548173ffffffffffffffffffffffffffffffffffffffff021916908373ffffffffffffffffffffffffffffffffffffffff1602179055503373ffffffffffffffffffffffffffffffffffffffff168173ffffffffffffffffffffffffffffffffffffffff167f8be0079c531659141344cd1fd0a4f28419497f9722a3daafe3b4186f6b6457e060405160405180910390a350565b600760019054906101000a900460ff1681565b5f5f5f9054906101000a900473ffffffffffffffffffffffffffffffffffffffff16905090565b610cd0610ca1565b73ffffffffffffffffffffffffffffffffffffffff163373ffffffffffffffffffffffffffffffffffffffff1614158015610d58575060025f9054906101000a900473ffffffffffffffffffffffffffffffffffffffff1673ffffffffffffffffffffffffffffffffffffffff163373ffffffffffffffffffffffffffffffffffffffff1614155b15610dc65733610d66610ca1565b60025f9054906101000a900473ffffffffffffffffffffffffffffffffffffffff166040517f061db9c1000000000000000000000000000000000000000000000000000000008152600401610dbd93929190611f6c565b60405180910390fd5b5f73ffffffffffffffffffffffffffffffffffffffff168173ffffffffffffffffffffffffffffffffffffffff1603610e2b576040517fd92e233d00000000000000000000000000000000000000000000000000000000815260040160405180910390fd5b8060025f6101000a81548173ffffffffffffffffffffffffffffffffffffffff021916908373ffffffffffffffffffffffffffffffffffffffff1602179055507fd1a6a14209a385a964d036e404cb5cfb71f4000cdb03c9366292430787261be681604051610e9a919061177d565b60405180910390a150565b60025f9054906101000a900473ffffffffffffffffffffffffffffffffffffffff1681565b600b5f9054906101000a900473ffffffffffffffffffffffffffffffffffffffff1673ffffffffffffffffffffffffffffffffffffffff163373ffffffffffffffffffffffffffffffffffffffff1614610f59576040517f08c379a0000000000000000000000000000000000000000000000000000000008152600401610f5090611c9f565b60405180910390fd5b80600b5f6101000a81548173ffffffffffffffffffffffffffffffffffffffff021916908373ffffffffffffffffffffffffffffffffffffffff16021790555050565b60075f9054906101000a900460ff1681565b600a5481565b60058054610fc190611fce565b80601f0160208091040260200160405190810160405280929190818152602001828054610fed90611fce565b80156110385780601f1061100f57610100808354040283529160200191611038565b820191905f5260205f20905b81548152906001019060200180831161101b57829003601f168201915b505050505081565b5f600b5f9054906101000a900473ffffffffffffffffffffffffffffffffffffffff1673ffffffffffffffffffffffffffffffffffffffff163373ffffffffffffffffffffffffffffffffffffffff16146110d0576040517f08c379a00000000000000000000000000000000000000000000000000000000081526004016110c790611c9f565b60405180910390fd5b5f151560075f9054906101000a900460ff16151514611124576040517f08c379a000000000000000000000000000000000000000000000000000000000815260040161111b90612048565b60405180910390fd5b662386f26fc10000341461116d576040517f08c379a000000000000000000000000000000000000000000000000000000000815260040161116490611e3f565b60405180910390fd5b826005908161117c919061220e565b50816006819055505f600881905550600160075f6101000a81548160ff02191690831515021790555060075f9054906101000a900460ff16905092915050565b6111c46113c1565b60025f9054906101000a900473ffffffffffffffffffffffffffffffffffffffff1673ffffffffffffffffffffffffffffffffffffffff16639b1c385e6040518060c001604052807f000000000000000000000000000000000000000000000000000000000000000081526020017f00000000000000000000000000000000000000000000000000000000000000008152602001600361ffff168152602001620186a063ffffffff168152602001600263ffffffff16815260200161129860405180602001604052805f1515815250611451565b8152506040518263ffffffff1660e01b81526004016112b79190612416565b6020604051808303815f875af11580156112d3573d5f5f3e3d5ffd5b505050506040513d601f19601f820116820180604052508101906112f7919061244a565b600481905550565b600b5f9054906101000a900473ffffffffffffffffffffffffffffffffffffffff1681565b60045481565b6113326113c1565b61133b816114e9565b50565b6003818154811061134d575f80fd5b905f5260205f20015f915090505481565b600760029054906101000a900460ff1681565b818160039182611382929190612565565b507fefb16d61046900da527008568620fb9f8420e2f5ed4de3bfbded5035c9362b0e82826040516113b4929190612663565b60405180910390a1505050565b5f5f9054906101000a900473ffffffffffffffffffffffffffffffffffffffff1673ffffffffffffffffffffffffffffffffffffffff163373ffffffffffffffffffffffffffffffffffffffff161461144f576040517f08c379a0000000000000000000000000000000000000000000000000000000008152600401611446906126cf565b60405180910390fd5b565b60607f92fd13387c7fe7befbc38d303d6468778fb9731bc4583f17d92989c6fcfdeaaa826040516024016114859190612716565b604051602081830303815290604052907bffffffffffffffffffffffffffffffffffffffffffffffffffffffff19166020820180517bffffffffffffffffffffffffffffffffffffffffffffffffffffffff83818316178352505050509050919050565b3373ffffffffffffffffffffffffffffffffffffffff168173ffffffffffffffffffffffffffffffffffffffff1603611557576040517f08c379a000000000000000000000000000000000000000000000000000000000815260040161154e90612779565b60405180910390fd5b8060015f6101000a81548173ffffffffffffffffffffffffffffffffffffffff021916908373ffffffffffffffffffffffffffffffffffffffff1602179055508073ffffffffffffffffffffffffffffffffffffffff165f5f9054906101000a900473ffffffffffffffffffffffffffffffffffffffff1673ffffffffffffffffffffffffffffffffffffffff167fed8889f560326eb138920d842192f0eb3dd22b4f139c87a2c57538e05bae127860405160405180910390a350565b5f819050919050565b61162681611614565b82525050565b5f60208201905061163f5f83018461161d565b92915050565b5f604051905090565b5f5ffd5b5f5ffd5b61165f81611614565b8114611669575f5ffd5b50565b5f8135905061167a81611656565b92915050565b5f5ffd5b5f5ffd5b5f5ffd5b5f5f83601f8401126116a1576116a0611680565b5b8235905067ffffffffffffffff8111156116be576116bd611684565b5b6020830191508360208202830111156116da576116d9611688565b5b9250929050565b5f5f5f604084860312156116f8576116f761164e565b5b5f6117058682870161166c565b935050602084013567ffffffffffffffff81111561172657611725611652565b5b6117328682870161168c565b92509250509250925092565b5f73ffffffffffffffffffffffffffffffffffffffff82169050919050565b5f6117678261173e565b9050919050565b6117778161175d565b82525050565b5f6020820190506117905f83018461176e565b92915050565b5f6040820190506117a95f83018561161d565b6117b6602083018461176e565b9392505050565b5f8115159050919050565b6117d1816117bd565b82525050565b5f6040820190506117ea5f8301856117c8565b6117f7602083018461161d565b9392505050565b5f6020820190506118115f8301846117c8565b92915050565b6118208161175d565b811461182a575f5ffd5b50565b5f8135905061183b81611817565b92915050565b5f602082840312156118565761185561164e565b5b5f6118638482850161182d565b91505092915050565b5f819050919050565b5f61188f61188a6118858461173e565b61186c565b61173e565b9050919050565b5f6118a082611875565b9050919050565b5f6118b182611896565b9050919050565b6118c1816118a7565b82525050565b5f6020820190506118da5f8301846118b8565b92915050565b5f81519050919050565b5f82825260208201905092915050565b8281835e5f83830152505050565b5f601f19601f8301169050919050565b5f611922826118e0565b61192c81856118ea565b935061193c8185602086016118fa565b61194581611908565b840191505092915050565b5f6020820190508181035f8301526119688184611918565b905092915050565b5f5ffd5b7f4e487b71000000000000000000000000000000000000000000000000000000005f52604160045260245ffd5b6119aa82611908565b810181811067ffffffffffffffff821117156119c9576119c8611974565b5b80604052505050565b5f6119db611645565b90506119e782826119a1565b919050565b5f67ffffffffffffffff821115611a0657611a05611974565b5b611a0f82611908565b9050602081019050919050565b828183375f83830152505050565b5f611a3c611a37846119ec565b6119d2565b905082815260208101848484011115611a5857611a57611970565b5b611a63848285611a1c565b509392505050565b5f82601f830112611a7f57611a7e611680565b5b8135611a8f848260208601611a2a565b91505092915050565b5f5f60408385031215611aae57611aad61164e565b5b5f83013567ffffffffffffffff811115611acb57611aca611652565b5b611ad785828601611a6b565b9250506020611ae88582860161166c565b9150509250929050565b5f60208284031215611b0757611b0661164e565b5b5f611b148482850161166c565b91505092915050565b7f4e6f2072657761726473000000000000000000000000000000000000000000005f82015250565b5f611b51600a836118ea565b9150611b5c82611b1d565b602082019050919050565b5f6020820190508181035f830152611b7e81611b45565b9050919050565b5f81905092915050565b50565b5f611b9d5f83611b85565b9150611ba882611b8f565b5f82019050919050565b5f611bbc82611b92565b9150819050919050565b7f4661696c656420746f2073656e642045746865720000000000000000000000005f82015250565b5f611bfa6014836118ea565b9150611c0582611bc6565b602082019050919050565b5f6020820190508181035f830152611c2781611bee565b9050919050565b5f604082019050611c415f83018561176e565b611c4e602083018461176e565b9392505050565b7f4e6f74206f776e657200000000000000000000000000000000000000000000005f82015250565b5f611c896009836118ea565b9150611c9482611c55565b602082019050919050565b5f6020820190508181035f830152611cb681611c7d565b9050919050565b7f52656c65617365207265776172647320666972737400000000000000000000005f82015250565b5f611cf16015836118ea565b9150611cfc82611cbd565b602082019050919050565b5f6020820190508181035f830152611d1e81611ce5565b9050919050565b7f4e6f742066696e697368656420796574000000000000000000000000000000005f82015250565b5f611d596010836118ea565b9150611d6482611d25565b602082019050919050565b5f6020820190508181035f830152611d8681611d4d565b9050919050565b7f4e6f7420737461727465642079657400000000000000000000000000000000005f82015250565b5f611dc1600f836118ea565b9150611dcc82611d8d565b602082019050919050565b5f6020820190508181035f830152611dee81611db5565b9050919050565b7f53656e6420302e30312045544820746f20627579207469636b657400000000005f82015250565b5f611e29601b836118ea565b9150611e3482611df5565b602082019050919050565b5f6020820190508181035f830152611e5681611e1d565b9050919050565b7f4e487b71000000000000000000000000000000000000000000000000000000005f52601160045260245ffd5b5f611e9482611614565b91507fffffffffffffffffffffffffffffffffffffffffffffffffffffffffffffffff8203611ec657611ec5611e5d565b5b600182019050919050565b5f611edb82611614565b9150611ee683611614565b9250828201905080821115611efe57611efd611e5d565b5b92915050565b7f4d7573742062652070726f706f736564206f776e6572000000000000000000005f82015250565b5f611f386016836118ea565b9150611f4382611f04565b602082019050919050565b5f6020820190508181035f830152611f6581611f2c565b9050919050565b5f606082019050611f7f5f83018661176e565b611f8c602083018561176e565b611f99604083018461176e565b949350505050565b7f4e487b71000000000000000000000000000000000000000000000000000000005f52602260045260245ffd5b5f6002820490506001821680611fe557607f821691505b602082108103611ff857611ff7611fa1565b5b50919050565b7f416c7265616479207374617274656400000000000000000000000000000000005f82015250565b5f612032600f836118ea565b915061203d82611ffe565b602082019050919050565b5f6020820190508181035f83015261205f81612026565b9050919050565b5f819050815f5260205f209050919050565b5f6020601f8301049050919050565b5f82821b905092915050565b5f600883026120c27fffffffffffffffffffffffffffffffffffffffffffffffffffffffffffffffff82612087565b6120cc8683612087565b95508019841693508086168417925050509392505050565b5f6120fe6120f96120f484611614565b61186c565b611614565b9050919050565b5f819050919050565b612117836120e4565b61212b61212382612105565b848454612093565b825550505050565b5f5f905090565b612142612133565b61214d81848461210e565b505050565b5f5b82811015612173576121685f82840161213a565b600181019050612154565b505050565b601f8211156121c657828211156121c55761219281612066565b61219b83612078565b6121a485612078565b60208610156121b1575f90505b8083016121c082840382612152565b505050505b5b505050565b5f82821c905092915050565b5f6121e65f19846008026121cb565b1980831691505092915050565b5f6121fe83836121d7565b9150826002028217905092915050565b612217826118e0565b67ffffffffffffffff8111156122305761222f611974565b5b61223a8254611fce565b612245828285612178565b5f60209050601f831160018114612276575f8415612264578287015190505b61226e85826121f3565b8655506122d5565b601f19841661228486612066565b5f5b828110156122ab57848901518255600182019150602085019450602081019050612286565b868310156122c857848901516122c4601f8916826121d7565b8355505b6001600288020188555050505b505050505050565b5f819050919050565b6122ef816122dd565b82525050565b6122fe81611614565b82525050565b5f61ffff82169050919050565b61231a81612304565b82525050565b5f63ffffffff82169050919050565b61233881612320565b82525050565b5f81519050919050565b5f82825260208201905092915050565b5f6123628261233e565b61236c8185612348565b935061237c8185602086016118fa565b61238581611908565b840191505092915050565b5f60c083015f8301516123a55f8601826122e6565b5060208301516123b860208601826122f5565b5060408301516123cb6040860182612311565b5060608301516123de606086018261232f565b5060808301516123f1608086018261232f565b5060a083015184820360a08601526124098282612358565b9150508091505092915050565b5f6020820190508181035f83015261242e8184612390565b905092915050565b5f8151905061244481611656565b92915050565b5f6020828403121561245f5761245e61164e565b5b5f61246c84828501612436565b91505092915050565b5f81549050919050565b5f8190506001806001038301049050919050565b5f819050815f5260205f209050919050565b5f5b828110156124c6576124bb5f82840161213a565b6001810190506124a7565b505050565b81831015612502576124dc8261247f565b6124e58461247f565b6124ee83612493565b8181016124fd838503826124a5565b505050505b505050565b6801000000000000000082111561252157612520611974565b5b61252a81612475565b8282556125388382846124cb565b505050565b5f82905092915050565b5f813561255381611656565b80915050919050565b5f819050919050565b61256f838361253d565b67ffffffffffffffff81111561258857612587611974565b5b6125928183612507565b61259b8361255c565b6125a483612493565b600183045f5b818110156125e1575f6125bc85612547565b6125c581612105565b80925060208701965050508082850155506001810190506125aa565b5050505050505050565b5f82825260208201905092915050565b5f5ffd5b82818337505050565b5f61261383856125eb565b93507f07ffffffffffffffffffffffffffffffffffffffffffffffffffffffffffffff831115612646576126456125fb565b5b6020830292506126578385846125ff565b82840190509392505050565b5f6020820190508181035f83015261267c818486612608565b90509392505050565b7f4f6e6c792063616c6c61626c65206279206f776e6572000000000000000000005f82015250565b5f6126b96016836118ea565b91506126c482612685565b602082019050919050565b5f6020820190508181035f8301526126e6816126ad565b9050919050565b6126f6816117bd565b82525050565b602082015f8201516127105f8501826126ed565b50505050565b5f6020820190506127295f8301846126fc565b92915050565b7f43616e6e6f74207472616e7366657220746f2073656c660000000000000000005f82015250565b5f6127636017836118ea565b915061276e8261272f565b602082019050919050565b5f6020820190508181035f83015261279081612757565b905091905056fea26469706673582212203a34ad8440c45080d8c5ddcc918a20db4569a2f12e3a1ab4c63227a7a40c27a364736f6c63430008210033","linkReferences":{}},"methodIdentifiers":{"BuyTicket()":"761aef78","ChangeOnwer(address)":"a044ee2a","CreateAndStartLottery(string,uint256)":"d8e4b3a0","ReleaseComissions()":"507f9f4b","ReleaseRewards()":"1b56563c","RequestRandomWinner()":"5e8de0db","acceptOwnership()":"79ba5097","owner()":"8da5cb5b","rawFulfillRandomWords(uint256,uint256[])":"1fe543e3","requestRandomWords()":"e0c86289","s_finished()":"fde8f0bf","s_max_amount()":"037c325f","s_name()":"bba1964f","s_owner()":"e3978240","s_randomWords(uint256)":"f6eaffc8","s_requestId()":"e89e106a","s_rewards()":"afb41dac","s_rewards_released()":"84a95d97","s_started()":"a280a8f7","s_ticket_nonce()":"7428fe05","s_vrfCoordinator()":"9eccacf6","s_winner()":"3dc452e1","setCoordinator(address)":"8ea98117","transferOwnership(address)":"f2fde38b"},"id":8}