{"abi":[{"type":"constructor","inputs":[{"name":"_baseFee","type":"uint96","internalType":"uint96"},{"name":"_gasPrice","type":"uint96","internalType":"uint96"},{"name":"_weiPerUnitLink","type":"int256","internalType":"int256"}],"stateMutability":"nonpayable"},{"type":"function","name":"LINK","inputs":[],"outputs":[{"name":"","type":"address","internalType":"contract LinkTokenInterface"}],"stateMutability":"view"},{"type":"function","name":"LINK_NATIVE_FEED","inputs":[],"outputs":[{"name":"","type":"address","internalType":"contract AggregatorV3Interface"}],"stateMutability":"view"},{"type":"function","name":"MAX_CONSUMERS","inputs":[],"outputs":[{"name":"","type":"uint16","internalType":"uint16"}],"stateMutability":"view"},{"type":"function","name":"acceptOwnership","inputs":[],"outputs":[],"stateMutability":"nonpayable"},{"type":"function","name":"acceptSubscriptionOwnerTransfer","inputs":[{"name":"subId","type":"uint256","internalType":"uint256"}],"outputs":[],"stateMutability":"nonpayable"},{"type":"function","name":"addConsumer","inputs":[{"name":"subId","type":"uint256","internalType":"uint256"},{"name":"consumer","type":"address","internalType":"address"}],"outputs":[],"stateMutability":"nonpayable"},{"type":"function","name":"cancelSubscription","inputs":[{"name":"_subId","type":"uint256","internalType":"uint256"},{"name":"_to","type":"address","internalType":"address"}],"outputs":[],"stateMutability":"nonpayable"},{"type":"function","name":"consumerIsAdded","inputs":[{"name":"_subId","type":"uint256","internalType":"uint256"},{"name":"_consumer","type":"address","internalType":"address"}],"outputs":[{"name":"","type":"bool","internalType":"bool"}],"stateMutability":"view"},{"type":"function","name":"createSubscription","inputs":[],"outputs":[{"name":"subId","type":"uint256","internalType":"uint256"}],"stateMutability":"nonpayable"},{"type":"function","name":"fulfillRandomWords","inputs":[{"name":"_requestId","type":"uint256","internalType":"uint256"},{"name":"_consumer","type":"address","internalType":"address"}],"outputs":[],"stateMutability":"nonpayable"},{"type":"function","name":"fulfillRandomWordsWithOverride","inputs":[{"name":"_requestId","type":"uint256","internalType":"uint256"},{"name":"_consumer","type":"address","internalType":"address"},{"name":"_words","type":"uint256[]","internalType":"uint256[]"}],"outputs":[],"stateMutability":"nonpayable"},{"type":"function","name":"fundSubscription","inputs":[{"name":"_subId","type":"uint256","internalType":"uint256"},{"name":"_amount","type":"uint256","internalType":"uint256"}],"outputs":[],"stateMutability":"nonpayable"},{"type":"function","name":"fundSubscriptionWithNative","inputs":[{"name":"subId","type":"uint256","internalType":"uint256"}],"outputs":[],"stateMutability":"payable"},{"type":"function","name":"getActiveSubscriptionIds","inputs":[{"name":"startIndex","type":"uint256","internalType":"uint256"},{"name":"maxCount","type":"uint256","internalType":"uint256"}],"outputs":[{"name":"ids","type":"uint256[]","internalType":"uint256[]"}],"stateMutability":"view"},{"type":"function","name":"getSubscription","inputs":[{"name":"subId","type":"uint256","internalType":"uint256"}],"outputs":[{"name":"balance","type":"uint96","internalType":"uint96"},{"name":"nativeBalance","type":"uint96","internalType":"uint96"},{"name":"reqCount","type":"uint64","internalType":"uint64"},{"name":"subOwner","type":"address","internalType":"address"},{"name":"consumers","type":"address[]","internalType":"address[]"}],"stateMutability":"view"},{"type":"function","name":"i_base_fee","inputs":[],"outputs":[{"name":"","type":"uint96","internalType":"uint96"}],"stateMutability":"view"},{"type":"function","name":"i_gas_price","inputs":[],"outputs":[{"name":"","type":"uint96","internalType":"uint96"}],"stateMutability":"view"},{"type":"function","name":"i_wei_per_unit_link","inputs":[],"outputs":[{"name":"","type":"int256","internalType":"int256"}],"stateMutability":"view"},{"type":"function","name":"onTokenTransfer","inputs":[{"name":"","type":"address","internalType":"address"},{"name":"amount","type":"uint256","internalType":"uint256"},{"name":"data","type":"bytes","internalType":"bytes"}],"outputs":[],"stateMutability":"nonpayable"},{"type":"function","name":"owner","inputs":[],"outputs":[{"name":"","type":"address","internalType":"address"}],"stateMutability":"view"},{"type":"function","name":"ownerCancelSubscription","inputs":[{"name":"subId","type":"uint256","internalType":"uint256"}],"outputs":[],"stateMutability":"nonpayable"},{"type":"function","name":"pendingRequestExists","inputs":[{"name":"","type":"uint256","internalType":"uint256"}],"outputs":[{"name":"","type":"bool","internalType":"bool"}],"stateMutability":"pure"},{"type":"function","name":"recoverFunds","inputs":[{"name":"to","type":"address","internalType":"address"}],"outputs":[],"stateMutability":"nonpayable"},{"type":"function","name":"recoverNativeFunds","inputs":[{"name":"to","type":"address","internalType":"address payable"}],"outputs":[],"stateMutability":"nonpayable"},{"type":"function","name":"removeConsumer","inputs":[{"name":"_subId","type":"uint256","internalType":"uint256"},{"name":"_consumer","type":"address","internalType":"address"}],"outputs":[],"stateMutability":"nonpayable"},{"type":"function","name":"requestRandomWords","inputs":[{"name":"_req","type":"tuple","internalType":"struct VRFV2PlusClient.RandomWordsRequest","components":[{"name":"keyHash","type":"bytes32","internalType":"bytes32"},{"name":"subId","type":"uint256","internalType":"uint256"},{"name":"requestConfirmations","type":"uint16","internalType":"uint16"},{"name":"callbackGasLimit","type":"uint32","internalType":"uint32"},{"name":"numWords","type":"uint32","internalType":"uint32"},{"name":"extraArgs","type":"bytes","internalType":"bytes"}]}],"outputs":[{"name":"","type":"uint256","internalType":"uint256"}],"stateMutability":"nonpayable"},{"type":"function","name":"requestSubscriptionOwnerTransfer","inputs":[{"name":"subId","type":"uint256","internalType":"uint256"},{"name":"newOwner","type":"address","internalType":"address"}],"outputs":[],"stateMutability":"nonpayable"},{"type":"function","name":"s_config","inputs":[],"outputs":[{"name":"minimumRequestConfirmations","type":"uint16","internalType":"uint16"},{"name":"maxGasLimit","type":"uint32","internalType":"uint32"},{"name":"reentrancyLock","type":"bool","internalType":"bool"},{"name":"stalenessSeconds","type":"uint32","internalType":"uint32"},{"name":"gasAfterPaymentCalculation","type":"uint32","internalType":"uint32"},{"name":"fulfillmentFlatFeeNativePPM","type":"uint32","internalType":"uint32"},{"name":"fulfillmentFlatFeeLinkDiscountPPM","type":"uint32","internalType":"uint32"},{"name":"nativePremiumPercentage","type":"uint8","internalType":"uint8"},{"name":"linkPremiumPercentage","type":"uint8","internalType":"uint8"}],"stateMutability":"view"},{"type":"function","name":"s_currentSubNonce","inputs":[],"outputs":[{"name":"","type":"uint64","internalType":"uint64"}],"stateMutability":"view"},{"type":"function","name":"s_totalBalance","inputs":[],"outputs":[{"name":"","type":"uint96","internalType":"uint96"}],"stateMutability":"view"},{"type":"function","name":"s_totalNativeBalance","inputs":[],"outputs":[{"name":"","type":"uint96","internalType":"uint96"}],"stateMutability":"view"},{"type":"function","name":"setConfig","inputs":[],"outputs":[],"stateMutability":"nonpayable"},{"type":"function","name":"setLINKAndLINKNativeFeed","inputs":[{"name":"link","type":"address","internalType":"address"},{"name":"linkNativeFeed","type":"address","internalType":"address"}],"outputs":[],"stateMutability":"nonpayable"},{"type":"function","name":"transferOwnership","inputs":[{"name":"to","type":"address","internalType":"address"}],"outputs":[],"stateMutability":"nonpayable"},{"type":"function","name":"withdraw","inputs":[{"name":"recipient","type":"address","internalType":"address"}],"outputs":[],"stateMutability":"nonpayable"},{"type":"function","name":"withdrawNative","inputs":[{"name":"recipient","type":"address","internalType":"address payable"}],"outputs":[],"stateMutability":"nonpayable"},{"type":"event","name":"ConfigSet","inputs":[],"anonymous":false},{"type":"event","name":"FundsRecovered","inputs":[{"name":"to","type":"address","indexed":false,"internalType":"address"},{"name":"amount","type":"uint256","indexed":false,"internalType":"uint256"}],"anonymous":false},{"type":"event","name":"NativeFundsRecovered","inputs":[{"name":"to","type":"address","indexed":false,"internalType":"address"},{"name":"amount","type":"uint256","indexed":false,"internalType":"uint256"}],"anonymous":false},{"type":"event","name":"OwnershipTransferRequested","inputs":[{"name":"from","type":"address","indexed":true,"internalType":"address"},{"name":"to","type":"address","indexed":true,"internalType":"address"}],"anonymous":false},{"type":"event","name":"OwnershipTransferred","inputs":[{"name":"from","type":"address","indexed":true,"internalType":"address"},{"name":"to","type":"address","indexed":true,"internalType":"address"}],"anonymous":false},{"type":"event","name":"RandomWordsFulfilled","inputs":[{"name":"requestId","type":"uint256","indexed":true,"internalType":"uint256"},{"name":"outputSeed","type":"uint256","indexed":false,"internalType":"uint256"},{"name":"subId","type":"uint256","indexed":true,"internalType":"uint256"},{"name":"payment","type":"uint96","indexed":false,"internalType":"uint96"},{"name":"nativePayment","type":"bool","indexed":false,"internalType":"bool"},{"name":"success","type":"bool","indexed":false,"internalType":"bool"},{"name":"onlyPremium","type":"bool","indexed":false,"internalType":"bool"}],"anonymous":false},{"type":"event","name":"RandomWordsRequested","inputs":[{"name":"keyHash","type":"bytes32","indexed":true,"internalType":"bytes32"},{"name":"requestId","type":"uint256","indexed":false,"internalType":"uint256"},{"name":"preSeed","type":"uint256","indexed":false,"internalType":"uint256"},{"name":"subId","type":"uint256","indexed":true,"internalType":"uint256"},{"name":"minimumRequestConfirmations","type":"uint16","indexed":false,"internalType":"uint16"},{"name":"callbackGasLimit","type":"uint32","indexed":false,"internalType":"uint32"},{"name":"numWords","type":"uint32","indexed":false,"internalType":"uint32"},{"name":"extraArgs","type":"bytes","indexed":false,"internalType":"bytes"},{"name":"sender","type":"address","indexed":true,"internalType":"address"}],"anonymous":false},{"type":"event","name":"SubscriptionCanceled","inputs":[{"name":"subId","type":"uint256","indexed":true,"internalType":"uint256"},{"name":"to","type":"address","indexed":false,"internalType":"address"},{"name":"amountLink","type":"uint256","indexed":false,"internalType":"uint256"},{"name":"amountNative","type":"uint256","indexed":false,"internalType":"uint256"}],"anonymous":false},{"type":"event","name":"SubscriptionConsumerAdded","inputs":[{"name":"subId","type":"uint256","indexed":true,"internalType":"uint256"},{"name":"consumer","type":"address","indexed":false,"internalType":"address"}],"anonymous":false},{"type":"event","name":"SubscriptionConsumerRemoved","inputs":[{"name":"subId","type":"uint256","indexed":true,"internalType":"uint256"},{"name":"consumer","type":"address","indexed":false,"internalType":"address"}],"anonymous":false},{"type":"event","name":"SubscriptionCreated","inputs":[{"name":"subId","type":"uint256","indexed":true,"internalType":"uint256"},{"name":"owner","type":"address","indexed":false,"internalType":"address"}],"anonymous":false},{"type":"event","name":"SubscriptionFunded","inputs":[{"name":"subId","type":"uint256","indexed":true,"internalType":"uint256"},{"name":"oldBalance","type":"uint256","indexed":false,"internalType":"uint256"},{"name":"newBalance","type":"uint256","indexed":false,"internalType":"uint256"}],"anonymous":false},{"type":"event","name":"SubscriptionFundedWithNative","inputs":[{"name":"subId","type":"uint256","indexed":true,"internalType":"uint256"},{"name":"oldNativeBalance","type":"uint256","indexed":false,"internalType":"uint256"},{"name":"newNativeBalance","type":"uint256","indexed":false,"internalType":"uint256"}],"anonymous":false},{"type":"event","name":"SubscriptionOwnerTransferRequested","inputs":[{"name":"subId","type":"uint256","indexed":true,"internalType":"uint256"},{"name":"from","type":"address","indexed":false,"internalType":"address"},{"name":"to","type":"address","indexed":false,"internalType":"address"}],"anonymous":false},{"type":"event","name":"SubscriptionOwnerTransferred","inputs":[{"name":"subId","type":"uint256","indexed":true,"internalType":"uint256"},{"name":"from","type":"address","indexed":false,"internalType":"address"},{"name":"to","type":"address","indexed":false,"internalType":"address"}],"anonymous":false},{"type":"error","name":"BalanceInvariantViolated","inputs":[{"name":"internalBalance","type":"uint256","internalType":"uint256"},{"name":"externalBalance","type":"uint256","internalType":"uint256"}]},{"type":"error","name":"FailedToSendNative","inputs":[]},{"type":"error","name":"FailedToTransferLink","inputs":[]},{"type":"error","name":"IndexOutOfRange","inputs":[]},{"type":"error","name":"InsufficientBalance","inputs":[]},{"type":"error","name":"InvalidCalldata","inputs":[]},{"type":"error","name":"InvalidConsumer","inputs":[{"name":"subId","type":"uint256","internalType":"uint256"},{"name":"consumer","type":"address","internalType":"address"}]},{"type":"error","name":"InvalidExtraArgsTag","inputs":[]},{"type":"error","name":"InvalidRandomWords","inputs":[]},{"type":"error","name":"InvalidRequest","inputs":[]},{"type":"error","name":"InvalidSubscription","inputs":[]},{"type":"error","name":"LinkAlreadySet","inputs":[]},{"type":"error","name":"LinkNotSet","inputs":[]},{"type":"error","name":"MustBeRequestedOwner","inputs":[{"name":"proposedOwner","type":"address","internalType":"address"}]},{"type":"error","name":"MustBeSubOwner","inputs":[{"name":"owner","type":"address","internalType":"address"}]},{"type":"error","name":"NotImplemented","inputs":[]},{"type":"error","name":"OnlyCallableFromLink","inputs":[]},{"type":"error","name":"PendingRequestExists","inputs":[]},{"type":"error","name":"Reentrant","inputs":[]},{"type":"error","name":"TooManyConsumers","inputs":[]}],"bytecode":{"object":"0x60e06040526001600e556064600f55348015610019575f5ffd5b50604051616423380380616423833981810160405281019061003b91906105b3565b33805f5f73ffffffffffffffffffffffffffffffffffffffff168273ffffffffffffffffffffffffffffffffffffffff16036100ac576040517f08c379a00000000000000000000000000000000000000000000000000000000081526004016100a39061065d565b60405180910390fd5b815f5f6101000a81548173ffffffffffffffffffffffffffffffffffffffff021916908373ffffffffffffffffffffffffffffffffffffffff1602179055505f73ffffffffffffffffffffffffffffffffffffffff168173ffffffffffffffffffffffffffffffffffffffff161461012e5761012d8161019760201b60201c565b5b505050826bffffffffffffffffffffffff166080816bffffffffffffffffffffffff1681525050816bffffffffffffffffffffffff1660a0816bffffffffffffffffffffffff16815250508060c0818152505061018f6102c260201b60201c565b50505061074b565b3373ffffffffffffffffffffffffffffffffffffffff168173ffffffffffffffffffffffffffffffffffffffff1603610205576040517f08c379a00000000000000000000000000000000000000000000000000000000081526004016101fc906106c5565b60405180910390fd5b8060015f6101000a81548173ffffffffffffffffffffffffffffffffffffffff021916908373ffffffffffffffffffffffffffffffffffffffff1602179055508073ffffffffffffffffffffffffffffffffffffffff165f5f9054906101000a900473ffffffffffffffffffffffffffffffffffffffff1673ffffffffffffffffffffffffffffffffffffffff167fed8889f560326eb138920d842192f0eb3dd22b4f139c87a2c57538e05bae127860405160405180910390a350565b6102d06104ab60201b60201c565b6040518061012001604052805f61ffff1681526020015f63ffffffff1681526020015f151581526020015f63ffffffff1681526020015f63ffffffff1681526020015f63ffffffff1681526020015f63ffffffff1681526020015f60ff1681526020015f60ff16815250600c5f820151815f015f6101000a81548161ffff021916908361ffff1602179055506020820151815f0160026101000a81548163ffffffff021916908363ffffffff1602179055506040820151815f0160066101000a81548160ff0219169083151502179055506060820151815f0160076101000a81548163ffffffff021916908363ffffffff1602179055506080820151815f01600b6101000a81548163ffffffff021916908363ffffffff16021790555060a0820151815f01600f6101000a81548163ffffffff021916908363ffffffff16021790555060c0820151815f0160136101000a81548163ffffffff021916908363ffffffff16021790555060e0820151815f0160176101000a81548160ff021916908360ff160217905550610100820151815f0160186101000a81548160ff021916908360ff1602179055509050507f4b2974a542484cba2783812ff8033f7fc682cac2fe0905c28c5e27869b3155be60405160405180910390a1565b5f5f9054906101000a900473ffffffffffffffffffffffffffffffffffffffff1673ffffffffffffffffffffffffffffffffffffffff163373ffffffffffffffffffffffffffffffffffffffff1614610539576040517f08c379a00000000000000000000000000000000000000000000000000000000081526004016105309061072d565b60405180910390fd5b565b5f5ffd5b5f6bffffffffffffffffffffffff82169050919050565b61055f8161053f565b8114610569575f5ffd5b50565b5f8151905061057a81610556565b92915050565b5f819050919050565b61059281610580565b811461059c575f5ffd5b50565b5f815190506105ad81610589565b92915050565b5f5f5f606084860312156105ca576105c961053b565b5b5f6105d78682870161056c565b93505060206105e88682870161056c565b92505060406105f98682870161059f565b9150509250925092565b5f82825260208201905092915050565b7f43616e6e6f7420736574206f776e657220746f207a65726f00000000000000005f82015250565b5f610647601883610603565b915061065282610613565b602082019050919050565b5f6020820190508181035f8301526106748161063b565b9050919050565b7f43616e6e6f74207472616e7366657220746f2073656c660000000000000000005f82015250565b5f6106af601783610603565b91506106ba8261067b565b602082019050919050565b5f6020820190508181035f8301526106dc816106a3565b9050919050565b7f4f6e6c792063616c6c61626c65206279206f776e6572000000000000000000005f82015250565b5f610717601683610603565b9150610722826106e3565b602082019050919050565b5f6020820190508181035f8301526107448161070b565b9050919050565b60805160a05160c051615c9961078a5f395f8181610d1a015261110101525f8181610c95015261311b01525f8181610cda01526111680152615c995ff3fe60806040526004361061020e575f3560e01c80638b673e7a11610117578063aefb212f1161009f578063dac83d291161006e578063dac83d2914610728578063dc311dd314610750578063dcab3dcf14610790578063e72f6e30146107ba578063f2fde38b146107e25761020e565b8063aefb212f14610674578063b2a7cac5146106b0578063bec4c08c146106d8578063cb631797146107005761020e565b80639b1c385e116100e65780639b1c385e146105945780639d40a6fd146105d0578063a21a23e4146105fa578063a4c0ed3614610624578063aa433aff1461064c5761020e565b80638b673e7a146104fc5780638da5cb5b14610512578063953e9c751461053c57806395b55cfc146105785761020e565b806341af6c871161019a57806372e9d5651161016957806372e9d5651461044257806379ba50971461046c578063808974ff146104825780638402595e146104aa57806386fe91c7146104d25761020e565b806341af6c871461038c57806351cff8d9146103c857806364d51a2a146103f0578063659827441461041a5761020e565b806313478329116101e157806313478329146102bc57806318e3dd27146102e65780631b6b6d23146103105780631eebc1171461033a5780632f622e6b146103645761020e565b8063088070f51461021257806308e3898e146102445780630ae095401461026c578063115e3c0d14610294575b5f5ffd5b34801561021d575f5ffd5b5061022661080a565b60405161023b9998979695949392919061439c565b60405180910390f35b34801561024f575f5ffd5b5061026a60048036038101906102659190614615565b6108c1565b005b348015610277575f5ffd5b50610292600480360381019061028d9190614681565b610e13565b005b34801561029f575f5ffd5b506102ba60048036038101906102b591906146bf565b610f25565b005b3480156102c7575f5ffd5b506102d06110ff565b6040516102dd9190614715565b60405180910390f35b3480156102f1575f5ffd5b506102fa611123565b6040516103079190614754565b60405180910390f35b34801561031b575f5ffd5b50610324611141565b60405161033191906147c8565b60405180910390f35b348015610345575f5ffd5b5061034e611166565b60405161035b9190614754565b60405180910390f35b34801561036f575f5ffd5b5061038a6004803603810190610385919061481c565b61118a565b005b348015610397575f5ffd5b506103b260048036038101906103ad9190614847565b611275565b6040516103bf9190614872565b60405180910390f35b3480156103d3575f5ffd5b506103ee60048036038101906103e9919061488b565b6112a8565b005b3480156103fb575f5ffd5b506104046114a2565b60405161041191906148b6565b60405180910390f35b348015610425575f5ffd5b50610440600480360381019061043b91906148cf565b6114a7565b005b34801561044d575f5ffd5b506104566115b9565b604051610463919061492d565b60405180910390f35b348015610477575f5ffd5b506104806115de565b005b34801561048d575f5ffd5b506104a860048036038101906104a39190614681565b61176d565b005b3480156104b5575f5ffd5b506104d060048036038101906104cb919061481c565b6117cc565b005b3480156104dd575f5ffd5b506104e6611942565b6040516104f39190614754565b60405180910390f35b348015610507575f5ffd5b5061051061195f565b005b34801561051d575f5ffd5b50610526611b42565b6040516105339190614955565b60405180910390f35b348015610547575f5ffd5b50610562600480360381019061055d9190614681565b611b69565b60405161056f9190614872565b60405180910390f35b610592600480360381019061058d9190614847565b611bcd565b005b34801561059f575f5ffd5b506105ba60048036038101906105b59190614990565b611d55565b6040516105c791906149e6565b60405180910390f35b3480156105db575f5ffd5b506105e461206f565b6040516105f19190614a21565b60405180910390f35b348015610605575f5ffd5b5061060e612088565b60405161061b91906149e6565b60405180910390f35b34801561062f575f5ffd5b5061064a60048036038101906106459190614a93565b6123a2565b005b348015610657575f5ffd5b50610672600480360381019061066d9190614847565b612600565b005b34801561067f575f5ffd5b5061069a600480360381019061069591906146bf565b612655565b6040516106a79190614bbb565b60405180910390f35b3480156106bb575f5ffd5b506106d660048036038101906106d19190614847565b612781565b005b3480156106e3575f5ffd5b506106fe60048036038101906106f99190614681565b61297f565b005b34801561070b575f5ffd5b5061072660048036038101906107219190614681565b612b0e565b005b348015610733575f5ffd5b5061074e60048036038101906107499190614681565b612eaa565b005b34801561075b575f5ffd5b5061077660048036038101906107719190614847565b612fa9565b604051610787959493929190614c92565b60405180910390f35b34801561079b575f5ffd5b506107a4613119565b6040516107b19190614754565b60405180910390f35b3480156107c5575f5ffd5b506107e060048036038101906107db919061488b565b61313d565b005b3480156107ed575f5ffd5b506108086004803603810190610803919061488b565b613402565b005b600c805f015f9054906101000a900461ffff1690805f0160029054906101000a900463ffffffff1690805f0160069054906101000a900460ff1690805f0160079054906101000a900463ffffffff1690805f01600b9054906101000a900463ffffffff1690805f01600f9054906101000a900463ffffffff1690805f0160139054906101000a900463ffffffff1690805f0160179054906101000a900460ff1690805f0160189054906101000a900460ff16905089565b5f5a90505f60105f8681526020019081526020015f205f015403610911576040517f41abc80100000000000000000000000000000000000000000000000000000000815260040160405180910390fd5b5f60105f8681526020019081526020015f206040518060800160405290815f8201548152602001600182015f9054906101000a900463ffffffff1663ffffffff1663ffffffff1681526020016001820160049054906101000a900463ffffffff1663ffffffff1663ffffffff16815260200160028201805461099290614d17565b80601f01602080910402602001604051908101604052809291908181526020018280546109be90614d17565b8015610a095780601f106109e057610100808354040283529160200191610a09565b820191905f5260205f20905b8154815290600101906020018083116109ec57829003601f168201915b50505050508152505090505f835103610ae557806040015163ffffffff1667ffffffffffffffff811115610a4057610a3f6144d9565b5b604051908082528060200260200182016040528015610a6e5781602001602082028036833780820191505090505b5092505f5f90505b816040015163ffffffff16811015610adf578581604051602001610a9b929190614d47565b604051602081830303815290604052805190602001205f1c848281518110610ac657610ac5614d6e565b5b6020026020010181815250508080600101915050610a76565b50610b2a565b806040015163ffffffff16835114610b29576040517f3f3df5b600000000000000000000000000000000000000000000000000000000815260040160405180910390fd5b5b5f5f631fe543e360e01b8786604051602401610b47929190614d9b565b604051602081830303815290604052907bffffffffffffffffffffffffffffffffffffffffffffffffffffffff19166020820180517bffffffffffffffffffffffffffffffffffffffffffffffffffffffff838183161783525050505090506001600c5f0160066101000a81548160ff0219169083151502179055505f8673ffffffffffffffffffffffffffffffffffffffff16846020015163ffffffff1683604051610bf49190614e1b565b5f604051808303815f8787f1925050503d805f8114610c2e576040519150601f19603f3d011682016040523d82523d5f602084013e610c33565b606091505b505090505f600c5f0160066101000a81548160ff0219169083151502179055505f600185606001516001876060015151610c6d9190614e5e565b81518110610c7e57610c7d614d6e565b5b602001015160f81c60f81b60f81c60ff161490505f7f00000000000000000000000000000000000000000000000000000000000000006bffffffffffffffffffffffff165a88610cce9190614e5e565b610cd89190614e91565b7f00000000000000000000000000000000000000000000000000000000000000006bffffffffffffffffffffffff16610d119190614ed2565b905081610d5a577f000000000000000000000000000000000000000000000000000000000000000081670de0b6b3a7640000610d4d9190614e91565b610d579190614f32565b90505b5f819050610d6c8184895f0151613416565b60105f8c81526020019081526020015f205f5f82015f9055600182015f6101000a81549063ffffffff02191690556001820160046101000a81549063ffffffff0219169055600282015f610dc091906142a7565b5050865f01518b7faeb4b4786571e184246d39587f659abf0e26f41f6a3358692250382c0cdb47b78d8487895f604051610dfe959493929190614f62565b60405180910390a35050505050505050505050565b81610e1d8161364d565b610e25613700565b5f5f610e308561374b565b915091505f8473ffffffffffffffffffffffffffffffffffffffff16826bffffffffffffffffffffffff16604051610e6790614fd6565b5f6040518083038185875af1925050503d805f8114610ea1576040519150601f19603f3d011682016040523d82523d5f602084013e610ea6565b606091505b5050905080610ee1576040517f950b247900000000000000000000000000000000000000000000000000000000815260040160405180910390fd5b857f8c74ce8b8cf87f5eb001275c8be27eb34ea2b62bfab6814fcc62192bb63e81c4868585604051610f159392919061501a565b60405180910390a2505050505050565b5f73ffffffffffffffffffffffffffffffffffffffff1660055f8481526020019081526020015f205f015f9054906101000a900473ffffffffffffffffffffffffffffffffffffffff1673ffffffffffffffffffffffffffffffffffffffff1603610fbc576040517f1f6a65b600000000000000000000000000000000000000000000000000000000815260040160405180910390fd5b5f60065f8481526020019081526020015f205f015f9054906101000a90046bffffffffffffffffffffffff166bffffffffffffffffffffffff1690508160065f8581526020019081526020015f205f015f8282829054906101000a90046bffffffffffffffffffffffff16611031919061504f565b92506101000a8154816bffffffffffffffffffffffff02191690836bffffffffffffffffffffffff16021790555081600a5f8282829054906101000a90046bffffffffffffffffffffffff16611087919061504f565b92506101000a8154816bffffffffffffffffffffffff02191690836bffffffffffffffffffffffff160217905550827f1ced9348ff549fceab2ac57cd3a9de38edaaab274b725ee82c23e8fc8c4eec7a8284846110e49190614ed2565b6040516110f2929190614d47565b60405180910390a2505050565b7f000000000000000000000000000000000000000000000000000000000000000081565b600a600c9054906101000a90046bffffffffffffffffffffffff1681565b60025f9054906101000a900473ffffffffffffffffffffffffffffffffffffffff1681565b7f000000000000000000000000000000000000000000000000000000000000000081565b611192613700565b61119a613a7b565b5f600b600c9054906101000a90046bffffffffffffffffffffffff1690506111d15f826bffffffffffffffffffffffff1611613b0b565b5f600b600c6101000a8154816bffffffffffffffffffffffff02191690836bffffffffffffffffffffffff16021790555080600a600c8282829054906101000a90046bffffffffffffffffffffffff1661122b919061508e565b92506101000a8154816bffffffffffffffffffffffff02191690836bffffffffffffffffffffffff16021790555061127182826bffffffffffffffffffffffff16613b45565b5050565b5f6040517fd623472500000000000000000000000000000000000000000000000000000000815260040160405180910390fd5b6112b0613700565b6112b8613a7b565b5f73ffffffffffffffffffffffffffffffffffffffff1660025f9054906101000a900473ffffffffffffffffffffffffffffffffffffffff1673ffffffffffffffffffffffffffffffffffffffff160361133e576040517fc1f0c0a100000000000000000000000000000000000000000000000000000000815260040160405180910390fd5b5f600b5f9054906101000a90046bffffffffffffffffffffffff1690506113745f826bffffffffffffffffffffffff1611613b0b565b5f600b5f6101000a8154816bffffffffffffffffffffffff02191690836bffffffffffffffffffffffff16021790555080600a5f8282829054906101000a90046bffffffffffffffffffffffff166113cc919061508e565b92506101000a8154816bffffffffffffffffffffffff02191690836bffffffffffffffffffffffff16021790555061149e60025f9054906101000a900473ffffffffffffffffffffffffffffffffffffffff1673ffffffffffffffffffffffffffffffffffffffff1663a9059cbb84846040518363ffffffff1660e01b81526004016114599291906150cd565b6020604051808303815f875af1158015611475573d5f5f3e3d5ffd5b505050506040513d601f19601f82011682018060405250810190611499919061511e565b613b0b565b5050565b606481565b6114af613a7b565b5f73ffffffffffffffffffffffffffffffffffffffff1660025f9054906101000a900473ffffffffffffffffffffffffffffffffffffffff1673ffffffffffffffffffffffffffffffffffffffff1614611535576040517f2d118a6e00000000000000000000000000000000000000000000000000000000815260040160405180910390fd5b8160025f6101000a81548173ffffffffffffffffffffffffffffffffffffffff021916908373ffffffffffffffffffffffffffffffffffffffff1602179055508060035f6101000a81548173ffffffffffffffffffffffffffffffffffffffff021916908373ffffffffffffffffffffffffffffffffffffffff1602179055505050565b60035f9054906101000a900473ffffffffffffffffffffffffffffffffffffffff1681565b60015f9054906101000a900473ffffffffffffffffffffffffffffffffffffffff1673ffffffffffffffffffffffffffffffffffffffff163373ffffffffffffffffffffffffffffffffffffffff161461166d576040517f08c379a0000000000000000000000000000000000000000000000000000000008152600401611664906151a3565b60405180910390fd5b5f5f5f9054906101000a900473ffffffffffffffffffffffffffffffffffffffff169050335f5f6101000a81548173ffffffffffffffffffffffffffffffffffffffff021916908373ffffffffffffffffffffffffffffffffffffffff1602179055505f60015f6101000a81548173ffffffffffffffffffffffffffffffffffffffff021916908373ffffffffffffffffffffffffffffffffffffffff1602179055503373ffffffffffffffffffffffffffffffffffffffff168173ffffffffffffffffffffffffffffffffffffffff167f8be0079c531659141344cd1fd0a4f28419497f9722a3daafe3b4186f6b6457e060405160405180910390a350565b611775613700565b6117c882825f67ffffffffffffffff811115611794576117936144d9565b5b6040519080825280602002602001820160405280156117c25781602001602082028036833780820191505090505b506108c1565b5050565b6117d4613a7b565b5f4790505f600a600c9054906101000a90046bffffffffffffffffffffffff166bffffffffffffffffffffffff1690508181111561184b5780826040517fa99da302000000000000000000000000000000000000000000000000000000008152600401611842929190614d47565b60405180910390fd5b8181101561193d575f81836118609190614e5e565b90505f8473ffffffffffffffffffffffffffffffffffffffff168260405161188790614fd6565b5f6040518083038185875af1925050503d805f81146118c1576040519150601f19603f3d011682016040523d82523d5f602084013e6118c6565b606091505b5050905080611901576040517f950b247900000000000000000000000000000000000000000000000000000000815260040160405180910390fd5b7f4aed7c8eed0496c8c19ea2681fcca25741c1602342e38b045d9f1e8e905d2e9c85836040516119329291906151e1565b60405180910390a150505b505050565b600a5f9054906101000a90046bffffffffffffffffffffffff1681565b611967613a7b565b6040518061012001604052805f61ffff1681526020015f63ffffffff1681526020015f151581526020015f63ffffffff1681526020015f63ffffffff1681526020015f63ffffffff1681526020015f63ffffffff1681526020015f60ff1681526020015f60ff16815250600c5f820151815f015f6101000a81548161ffff021916908361ffff1602179055506020820151815f0160026101000a81548163ffffffff021916908363ffffffff1602179055506040820151815f0160066101000a81548160ff0219169083151502179055506060820151815f0160076101000a81548163ffffffff021916908363ffffffff1602179055506080820151815f01600b6101000a81548163ffffffff021916908363ffffffff16021790555060a0820151815f01600f6101000a81548163ffffffff021916908363ffffffff16021790555060c0820151815f0160136101000a81548163ffffffff021916908363ffffffff16021790555060e0820151815f0160176101000a81548160ff021916908360ff160217905550610100820151815f0160186101000a81548160ff021916908360ff1602179055509050507f4b2974a542484cba2783812ff8033f7fc682cac2fe0905c28c5e27869b3155be60405160405180910390a1565b5f5f5f9054906101000a900473ffffffffffffffffffffffffffffffffffffffff16905090565b5f60045f8373ffffffffffffffffffffffffffffffffffffffff1673ffffffffffffffffffffffffffffffffffffffff1681526020019081526020015f205f8481526020019081526020015f205f015f9054906101000a900460ff16905092915050565b611bd5613700565b611c1060055f8381526020019081526020015f205f015f9054906101000a900473ffffffffffffffffffffffffffffffffffffffff16613be9565b5f60065f8381526020019081526020015f205f01600c9054906101000a90046bffffffffffffffffffffffff166bffffffffffffffffffffffff1690503460065f8481526020019081526020015f205f01600c8282829054906101000a90046bffffffffffffffffffffffff16611c87919061504f565b92506101000a8154816bffffffffffffffffffffffff02191690836bffffffffffffffffffffffff16021790555034600a600c8282829054906101000a90046bffffffffffffffffffffffff16611cde919061504f565b92506101000a8154816bffffffffffffffffffffffff02191690836bffffffffffffffffffffffff160217905550817f7603b205d03651ee812f803fccde89f1012e545a9c99f0abfea9cedd0fd8e902823484611d3b9190614ed2565b604051611d49929190614d47565b60405180910390a25050565b5f611d5e613700565b816020013533611d6e8282611b69565b611db15781816040517f79bfd401000000000000000000000000000000000000000000000000000000008152600401611da8929190615208565b60405180910390fd5b5f846020013590505f73ffffffffffffffffffffffffffffffffffffffff1660055f8381526020019081526020015f205f015f9054906101000a900473ffffffffffffffffffffffffffffffffffffffff1673ffffffffffffffffffffffffffffffffffffffff1603611e50576040517f1f6a65b600000000000000000000000000000000000000000000000000000000815260040160405180910390fd5b5f600e5f815480929190611e639061522f565b9190505590505f600f5f815480929190611e7c9061522f565b9190505590505f611ea3611e9e898060a00190611e999190615282565b613c51565b613d47565b9050604051806080016040528089602001358152602001896060016020810190611ecd919061530e565b63ffffffff168152602001896080016020810190611eeb919061530e565b63ffffffff168152602001898060a00190611f069190615282565b8080601f0160208091040260200160405190810160405280939291908181526020018383808284375f81840152601f19601f8201169050808301925050505050505081525060105f8581526020019081526020015f205f820151815f01556020820151816001015f6101000a81548163ffffffff021916908363ffffffff16021790555060408201518160010160046101000a81548163ffffffff021916908363ffffffff1602179055506060820151816002019081611fc691906154e1565b509050503373ffffffffffffffffffffffffffffffffffffffff168860200135895f01357feb0e3652e0f44f417695e6e90f2f42c99b65cd7169074c5a654b16b9748c3a4e86868d604001602081019061202091906155da565b8e6060016020810190612033919061530e565b8f6080016020810190612046919061530e565b896040516120599695949392919061564d565b60405180910390a4829650505050505050919050565b60075f9054906101000a900467ffffffffffffffff1681565b5f612091613700565b5f60075f9054906101000a900467ffffffffffffffff169050336001436120b89190614e5e565b4030836040516020016120ce9493929190615755565b604051602081830303815290604052805190602001205f1c91506001816120f591906157a2565b60075f6101000a81548167ffffffffffffffff021916908367ffffffffffffffff1602179055505f5f67ffffffffffffffff811115612137576121366144d9565b5b6040519080825280602002602001820160405280156121655781602001602082028036833780820191505090505b50905060405180606001604052805f6bffffffffffffffffffffffff1681526020015f6bffffffffffffffffffffffff1681526020015f67ffffffffffffffff1681525060065f8581526020019081526020015f205f820151815f015f6101000a8154816bffffffffffffffffffffffff02191690836bffffffffffffffffffffffff1602179055506020820151815f01600c6101000a8154816bffffffffffffffffffffffff02191690836bffffffffffffffffffffffff1602179055506040820151815f0160186101000a81548167ffffffffffffffff021916908367ffffffffffffffff16021790555090505060405180606001604052803373ffffffffffffffffffffffffffffffffffffffff1681526020015f73ffffffffffffffffffffffffffffffffffffffff1681526020018281525060055f8581526020019081526020015f205f820151815f015f6101000a81548173ffffffffffffffffffffffffffffffffffffffff021916908373ffffffffffffffffffffffffffffffffffffffff1602179055506020820151816001015f6101000a81548173ffffffffffffffffffffffffffffffffffffffff021916908373ffffffffffffffffffffffffffffffffffffffff160217905550604082015181600201908161234c91906158c2565b50905050612364836008613ddf90919063ffffffff16565b50827f1d3015d7ba850fa198dc7b1a3f5d42779313a681035f77c8c03764c61005518d336040516123959190614955565b60405180910390a2505090565b6123aa613700565b60025f9054906101000a900473ffffffffffffffffffffffffffffffffffffffff1673ffffffffffffffffffffffffffffffffffffffff163373ffffffffffffffffffffffffffffffffffffffff1614612430576040517f44b0e3c300000000000000000000000000000000000000000000000000000000815260040160405180910390fd5b6020828290501461246d576040517f8129bbcd00000000000000000000000000000000000000000000000000000000815260040160405180910390fd5b5f828281019061247d9190614847565b90506124ba60055f8381526020019081526020015f205f015f9054906101000a900473ffffffffffffffffffffffffffffffffffffffff16613be9565b5f60065f8381526020019081526020015f205f015f9054906101000a90046bffffffffffffffffffffffff166bffffffffffffffffffffffff1690508460065f8481526020019081526020015f205f015f8282829054906101000a90046bffffffffffffffffffffffff1661252f919061504f565b92506101000a8154816bffffffffffffffffffffffff02191690836bffffffffffffffffffffffff16021790555084600a5f8282829054906101000a90046bffffffffffffffffffffffff16612585919061504f565b92506101000a8154816bffffffffffffffffffffffff02191690836bffffffffffffffffffffffff160217905550817f1ced9348ff549fceab2ac57cd3a9de38edaaab274b725ee82c23e8fc8c4eec7a8287846125e29190614ed2565b6040516125f0929190614d47565b60405180910390a2505050505050565b612608613a7b565b5f60055f8381526020019081526020015f205f015f9054906101000a900473ffffffffffffffffffffffffffffffffffffffff16905061264781613be9565b6126518282613df6565b5050565b60605f6126626008613f82565b905080841061269d576040517f1390f2a100000000000000000000000000000000000000000000000000000000815260040160405180910390fd5b5f83856126aa9190614ed2565b9050818111806126b957505f84145b6126c357806126c5565b815b90505f85826126d49190614e5e565b90508067ffffffffffffffff8111156126f0576126ef6144d9565b5b60405190808252806020026020018201604052801561271e5781602001602082028036833780820191505090505b5093505f5f90505b818110156127775761274d878261273d9190614ed2565b6008613f9590919063ffffffff16565b8582815181106127605761275f614d6e565b5b602002602001018181525050806001019050612726565b5050505092915050565b612789613700565b5f60055f8381526020019081526020015f205f015f9054906101000a900473ffffffffffffffffffffffffffffffffffffffff1690506127c881613be9565b3373ffffffffffffffffffffffffffffffffffffffff1660055f8481526020019081526020015f206001015f9054906101000a900473ffffffffffffffffffffffffffffffffffffffff1673ffffffffffffffffffffffffffffffffffffffff161461289e5760055f8381526020019081526020015f206001015f9054906101000a900473ffffffffffffffffffffffffffffffffffffffff166040517fd084e9750000000000000000000000000000000000000000000000000000000081526004016128959190614955565b60405180910390fd5b3360055f8481526020019081526020015f205f015f6101000a81548173ffffffffffffffffffffffffffffffffffffffff021916908373ffffffffffffffffffffffffffffffffffffffff1602179055505f60055f8481526020019081526020015f206001015f6101000a81548173ffffffffffffffffffffffffffffffffffffffff021916908373ffffffffffffffffffffffffffffffffffffffff160217905550817fd4114ab6e9af9f597c52041f32d62dc57c5c4e4c0d4427006069635e216c93868233604051612973929190615946565b60405180910390a25050565b816129898161364d565b612991613700565b5f60045f8473ffffffffffffffffffffffffffffffffffffffff1673ffffffffffffffffffffffffffffffffffffffff1681526020019081526020015f205f8581526020019081526020015f209050805f015f9054906101000a900460ff16156129fb5750612b09565b5f60055f8681526020019081526020015f206002019050606461ffff16818054905003612a54576040517f05a48e0f00000000000000000000000000000000000000000000000000000000815260040160405180910390fd5b6001825f015f6101000a81548160ff0219169083151502179055508084908060018154018082558091505060019003905f5260205f20015f9091909190916101000a81548173ffffffffffffffffffffffffffffffffffffffff021916908373ffffffffffffffffffffffffffffffffffffffff160217905550847f1e980d04aa7648e205713e5e8ea3808672ac163d10936d36f91b2c88ac1575e185604051612afe9190614955565b60405180910390a250505b505050565b81612b188161364d565b8282612b248282611b69565b612b675781816040517f79bfd401000000000000000000000000000000000000000000000000000000008152600401612b5e929190615208565b60405180910390fd5b612b6f613700565b60045f8573ffffffffffffffffffffffffffffffffffffffff1673ffffffffffffffffffffffffffffffffffffffff1681526020019081526020015f205f8681526020019081526020015f205f015f9054906101000a900460ff16612c0d5784846040517f79bfd401000000000000000000000000000000000000000000000000000000008152600401612c04929190615208565b60405180910390fd5b5f60055f8781526020019081526020015f20600201805480602002602001604051908101604052809291908181526020018280548015612c9f57602002820191905f5260205f20905b815f9054906101000a900473ffffffffffffffffffffffffffffffffffffffff1673ffffffffffffffffffffffffffffffffffffffff1681526020019060010190808311612c56575b505050505090505f60018251612cb59190614e5e565b90505f5f90505b8251811015612e03578673ffffffffffffffffffffffffffffffffffffffff16838281518110612cef57612cee614d6e565b5b602002602001015173ffffffffffffffffffffffffffffffffffffffff1603612df8575f838381518110612d2657612d25614d6e565b5b602002602001015190508060055f8b81526020019081526020015f206002018381548110612d5757612d56614d6e565b5b905f5260205f20015f6101000a81548173ffffffffffffffffffffffffffffffffffffffff021916908373ffffffffffffffffffffffffffffffffffffffff16021790555060055f8a81526020019081526020015f20600201805480612dc057612dbf61596d565b5b600190038181905f5260205f20015f6101000a81549073ffffffffffffffffffffffffffffffffffffffff0219169055905550612e03565b806001019050612cbc565b505f60045f8873ffffffffffffffffffffffffffffffffffffffff1673ffffffffffffffffffffffffffffffffffffffff1681526020019081526020015f205f8981526020019081526020015f205f015f6101000a81548160ff021916908315150217905550867f32158c6058347c1601b2d12bc696ac6901d8a9a9aa3ba10c27ab0a983e8425a787604051612e999190614955565b60405180910390a250505050505050565b81612eb48161364d565b612ebc613700565b5f60055f8581526020019081526020015f2090508273ffffffffffffffffffffffffffffffffffffffff16816001015f9054906101000a900473ffffffffffffffffffffffffffffffffffffffff1673ffffffffffffffffffffffffffffffffffffffff1614612fa35782816001015f6101000a81548173ffffffffffffffffffffffffffffffffffffffff021916908373ffffffffffffffffffffffffffffffffffffffff160217905550837f21a4dad170a6bf476c31bbcf4a16628295b0e450672eec25d7c93308e05344a13385604051612f9a929190615946565b60405180910390a25b50505050565b5f5f5f5f606060055f8781526020019081526020015f205f015f9054906101000a900473ffffffffffffffffffffffffffffffffffffffff169150612fed82613be9565b60065f8781526020019081526020015f205f015f9054906101000a90046bffffffffffffffffffffffff1660065f8881526020019081526020015f205f01600c9054906101000a90046bffffffffffffffffffffffff1660065f8981526020019081526020015f205f0160189054906101000a900467ffffffffffffffff168460055f8b81526020019081526020015f20600201808054806020026020016040519081016040528092919081815260200182805480156130ff57602002820191905f5260205f20905b815f9054906101000a900473ffffffffffffffffffffffffffffffffffffffff1673ffffffffffffffffffffffffffffffffffffffff16815260200190600101908083116130b6575b505050505090509450945094509450945091939590929450565b7f000000000000000000000000000000000000000000000000000000000000000081565b613145613a7b565b5f73ffffffffffffffffffffffffffffffffffffffff1660025f9054906101000a900473ffffffffffffffffffffffffffffffffffffffff1673ffffffffffffffffffffffffffffffffffffffff16036131cb576040517fc1f0c0a100000000000000000000000000000000000000000000000000000000815260040160405180910390fd5b5f60025f9054906101000a900473ffffffffffffffffffffffffffffffffffffffff1673ffffffffffffffffffffffffffffffffffffffff166370a08231306040518263ffffffff1660e01b81526004016132269190614955565b602060405180830381865afa158015613241573d5f5f3e3d5ffd5b505050506040513d601f19601f8201168201806040525081019061326591906159ae565b90505f600a5f9054906101000a90046bffffffffffffffffffffffff166bffffffffffffffffffffffff169050818111156132d95780826040517fa99da3020000000000000000000000000000000000000000000000000000000081526004016132d0929190614d47565b60405180910390fd5b818110156133fd575f81836132ee9190614e5e565b905060025f9054906101000a900473ffffffffffffffffffffffffffffffffffffffff1673ffffffffffffffffffffffffffffffffffffffff1663a9059cbb85836040518363ffffffff1660e01b815260040161334c9291906159d9565b6020604051808303815f875af1158015613368573d5f5f3e3d5ffd5b505050506040513d601f19601f8201168201806040525081019061338c919061511e565b6133c2576040517f7c07fc4c00000000000000000000000000000000000000000000000000000000815260040160405180910390fd5b7f59bfc682b673f8cbf945f1e454df9334834abf7dfe7f92237ca29ecb9b43660084826040516133f39291906159d9565b60405180910390a1505b505050565b61340a613a7b565b61341381613fac565b50565b5f60065f8381526020019081526020015f209050821561353f575f815f01600c9054906101000a90046bffffffffffffffffffffffff169050846bffffffffffffffffffffffff16816bffffffffffffffffffffffff1610156134a5576040517ff4d678b800000000000000000000000000000000000000000000000000000000815260040160405180910390fd5b84816134b1919061508e565b825f01600c6101000a8154816bffffffffffffffffffffffff02191690836bffffffffffffffffffffffff16021790555084600b600c8282829054906101000a90046bffffffffffffffffffffffff1661350b919061504f565b92506101000a8154816bffffffffffffffffffffffff02191690836bffffffffffffffffffffffff16021790555050613647565b5f815f015f9054906101000a90046bffffffffffffffffffffffff169050846bffffffffffffffffffffffff16816bffffffffffffffffffffffff1610156135b3576040517ff4d678b800000000000000000000000000000000000000000000000000000000815260040160405180910390fd5b84816135bf919061508e565b825f015f6101000a8154816bffffffffffffffffffffffff02191690836bffffffffffffffffffffffff16021790555084600b5f8282829054906101000a90046bffffffffffffffffffffffff16613617919061504f565b92506101000a8154816bffffffffffffffffffffffff02191690836bffffffffffffffffffffffff160217905550505b50505050565b5f60055f8381526020019081526020015f205f015f9054906101000a900473ffffffffffffffffffffffffffffffffffffffff16905061368c81613be9565b8073ffffffffffffffffffffffffffffffffffffffff163373ffffffffffffffffffffffffffffffffffffffff16146136fc57806040517fd8a3fb520000000000000000000000000000000000000000000000000000000081526004016136f39190614955565b60405180910390fd5b5050565b600c5f0160069054906101000a900460ff1615613749576040517fed3ba6a600000000000000000000000000000000000000000000000000000000815260040160405180910390fd5b565b5f5f5f60055f8581526020019081526020015f20600201905060065f8581526020019081526020015f205f015f9054906101000a90046bffffffffffffffffffffffff16925060065f8581526020019081526020015f205f01600c9054906101000a90046bffffffffffffffffffffffff1691505f818054905090505f5f90505b818110156138ae5760045f8483815481106137ea576137e9614d6e565b5b905f5260205f20015f9054906101000a900473ffffffffffffffffffffffffffffffffffffffff1673ffffffffffffffffffffffffffffffffffffffff1673ffffffffffffffffffffffffffffffffffffffff1681526020019081526020015f205f8781526020019081526020015f205f5f82015f6101000a81549060ff02191690555f820160016101000a81549067ffffffffffffffff02191690555f820160096101000a81549067ffffffffffffffff021916905550508060010190506137cc565b5060055f8681526020019081526020015f205f5f82015f6101000a81549073ffffffffffffffffffffffffffffffffffffffff0219169055600182015f6101000a81549073ffffffffffffffffffffffffffffffffffffffff0219169055600282015f61391b91906142e1565b505060065f8681526020019081526020015f205f5f82015f6101000a8154906bffffffffffffffffffffffff02191690555f8201600c6101000a8154906bffffffffffffffffffffffff02191690555f820160186101000a81549067ffffffffffffffff0219169055505061399a8560086140d790919063ffffffff16565b505f846bffffffffffffffffffffffff1614613a075783600a5f8282829054906101000a90046bffffffffffffffffffffffff166139d8919061508e565b92506101000a8154816bffffffffffffffffffffffff02191690836bffffffffffffffffffffffff1602179055505b5f836bffffffffffffffffffffffff1614613a745782600a600c8282829054906101000a90046bffffffffffffffffffffffff16613a45919061508e565b92506101000a8154816bffffffffffffffffffffffff02191690836bffffffffffffffffffffffff1602179055505b5050915091565b5f5f9054906101000a900473ffffffffffffffffffffffffffffffffffffffff1673ffffffffffffffffffffffffffffffffffffffff163373ffffffffffffffffffffffffffffffffffffffff1614613b09576040517f08c379a0000000000000000000000000000000000000000000000000000000008152600401613b0090615a4a565b60405180910390fd5b565b80613b42576040517ff4d678b800000000000000000000000000000000000000000000000000000000815260040160405180910390fd5b50565b5f8273ffffffffffffffffffffffffffffffffffffffff1682604051613b6a90614fd6565b5f6040518083038185875af1925050503d805f8114613ba4576040519150601f19603f3d011682016040523d82523d5f602084013e613ba9565b606091505b5050905080613be4576040517f950b247900000000000000000000000000000000000000000000000000000000815260040160405180910390fd5b505050565b5f73ffffffffffffffffffffffffffffffffffffffff168173ffffffffffffffffffffffffffffffffffffffff1603613c4e576040517f1f6a65b600000000000000000000000000000000000000000000000000000000815260040160405180910390fd5b50565b613c596142fc565b5f8383905003613c7b5760405180602001604052805f15158152509050613d41565b7f92fd13387c7fe7befbc38d303d6468778fb9731bc4583f17d92989c6fcfdeaaa7bffffffffffffffffffffffffffffffffffffffffffffffffffffffff1916838390613cc89190615a9d565b7bffffffffffffffffffffffffffffffffffffffffffffffffffffffff191614613d1e576040517f5247fdce00000000000000000000000000000000000000000000000000000000815260040160405180910390fd5b82826004908092613d3193929190615b03565b810190613d3e9190615b8e565b90505b92915050565b60607f92fd13387c7fe7befbc38d303d6468778fb9731bc4583f17d92989c6fcfdeaaa82604051602401613d7b9190615be2565b604051602081830303815290604052907bffffffffffffffffffffffffffffffffffffffffffffffffffffffff19166020820180517bffffffffffffffffffffffffffffffffffffffffffffffffffffffff83818316178352505050509050919050565b5f613dee835f01835f1b6140ee565b905092915050565b5f5f613e018461374b565b915091505f73ffffffffffffffffffffffffffffffffffffffff1660025f9054906101000a900473ffffffffffffffffffffffffffffffffffffffff1673ffffffffffffffffffffffffffffffffffffffff1614158015613e7057505f826bffffffffffffffffffffffff1614155b15613f2857613f2760025f9054906101000a900473ffffffffffffffffffffffffffffffffffffffff1673ffffffffffffffffffffffffffffffffffffffff1663a9059cbb85856bffffffffffffffffffffffff166040518363ffffffff1660e01b8152600401613ee29291906159d9565b6020604051808303815f875af1158015613efe573d5f5f3e3d5ffd5b505050506040513d601f19601f82011682018060405250810190613f22919061511e565b613b0b565b5b613f4083826bffffffffffffffffffffffff16613b45565b837f8c74ce8b8cf87f5eb001275c8be27eb34ea2b62bfab6814fcc62192bb63e81c4848484604051613f749392919061501a565b60405180910390a250505050565b5f613f8e825f01614155565b9050919050565b5f613fa2835f0183614164565b5f1c905092915050565b3373ffffffffffffffffffffffffffffffffffffffff168173ffffffffffffffffffffffffffffffffffffffff160361401a576040517f08c379a000000000000000000000000000000000000000000000000000000000815260040161401190615c45565b60405180910390fd5b8060015f6101000a81548173ffffffffffffffffffffffffffffffffffffffff021916908373ffffffffffffffffffffffffffffffffffffffff1602179055508073ffffffffffffffffffffffffffffffffffffffff165f5f9054906101000a900473ffffffffffffffffffffffffffffffffffffffff1673ffffffffffffffffffffffffffffffffffffffff167fed8889f560326eb138920d842192f0eb3dd22b4f139c87a2c57538e05bae127860405160405180910390a350565b5f6140e6835f01835f1b61418b565b905092915050565b5f6140f98383614287565b61414b57825f0182908060018154018082558091505060019003905f5260205f20015f9091909190915055825f0180549050836001015f8481526020019081526020015f20819055506001905061414f565b5f90505b92915050565b5f815f01805490509050919050565b5f825f01828154811061417a57614179614d6e565b5b905f5260205f200154905092915050565b5f5f836001015f8481526020019081526020015f205490505f811461427c575f6001826141b89190614e5e565b90505f6001865f01805490506141ce9190614e5e565b9050808214614234575f865f0182815481106141ed576141ec614d6e565b5b905f5260205f200154905080875f01848154811061420e5761420d614d6e565b5b905f5260205f20018190555083876001015f8381526020019081526020015f2081905550505b855f018054806142475761424661596d565b5b600190038181905f5260205f20015f90559055856001015f8681526020019081526020015f205f905560019350505050614281565b5f9150505b92915050565b5f5f836001015f8481526020019081526020015f20541415905092915050565b5080546142b390614d17565b5f825580601f106142c457506142de565b601f0160209004905f5260205f20906142dd9190614310565b5b50565b5080545f8255905f5260205f20906142f99190614310565b50565b60405180602001604052805f151581525090565b5f5b80821115614328578281015f9055600101614312565b505090565b5f61ffff82169050919050565b6143438161432d565b82525050565b5f63ffffffff82169050919050565b61436181614349565b82525050565b5f8115159050919050565b61437b81614367565b82525050565b5f60ff82169050919050565b61439681614381565b82525050565b5f610120820190506143b05f83018c61433a565b6143bd602083018b614358565b6143ca604083018a614372565b6143d76060830189614358565b6143e46080830188614358565b6143f160a0830187614358565b6143fe60c0830186614358565b61440b60e083018561438d565b61441961010083018461438d565b9a9950505050505050505050565b5f604051905090565b5f5ffd5b5f5ffd5b5f819050919050565b61444a81614438565b8114614454575f5ffd5b50565b5f8135905061446581614441565b92915050565b5f73ffffffffffffffffffffffffffffffffffffffff82169050919050565b5f6144948261446b565b9050919050565b6144a48161448a565b81146144ae575f5ffd5b50565b5f813590506144bf8161449b565b92915050565b5f5ffd5b5f601f19601f8301169050919050565b7f4e487b71000000000000000000000000000000000000000000000000000000005f52604160045260245ffd5b61450f826144c9565b810181811067ffffffffffffffff8211171561452e5761452d6144d9565b5b80604052505050565b5f614540614427565b905061454c8282614506565b919050565b5f67ffffffffffffffff82111561456b5761456a6144d9565b5b602082029050602081019050919050565b5f5ffd5b5f61459261458d84614551565b614537565b905080838252602082019050602084028301858111156145b5576145b461457c565b5b835b818110156145de57806145ca8882614457565b8452602084019350506020810190506145b7565b5050509392505050565b5f82601f8301126145fc576145fb6144c5565b5b813561460c848260208601614580565b91505092915050565b5f5f5f6060848603121561462c5761462b614430565b5b5f61463986828701614457565b935050602061464a868287016144b1565b925050604084013567ffffffffffffffff81111561466b5761466a614434565b5b614677868287016145e8565b9150509250925092565b5f5f6040838503121561469757614696614430565b5b5f6146a485828601614457565b92505060206146b5858286016144b1565b9150509250929050565b5f5f604083850312156146d5576146d4614430565b5b5f6146e285828601614457565b92505060206146f385828601614457565b9150509250929050565b5f819050919050565b61470f816146fd565b82525050565b5f6020820190506147285f830184614706565b92915050565b5f6bffffffffffffffffffffffff82169050919050565b61474e8161472e565b82525050565b5f6020820190506147675f830184614745565b92915050565b5f819050919050565b5f61479061478b6147868461446b565b61476d565b61446b565b9050919050565b5f6147a182614776565b9050919050565b5f6147b282614797565b9050919050565b6147c2816147a8565b82525050565b5f6020820190506147db5f8301846147b9565b92915050565b5f6147eb8261446b565b9050919050565b6147fb816147e1565b8114614805575f5ffd5b50565b5f81359050614816816147f2565b92915050565b5f6020828403121561483157614830614430565b5b5f61483e84828501614808565b91505092915050565b5f6020828403121561485c5761485b614430565b5b5f61486984828501614457565b91505092915050565b5f6020820190506148855f830184614372565b92915050565b5f602082840312156148a05761489f614430565b5b5f6148ad848285016144b1565b91505092915050565b5f6020820190506148c95f83018461433a565b92915050565b5f5f604083850312156148e5576148e4614430565b5b5f6148f2858286016144b1565b9250506020614903858286016144b1565b9150509250929050565b5f61491782614797565b9050919050565b6149278161490d565b82525050565b5f6020820190506149405f83018461491e565b92915050565b61494f8161448a565b82525050565b5f6020820190506149685f830184614946565b92915050565b5f5ffd5b5f60c082840312156149875761498661496e565b5b81905092915050565b5f602082840312156149a5576149a4614430565b5b5f82013567ffffffffffffffff8111156149c2576149c1614434565b5b6149ce84828501614972565b91505092915050565b6149e081614438565b82525050565b5f6020820190506149f95f8301846149d7565b92915050565b5f67ffffffffffffffff82169050919050565b614a1b816149ff565b82525050565b5f602082019050614a345f830184614a12565b92915050565b5f5ffd5b5f5f83601f840112614a5357614a526144c5565b5b8235905067ffffffffffffffff811115614a7057614a6f614a3a565b5b602083019150836001820283011115614a8c57614a8b61457c565b5b9250929050565b5f5f5f5f60608587031215614aab57614aaa614430565b5b5f614ab8878288016144b1565b9450506020614ac987828801614457565b935050604085013567ffffffffffffffff811115614aea57614ae9614434565b5b614af687828801614a3e565b925092505092959194509250565b5f81519050919050565b5f82825260208201905092915050565b5f819050602082019050919050565b614b3681614438565b82525050565b5f614b478383614b2d565b60208301905092915050565b5f602082019050919050565b5f614b6982614b04565b614b738185614b0e565b9350614b7e83614b1e565b805f5b83811015614bae578151614b958882614b3c565b9750614ba083614b53565b925050600181019050614b81565b5085935050505092915050565b5f6020820190508181035f830152614bd38184614b5f565b905092915050565b5f81519050919050565b5f82825260208201905092915050565b5f819050602082019050919050565b614c0d8161448a565b82525050565b5f614c1e8383614c04565b60208301905092915050565b5f602082019050919050565b5f614c4082614bdb565b614c4a8185614be5565b9350614c5583614bf5565b805f5b83811015614c85578151614c6c8882614c13565b9750614c7783614c2a565b925050600181019050614c58565b5085935050505092915050565b5f60a082019050614ca55f830188614745565b614cb26020830187614745565b614cbf6040830186614a12565b614ccc6060830185614946565b8181036080830152614cde8184614c36565b90509695505050505050565b7f4e487b71000000000000000000000000000000000000000000000000000000005f52602260045260245ffd5b5f6002820490506001821680614d2e57607f821691505b602082108103614d4157614d40614cea565b5b50919050565b5f604082019050614d5a5f8301856149d7565b614d6760208301846149d7565b9392505050565b7f4e487b71000000000000000000000000000000000000000000000000000000005f52603260045260245ffd5b5f604082019050614dae5f8301856149d7565b8181036020830152614dc08184614b5f565b90509392505050565b5f81519050919050565b5f81905092915050565b8281835e5f83830152505050565b5f614df582614dc9565b614dff8185614dd3565b9350614e0f818560208601614ddd565b80840191505092915050565b5f614e268284614deb565b915081905092915050565b7f4e487b71000000000000000000000000000000000000000000000000000000005f52601160045260245ffd5b5f614e6882614438565b9150614e7383614438565b9250828203905081811115614e8b57614e8a614e31565b5b92915050565b5f614e9b82614438565b9150614ea683614438565b9250828202614eb481614438565b91508282048414831517614ecb57614eca614e31565b5b5092915050565b5f614edc82614438565b9150614ee783614438565b9250828201905080821115614eff57614efe614e31565b5b92915050565b7f4e487b71000000000000000000000000000000000000000000000000000000005f52601260045260245ffd5b5f614f3c82614438565b9150614f4783614438565b925082614f5757614f56614f05565b5b828204905092915050565b5f60a082019050614f755f8301886149d7565b614f826020830187614745565b614f8f6040830186614372565b614f9c6060830185614372565b614fa96080830184614372565b9695505050505050565b50565b5f614fc15f83614dd3565b9150614fcc82614fb3565b5f82019050919050565b5f614fe082614fb6565b9150819050919050565b5f615004614fff614ffa8461472e565b61476d565b614438565b9050919050565b61501481614fea565b82525050565b5f60608201905061502d5f830186614946565b61503a602083018561500b565b615047604083018461500b565b949350505050565b5f6150598261472e565b91506150648361472e565b925082820190506bffffffffffffffffffffffff81111561508857615087614e31565b5b92915050565b5f6150988261472e565b91506150a38361472e565b925082820390506bffffffffffffffffffffffff8111156150c7576150c6614e31565b5b92915050565b5f6040820190506150e05f830185614946565b6150ed602083018461500b565b9392505050565b6150fd81614367565b8114615107575f5ffd5b50565b5f81519050615118816150f4565b92915050565b5f6020828403121561513357615132614430565b5b5f6151408482850161510a565b91505092915050565b5f82825260208201905092915050565b7f4d7573742062652070726f706f736564206f776e6572000000000000000000005f82015250565b5f61518d601683615149565b915061519882615159565b602082019050919050565b5f6020820190508181035f8301526151ba81615181565b9050919050565b5f6151cb82614797565b9050919050565b6151db816151c1565b82525050565b5f6040820190506151f45f8301856151d2565b61520160208301846149d7565b9392505050565b5f60408201905061521b5f8301856149d7565b6152286020830184614946565b9392505050565b5f61523982614438565b91507fffffffffffffffffffffffffffffffffffffffffffffffffffffffffffffffff820361526b5761526a614e31565b5b600182019050919050565b5f5ffd5b5f5ffd5b5f5ffd5b5f5f8335600160200384360303811261529e5761529d615276565b5b80840192508235915067ffffffffffffffff8211156152c0576152bf61527a565b5b6020830192506001820236038313156152dc576152db61527e565b5b509250929050565b6152ed81614349565b81146152f7575f5ffd5b50565b5f81359050615308816152e4565b92915050565b5f6020828403121561532357615322614430565b5b5f615330848285016152fa565b91505092915050565b5f819050815f5260205f209050919050565b5f6020601f8301049050919050565b5f82821b905092915050565b5f600883026153957fffffffffffffffffffffffffffffffffffffffffffffffffffffffffffffffff8261535a565b61539f868361535a565b95508019841693508086168417925050509392505050565b5f6153d16153cc6153c784614438565b61476d565b614438565b9050919050565b5f819050919050565b6153ea836153b7565b6153fe6153f6826153d8565b848454615366565b825550505050565b5f5f905090565b615415615406565b6154208184846153e1565b505050565b5f5b828110156154465761543b5f82840161540d565b600181019050615427565b505050565b601f82111561549957828211156154985761546581615339565b61546e8361534b565b6154778561534b565b6020861015615484575f90505b80830161549382840382615425565b505050505b5b505050565b5f82821c905092915050565b5f6154b95f198460080261549e565b1980831691505092915050565b5f6154d183836154aa565b9150826002028217905092915050565b6154ea82614dc9565b67ffffffffffffffff811115615503576155026144d9565b5b61550d8254614d17565b61551882828561544b565b5f60209050601f831160018114615549575f8415615537578287015190505b61554185826154c6565b8655506155a8565b601f19841661555786615339565b5f5b8281101561557e57848901518255600182019150602085019450602081019050615559565b8683101561559b5784890151615597601f8916826154aa565b8355505b6001600288020188555050505b505050505050565b6155b98161432d565b81146155c3575f5ffd5b50565b5f813590506155d4816155b0565b92915050565b5f602082840312156155ef576155ee614430565b5b5f6155fc848285016155c6565b91505092915050565b5f82825260208201905092915050565b5f61561f82614dc9565b6156298185615605565b9350615639818560208601614ddd565b615642816144c9565b840191505092915050565b5f60c0820190506156605f8301896149d7565b61566d60208301886149d7565b61567a604083018761433a565b6156876060830186614358565b6156946080830185614358565b81810360a08301526156a68184615615565b9050979650505050505050565b5f8160601b9050919050565b5f6156c9826156b3565b9050919050565b5f6156da826156bf565b9050919050565b6156f26156ed8261448a565b6156d0565b82525050565b5f819050919050565b5f819050919050565b61571b615716826156f8565b615701565b82525050565b5f8160c01b9050919050565b5f61573782615721565b9050919050565b61574f61574a826149ff565b61572d565b82525050565b5f61576082876156e1565b601482019150615770828661570a565b60208201915061578082856156e1565b601482019150615790828461573e565b60088201915081905095945050505050565b5f6157ac826149ff565b91506157b7836149ff565b9250828201905067ffffffffffffffff8111156157d7576157d6614e31565b5b92915050565b5f81549050919050565b5f8190506001806001038301049050919050565b5f819050815f5260205f209050919050565b5f5b8281101561582e576158235f82840161540d565b60018101905061580f565b505050565b8183101561586a57615844826157e7565b61584d846157e7565b615856836157fb565b8181016158658385038261580d565b505050505b505050565b68010000000000000000821115615889576158886144d9565b5b615892816157dd565b8282556158a0838284615833565b505050565b5f6158b0825161448a565b80915050919050565b5f819050919050565b6158cb82614bdb565b67ffffffffffffffff8111156158e4576158e36144d9565b5b6158ee818361586f565b6158f783614bf5565b615900836157fb565b600183045f5b8181101561593d575f615918856158a5565b615921816158b9565b8092506020870196505050808285015550600181019050615906565b50505050505050565b5f6040820190506159595f830185614946565b6159666020830184614946565b9392505050565b7f4e487b71000000000000000000000000000000000000000000000000000000005f52603160045260245ffd5b5f815190506159a881614441565b92915050565b5f602082840312156159c3576159c2614430565b5b5f6159d08482850161599a565b91505092915050565b5f6040820190506159ec5f830185614946565b6159f960208301846149d7565b9392505050565b7f4f6e6c792063616c6c61626c65206279206f776e6572000000000000000000005f82015250565b5f615a34601683615149565b9150615a3f82615a00565b602082019050919050565b5f6020820190508181035f830152615a6181615a28565b9050919050565b5f82905092915050565b5f7fffffffff0000000000000000000000000000000000000000000000000000000082169050919050565b5f615aa88383615a68565b82615ab38135615a72565b92506004821015615af357615aee7fffffffff000000000000000000000000000000000000000000000000000000008360040360080261535a565b831692505b505092915050565b5f5ffd5b5f5ffd5b5f5f85851115615b1657615b15615afb565b5b83861115615b2757615b26615aff565b5b6001850283019150848603905094509492505050565b5f5ffd5b5f81359050615b4f816150f4565b92915050565b5f60208284031215615b6a57615b69615b3d565b5b615b746020614537565b90505f615b8384828501615b41565b5f8301525092915050565b5f60208284031215615ba357615ba2614430565b5b5f615bb084828501615b55565b91505092915050565b615bc281614367565b82525050565b602082015f820151615bdc5f850182615bb9565b50505050565b5f602082019050615bf55f830184615bc8565b92915050565b7f43616e6e6f74207472616e7366657220746f2073656c660000000000000000005f82015250565b5f615c2f601783615149565b9150615c3a82615bfb565b602082019050919050565b5f6020820190508181035f830152615c5c81615c23565b905091905056fea2646970667358221220bc911fe8efab392673118c253867a5ea95f7416ba6efb7573155b420322eb8ac64736f6c63430008210033","linkReferences":{}},"methodIdentifiers":{"LINK()":"1b6b6d23","LINK_NATIVE_FEED()":"72e9d565","MAX_CONSUMERS()":"64d51a2a","acceptOwnership()":"79ba5097","acceptSubscriptionOwnerTransfer(uint256)":"b2a7cac5","addConsumer(uint256,address)":"bec4c08c","cancelSubscription(uint256,address)":"0ae09540","consumerIsAdded(uint256,address)":"953e9c75","createSubscription()":"a21a23e4","fulfillRandomWords(uint256,address)":"808974ff","fulfillRandomWordsWithOverride(uint256,address,uint256[])":"08e3898e","fundSubscription(uint256,uint256)":"115e3c0d","fundSubscriptionWithNative(uint256)":"95b55cfc","getActiveSubscriptionIds(uint256,uint256)":"aefb212f","getSubscription(uint256)":"dc311dd3","i_base_fee()":"1eebc117","i_gas_price()":"dcab3dcf","i_wei_per_unit_link()":"13478329","onTokenTransfer(address,uint256,bytes)":"a4c0ed36","owner()":"8da5cb5b","ownerCancelSubscription(uint256)":"aa433aff","pendingRequestExists(uint256)":"41af6c87","recoverFunds(address)":"e72f6e30","recoverNativeFunds(address)":"8402595e","removeConsumer(uint256,address)":"cb631797","requestRandomWords((bytes32,uint256,uint16,uint32,uint32,bytes))":"9b1c385e","requestSubscriptionOwnerTransfer(uint256,address)":"dac83d29","s_config()":"088070f5","s_currentSubNonce()":"9d40a6fd","s_totalBalance()":"86fe91c7","s_totalNativeBalance()":"18e3dd27","setConfig()":"8b673e7a","setLINKAndLINKNativeFeed(address,address)":"65982744","transferOwnership(address)":"f2fde38b","withdraw(address)":"51cff8d9","withdrawNative(address)":"2f622e6b"},"id":12}