{"abi":[{"type":"function","name":"BuyTicket","inputs":[],"outputs":[{"name":"","type":"bool","internalType":"bool"},{"name":"","type":"uint256","internalType":"uint256"}],"stateMutability":"payable"},{"type":"function","name":"ChangeOnwer","inputs":[{"name":"_new_owner","type":"address","internalType":"address"}],"outputs":[],"stateMutability":"nonpayable"},{"type":"function","name":"CreateAndStartLottery","inputs":[{"name":"_name","type":"string","internalType":"string"},{"name":"_max_amount","type":"uint256","internalType":"uint256"}],"outputs":[{"name":"","type":"bool","internalType":"bool"}],"stateMutability":"payable"},{"type":"function","name":"ReleaseComissions","inputs":[],"outputs":[],"stateMutability":"nonpayable"},{"type":"function","name":"ReleaseRewards","inputs":[],"outputs":[],"stateMutability":"nonpayable"},{"type":"function","name":"RequestRandomWinner","inputs":[],"outputs":[{"name":"","type":"uint256","internalType":"uint256"},{"name":"","type":"address","internalType":"address"}],"stateMutability":"nonpayable"},{"type":"function","name":"s_finished","inputs":[],"outputs":[{"name":"","type":"bool","internalType":"bool"}],"stateMutability":"view"},{"type":"function","name":"s_max_amount","inputs":[],"outputs":[{"name":"","type":"uint256","internalType":"uint256"}],"stateMutability":"view"},{"type":"function","name":"s_name","inputs":[],"outputs":[{"name":"","type":"string","internalType":"string"}],"stateMutability":"view"},{"type":"function","name":"s_owner","inputs":[],"outputs":[{"name":"","type":"address","internalType":"address"}],"stateMutability":"view"},{"type":"function","name":"s_rewards","inputs":[],"outputs":[{"name":"","type":"uint256","internalType":"uint256"}],"stateMutability":"view"},{"type":"function","name":"s_rewards_released","inputs":[],"outputs":[{"name":"","type":"bool","internalType":"bool"}],"stateMutability":"view"},{"type":"function","name":"s_started","inputs":[],"outputs":[{"name":"","type":"bool","internalType":"bool"}],"stateMutability":"view"},{"type":"function","name":"s_ticket_nonce","inputs":[],"outputs":[{"name":"","type":"uint256","internalType":"uint256"}],"stateMutability":"view"},{"type":"function","name":"s_winner","inputs":[],"outputs":[{"name":"","type":"address","internalType":"address"}],"stateMutability":"view"}],"bytecode":{"object":"0x6080604052348015600e575f5ffd5b5061169d8061001c5f395ff3fe6080604052600436106100e7575f3560e01c806384a95d9711610089578063bba1964f11610058578063bba1964f14610285578063d8e4b3a0146102af578063e3978240146102df578063fde8f0bf14610309576100e7565b806384a95d97146101df578063a044ee2a14610209578063a280a8f714610231578063afb41dac1461025b576100e7565b8063507f9f4b116100c5578063507f9f4b146101555780635e8de0db1461016b5780637428fe0514610196578063761aef78146101c0576100e7565b8063037c325f146100eb5780631b56563c146101155780633dc452e11461012b575b5f5ffd5b3480156100f6575f5ffd5b506100ff610333565b60405161010c9190610bca565b60405180910390f35b348015610120575f5ffd5b50610129610339565b005b348015610136575f5ffd5b5061013f610460565b60405161014c9190610c22565b60405180910390f35b348015610160575f5ffd5b50610169610486565b005b348015610176575f5ffd5b5061017f61063d565b60405161018d929190610c3b565b60405180910390f35b3480156101a1575f5ffd5b506101aa61073a565b6040516101b79190610bca565b60405180910390f35b6101c8610740565b6040516101d6929190610c7c565b60405180910390f35b3480156101ea575f5ffd5b506101f3610879565b6040516102009190610ca3565b60405180910390f35b348015610214575f5ffd5b5061022f600480360381019061022a9190610cf7565b61088c565b005b34801561023c575f5ffd5b5061024561095e565b6040516102529190610ca3565b60405180910390f35b348015610266575f5ffd5b5061026f610970565b60405161027c9190610bca565b60405180910390f35b348015610290575f5ffd5b50610299610976565b6040516102a69190610d92565b60405180910390f35b6102c960048036038101906102c49190610f08565b610a01565b6040516102d69190610ca3565b60405180910390f35b3480156102ea575f5ffd5b506102f3610b7c565b6040516103009190610c22565b60405180910390f35b348015610314575f5ffd5b5061031d610ba1565b60405161032a9190610ca3565b60405180910390f35b60015481565b5f1515600260019054906101000a900460ff1615151461038e576040517f08c379a000000000000000000000000000000000000000000000000000000000815260040161038590610fac565b60405180910390fd5b5f5f600260039054906101000a900473ffffffffffffffffffffffffffffffffffffffff1673ffffffffffffffffffffffffffffffffffffffff166005546040516103d890610ff7565b5f6040518083038185875af1925050503d805f8114610412576040519150601f19603f3d011682016040523d82523d5f602084013e610417565b606091505b50915091508161045c576040517f08c379a000000000000000000000000000000000000000000000000000000000815260040161045390611055565b60405180910390fd5b5050565b600260039054906101000a900473ffffffffffffffffffffffffffffffffffffffff1681565b60065f9054906101000a900473ffffffffffffffffffffffffffffffffffffffff1673ffffffffffffffffffffffffffffffffffffffff163373ffffffffffffffffffffffffffffffffffffffff1614610515576040517f08c379a000000000000000000000000000000000000000000000000000000000815260040161050c906110bd565b60405180910390fd5b6001600260016101000a81548160ff021916908315150217905561056e576040517f08c379a000000000000000000000000000000000000000000000000000000000815260040161056590611125565b60405180910390fd5b5f5f60065f9054906101000a900473ffffffffffffffffffffffffffffffffffffffff1673ffffffffffffffffffffffffffffffffffffffff16476040516105b590610ff7565b5f6040518083038185875af1925050503d805f81146105ef576040519150601f19603f3d011682016040523d82523d5f602084013e6105f4565b606091505b509150915081610639576040517f08c379a000000000000000000000000000000000000000000000000000000000815260040161063090611055565b60405180910390fd5b5050565b5f5f60016002806101000a81548160ff0219169083151502179055610697576040517f08c379a000000000000000000000000000000000000000000000000000000000815260040161068e9061118d565b60405180910390fd5b5f6001905060045f8281526020019081526020015f205f9054906101000a900473ffffffffffffffffffffffffffffffffffffffff16600260036101000a81548173ffffffffffffffffffffffffffffffffffffffff021916908373ffffffffffffffffffffffffffffffffffffffff16021790555080600260039054906101000a900473ffffffffffffffffffffffffffffffffffffffff1692509250509091565b60035481565b5f5f6001151560025f9054906101000a900460ff16151514610797576040517f08c379a000000000000000000000000000000000000000000000000000000000815260040161078e906111f5565b60405180910390fd5b662386f26fc1000034146107e0576040517f08c379a00000000000000000000000000000000000000000000000000000000081526004016107d79061125d565b60405180910390fd5b3360045f60035481526020019081526020015f205f6101000a81548173ffffffffffffffffffffffffffffffffffffffff021916908373ffffffffffffffffffffffffffffffffffffffff16021790555060035f815480929190610843906112a8565b9190505550662386f26fc1000060055f82825461086091906112ef565b925050819055505f600190508060035492509250509091565b600260019054906101000a900460ff1681565b60065f9054906101000a900473ffffffffffffffffffffffffffffffffffffffff1673ffffffffffffffffffffffffffffffffffffffff163373ffffffffffffffffffffffffffffffffffffffff161461091b576040517f08c379a0000000000000000000000000000000000000000000000000000000008152600401610912906110bd565b60405180910390fd5b8060065f6101000a81548173ffffffffffffffffffffffffffffffffffffffff021916908373ffffffffffffffffffffffffffffffffffffffff16021790555050565b60025f9054906101000a900460ff1681565b60055481565b5f80546109829061134f565b80601f01602080910402602001604051908101604052809291908181526020018280546109ae9061134f565b80156109f95780601f106109d0576101008083540402835291602001916109f9565b820191905f5260205f20905b8154815290600101906020018083116109dc57829003601f168201915b505050505081565b5f60065f9054906101000a900473ffffffffffffffffffffffffffffffffffffffff1673ffffffffffffffffffffffffffffffffffffffff163373ffffffffffffffffffffffffffffffffffffffff1614610a91576040517f08c379a0000000000000000000000000000000000000000000000000000000008152600401610a88906110bd565b60405180910390fd5b5f151560025f9054906101000a900460ff16151514610ae5576040517f08c379a0000000000000000000000000000000000000000000000000000000008152600401610adc906113c9565b60405180910390fd5b662386f26fc100003414610b2e576040517f08c379a0000000000000000000000000000000000000000000000000000000008152600401610b259061125d565b60405180910390fd5b825f9081610b3c9190611598565b50816001819055505f600381905550600160025f6101000a81548160ff02191690831515021790555060025f9054906101000a900460ff16905092915050565b60065f9054906101000a900473ffffffffffffffffffffffffffffffffffffffff1681565b60028054906101000a900460ff1681565b5f819050919050565b610bc481610bb2565b82525050565b5f602082019050610bdd5f830184610bbb565b92915050565b5f73ffffffffffffffffffffffffffffffffffffffff82169050919050565b5f610c0c82610be3565b9050919050565b610c1c81610c02565b82525050565b5f602082019050610c355f830184610c13565b92915050565b5f604082019050610c4e5f830185610bbb565b610c5b6020830184610c13565b9392505050565b5f8115159050919050565b610c7681610c62565b82525050565b5f604082019050610c8f5f830185610c6d565b610c9c6020830184610bbb565b9392505050565b5f602082019050610cb65f830184610c6d565b92915050565b5f604051905090565b5f5ffd5b5f5ffd5b610cd681610c02565b8114610ce0575f5ffd5b50565b5f81359050610cf181610ccd565b92915050565b5f60208284031215610d0c57610d0b610cc5565b5b5f610d1984828501610ce3565b91505092915050565b5f81519050919050565b5f82825260208201905092915050565b8281835e5f83830152505050565b5f601f19601f8301169050919050565b5f610d6482610d22565b610d6e8185610d2c565b9350610d7e818560208601610d3c565b610d8781610d4a565b840191505092915050565b5f6020820190508181035f830152610daa8184610d5a565b905092915050565b5f5ffd5b5f5ffd5b7f4e487b71000000000000000000000000000000000000000000000000000000005f52604160045260245ffd5b610df082610d4a565b810181811067ffffffffffffffff82111715610e0f57610e0e610dba565b5b80604052505050565b5f610e21610cbc565b9050610e2d8282610de7565b919050565b5f67ffffffffffffffff821115610e4c57610e4b610dba565b5b610e5582610d4a565b9050602081019050919050565b828183375f83830152505050565b5f610e82610e7d84610e32565b610e18565b905082815260208101848484011115610e9e57610e9d610db6565b5b610ea9848285610e62565b509392505050565b5f82601f830112610ec557610ec4610db2565b5b8135610ed5848260208601610e70565b91505092915050565b610ee781610bb2565b8114610ef1575f5ffd5b50565b5f81359050610f0281610ede565b92915050565b5f5f60408385031215610f1e57610f1d610cc5565b5b5f83013567ffffffffffffffff811115610f3b57610f3a610cc9565b5b610f4785828601610eb1565b9250506020610f5885828601610ef4565b9150509250929050565b7f4e6f2072657761726473000000000000000000000000000000000000000000005f82015250565b5f610f96600a83610d2c565b9150610fa182610f62565b602082019050919050565b5f6020820190508181035f830152610fc381610f8a565b9050919050565b5f81905092915050565b50565b5f610fe25f83610fca565b9150610fed82610fd4565b5f82019050919050565b5f61100182610fd7565b9150819050919050565b7f4661696c656420746f2073656e642045746865720000000000000000000000005f82015250565b5f61103f601483610d2c565b915061104a8261100b565b602082019050919050565b5f6020820190508181035f83015261106c81611033565b9050919050565b7f4e6f74206f776e657200000000000000000000000000000000000000000000005f82015250565b5f6110a7600983610d2c565b91506110b282611073565b602082019050919050565b5f6020820190508181035f8301526110d48161109b565b9050919050565b7f52656c65617365207265776172647320666972737400000000000000000000005f82015250565b5f61110f601583610d2c565b915061111a826110db565b602082019050919050565b5f6020820190508181035f83015261113c81611103565b9050919050565b7f4e6f742066696e697368656420796574000000000000000000000000000000005f82015250565b5f611177601083610d2c565b915061118282611143565b602082019050919050565b5f6020820190508181035f8301526111a48161116b565b9050919050565b7f4e6f7420737461727465642079657400000000000000000000000000000000005f82015250565b5f6111df600f83610d2c565b91506111ea826111ab565b602082019050919050565b5f6020820190508181035f83015261120c816111d3565b9050919050565b7f53656e6420302e30312045544820746f20627579207469636b657400000000005f82015250565b5f611247601b83610d2c565b915061125282611213565b602082019050919050565b5f6020820190508181035f8301526112748161123b565b9050919050565b7f4e487b71000000000000000000000000000000000000000000000000000000005f52601160045260245ffd5b5f6112b282610bb2565b91507fffffffffffffffffffffffffffffffffffffffffffffffffffffffffffffffff82036112e4576112e361127b565b5b600182019050919050565b5f6112f982610bb2565b915061130483610bb2565b925082820190508082111561131c5761131b61127b565b5b92915050565b7f4e487b71000000000000000000000000000000000000000000000000000000005f52602260045260245ffd5b5f600282049050600182168061136657607f821691505b60208210810361137957611378611322565b5b50919050565b7f416c7265616479207374617274656400000000000000000000000000000000005f82015250565b5f6113b3600f83610d2c565b91506113be8261137f565b602082019050919050565b5f6020820190508181035f8301526113e0816113a7565b9050919050565b5f819050815f5260205f209050919050565b5f6020601f8301049050919050565b5f82821b905092915050565b5f600883026114437fffffffffffffffffffffffffffffffffffffffffffffffffffffffffffffffff82611408565b61144d8683611408565b95508019841693508086168417925050509392505050565b5f819050919050565b5f61148861148361147e84610bb2565b611465565b610bb2565b9050919050565b5f819050919050565b6114a18361146e565b6114b56114ad8261148f565b848454611414565b825550505050565b5f5f905090565b6114cc6114bd565b6114d7818484611498565b505050565b5f5b828110156114fd576114f25f8284016114c4565b6001810190506114de565b505050565b601f821115611550578282111561154f5761151c816113e7565b611525836113f9565b61152e856113f9565b602086101561153b575f90505b80830161154a828403826114dc565b505050505b5b505050565b5f82821c905092915050565b5f6115705f1984600802611555565b1980831691505092915050565b5f6115888383611561565b9150826002028217905092915050565b6115a182610d22565b67ffffffffffffffff8111156115ba576115b9610dba565b5b6115c4825461134f565b6115cf828285611502565b5f60209050601f831160018114611600575f84156115ee578287015190505b6115f8858261157d565b86555061165f565b601f19841661160e866113e7565b5f5b8281101561163557848901518255600182019150602085019450602081019050611610565b86831015611652578489015161164e601f891682611561565b8355505b6001600288020188555050505b50505050505056fea2646970667358221220ef01439a17cd8ba7c9bbd13b6923345ba97bc71080064bf388b5cb3a76c4680564736f6c63430008210033","linkReferences":{}},"methodIdentifiers":{"BuyTicket()":"761aef78","ChangeOnwer(address)":"a044ee2a","CreateAndStartLottery(string,uint256)":"d8e4b3a0","ReleaseComissions()":"507f9f4b","ReleaseRewards()":"1b56563c","RequestRandomWinner()":"5e8de0db","s_finished()":"fde8f0bf","s_max_amount()":"037c325f","s_name()":"bba1964f","s_owner()":"e3978240","s_rewards()":"afb41dac","s_rewards_released()":"84a95d97","s_started()":"a280a8f7","s_ticket_nonce()":"7428fe05","s_winner()":"3dc452e1"},"id":0}