{"abi":[{"type":"constructor","inputs":[{"name":"subscriptionId","type":"uint256","internalType":"uint256"},{"name":"vrfCoordinator","type":"address","internalType":"address"},{"name":"keyHash","type":"bytes32","internalType":"bytes32"}],"stateMutability":"nonpayable"},{"type":"function","name":"acceptOwnership","inputs":[],"outputs":[],"stateMutability":"nonpayable"},{"type":"function","name":"buyTicket","inputs":[],"outputs":[{"name":"","type":"bool","internalType":"bool"},{"name":"","type":"uint256","internalType":"uint256"}],"stateMutability":"payable"},{"type":"function","name":"createAndStartLottery","inputs":[{"name":"_name","type":"string","internalType":"string"},{"name":"_maxAmount","type":"uint256","internalType":"uint256"}],"outputs":[{"name":"","type":"bool","internalType":"bool"}],"stateMutability":"payable"},{"type":"function","name":"lotAdmin","inputs":[],"outputs":[{"name":"","type":"address","internalType":"address"}],"stateMutability":"view"},{"type":"function","name":"lotFinished","inputs":[],"outputs":[{"name":"","type":"bool","internalType":"bool"}],"stateMutability":"view"},{"type":"function","name":"lotMaxAmount","inputs":[],"outputs":[{"name":"","type":"uint256","internalType":"uint256"}],"stateMutability":"view"},{"type":"function","name":"lotName","inputs":[],"outputs":[{"name":"","type":"string","internalType":"string"}],"stateMutability":"view"},{"type":"function","name":"lotNonce","inputs":[],"outputs":[{"name":"","type":"uint256","internalType":"uint256"}],"stateMutability":"view"},{"type":"function","name":"lotRewards","inputs":[],"outputs":[{"name":"","type":"uint256","internalType":"uint256"}],"stateMutability":"view"},{"type":"function","name":"lotRewardsReleased","inputs":[],"outputs":[{"name":"","type":"bool","internalType":"bool"}],"stateMutability":"view"},{"type":"function","name":"lotStarted","inputs":[],"outputs":[{"name":"","type":"bool","internalType":"bool"}],"stateMutability":"view"},{"type":"function","name":"lotWinner","inputs":[],"outputs":[{"name":"","type":"address","internalType":"address"}],"stateMutability":"view"},{"type":"function","name":"owner","inputs":[],"outputs":[{"name":"","type":"address","internalType":"address"}],"stateMutability":"view"},{"type":"function","name":"rawFulfillRandomWords","inputs":[{"name":"requestId","type":"uint256","internalType":"uint256"},{"name":"randomWords","type":"uint256[]","internalType":"uint256[]"}],"outputs":[],"stateMutability":"nonpayable"},{"type":"function","name":"releaseComissions","inputs":[],"outputs":[],"stateMutability":"nonpayable"},{"type":"function","name":"releaseRewards","inputs":[],"outputs":[],"stateMutability":"nonpayable"},{"type":"function","name":"requestRandomWords","inputs":[],"outputs":[],"stateMutability":"nonpayable"},{"type":"function","name":"revealRandomWinner","inputs":[],"outputs":[{"name":"","type":"uint256","internalType":"uint256"},{"name":"","type":"address","internalType":"address"}],"stateMutability":"nonpayable"},{"type":"function","name":"s_randomWords","inputs":[{"name":"","type":"uint256","internalType":"uint256"}],"outputs":[{"name":"","type":"uint256","internalType":"uint256"}],"stateMutability":"view"},{"type":"function","name":"s_requestId","inputs":[],"outputs":[{"name":"","type":"uint256","internalType":"uint256"}],"stateMutability":"view"},{"type":"function","name":"s_vrfCoordinator","inputs":[],"outputs":[{"name":"","type":"address","internalType":"contract IVRFCoordinatorV2Plus"}],"stateMutability":"view"},{"type":"function","name":"setCoordinator","inputs":[{"name":"_vrfCoordinator","type":"address","internalType":"address"}],"outputs":[],"stateMutability":"nonpayable"},{"type":"function","name":"transferOwnership","inputs":[{"name":"to","type":"address","internalType":"address"}],"outputs":[],"stateMutability":"nonpayable"},{"type":"event","name":"CoordinatorSet","inputs":[{"name":"vrfCoordinator","type":"address","indexed":false,"internalType":"address"}],"anonymous":false},{"type":"event","name":"OwnershipTransferRequested","inputs":[{"name":"from","type":"address","indexed":true,"internalType":"address"},{"name":"to","type":"address","indexed":true,"internalType":"address"}],"anonymous":false},{"type":"event","name":"OwnershipTransferred","inputs":[{"name":"from","type":"address","indexed":true,"internalType":"address"},{"name":"to","type":"address","indexed":true,"internalType":"address"}],"anonymous":false},{"type":"event","name":"ReturnedRandomness","inputs":[{"name":"randomWords","type":"uint256[]","indexed":false,"internalType":"uint256[]"}],"anonymous":false},{"type":"error","name":"OnlyCoordinatorCanFulfill","inputs":[{"name":"have","type":"address","internalType":"address"},{"name":"want","type":"address","internalType":"address"}]},{"type":"error","name":"OnlyOwnerOrCoordinator","inputs":[{"name":"have","type":"address","internalType":"address"},{"name":"owner","type":"address","internalType":"address"},{"name":"coordinator","type":"address","internalType":"address"}]},{"type":"error","name":"ZeroAddress","inputs":[]}],"bytecode":{"object":"0x60c060405234801561000f575f5ffd5b50604051612c6c380380612c6c833981810160405281019061003191906103d5565b8133805f5f73ffffffffffffffffffffffffffffffffffffffff168273ffffffffffffffffffffffffffffffffffffffff16036100a3576040517f08c379a000000000000000000000000000000000000000000000000000000000815260040161009a9061047f565b60405180910390fd5b815f5f6101000a81548173ffffffffffffffffffffffffffffffffffffffff021916908373ffffffffffffffffffffffffffffffffffffffff1602179055505f73ffffffffffffffffffffffffffffffffffffffff168173ffffffffffffffffffffffffffffffffffffffff161461012557610124816101e660201b60201c565b5b5050505f73ffffffffffffffffffffffffffffffffffffffff168173ffffffffffffffffffffffffffffffffffffffff160361018d576040517fd92e233d00000000000000000000000000000000000000000000000000000000815260040160405180910390fd5b8060025f6101000a81548173ffffffffffffffffffffffffffffffffffffffff021916908373ffffffffffffffffffffffffffffffffffffffff160217905550508060a081815250508260808181525050505050610505565b3373ffffffffffffffffffffffffffffffffffffffff168173ffffffffffffffffffffffffffffffffffffffff1603610254576040517f08c379a000000000000000000000000000000000000000000000000000000000815260040161024b906104e7565b60405180910390fd5b8060015f6101000a81548173ffffffffffffffffffffffffffffffffffffffff021916908373ffffffffffffffffffffffffffffffffffffffff1602179055508073ffffffffffffffffffffffffffffffffffffffff165f5f9054906101000a900473ffffffffffffffffffffffffffffffffffffffff1673ffffffffffffffffffffffffffffffffffffffff167fed8889f560326eb138920d842192f0eb3dd22b4f139c87a2c57538e05bae127860405160405180910390a350565b5f5ffd5b5f819050919050565b61032781610315565b8114610331575f5ffd5b50565b5f815190506103428161031e565b92915050565b5f73ffffffffffffffffffffffffffffffffffffffff82169050919050565b5f61037182610348565b9050919050565b61038181610367565b811461038b575f5ffd5b50565b5f8151905061039c81610378565b92915050565b5f819050919050565b6103b4816103a2565b81146103be575f5ffd5b50565b5f815190506103cf816103ab565b92915050565b5f5f5f606084860312156103ec576103eb610311565b5b5f6103f986828701610334565b935050602061040a8682870161038e565b925050604061041b868287016103c1565b9150509250925092565b5f82825260208201905092915050565b7f43616e6e6f7420736574206f776e657220746f207a65726f00000000000000005f82015250565b5f610469601883610425565b915061047482610435565b602082019050919050565b5f6020820190508181035f8301526104968161045d565b9050919050565b7f43616e6e6f74207472616e7366657220746f2073656c660000000000000000005f82015250565b5f6104d1601783610425565b91506104dc8261049d565b602082019050919050565b5f6020820190508181035f8301526104fe816104c5565b9050919050565b60805160a0516127466105265f395f610fdb01525f61100101526127465ff3fe60806040526004361061013f575f3560e01c80639eccacf6116100b5578063e0c862891161006e578063e0c86289146103d4578063e3974895146103ea578063e89e106a14610414578063edca914c1461043e578063f2fde38b1461045d578063f6eaffc8146104855761013f565b80639eccacf6146102ec578063ad6c4dd714610316578063c03dbdc214610340578063c1c02e5a1461036a578063cd37e95814610394578063d0fab3ca146103be5761013f565b806367c828b71161010757806367c828b71461021457806379ba5097146102445780638da5cb5b1461025a5780638ea9811714610284578063996da106146102ac5780639c0c6a78146102d65761013f565b806314a5cdb4146101435780631ac7be161461016d5780631fe543e3146101975780632969c189146101bf57806344c4dc99146101e9575b5f5ffd5b34801561014e575f5ffd5b506101576104c1565b604051610164919061151b565b60405180910390f35b348015610178575f5ffd5b506101816104c7565b60405161018e9190611573565b60405180910390f35b3480156101a2575f5ffd5b506101bd60048036038101906101b89190611628565b6104ed565b005b3480156101ca575f5ffd5b506101d36105b1565b6040516101e0919061169f565b60405180910390f35b3480156101f4575f5ffd5b506101fd6105c4565b60405161020b9291906116b8565b60405180910390f35b61022e60048036038101906102299190611817565b6106f9565b60405161023b919061169f565b60405180910390f35b34801561024f575f5ffd5b506102586107fb565b005b348015610265575f5ffd5b5061026e61098a565b60405161027b9190611573565b60405180910390f35b34801561028f575f5ffd5b506102aa60048036038101906102a5919061189b565b6109b1565b005b3480156102b7575f5ffd5b506102c0610b8e565b6040516102cd919061151b565b60405180910390f35b3480156102e1575f5ffd5b506102ea610b94565b005b3480156102f7575f5ffd5b50610300610cc1565b60405161030d9190611921565b60405180910390f35b348015610321575f5ffd5b5061032a610ce6565b604051610337919061169f565b60405180910390f35b34801561034b575f5ffd5b50610354610cf8565b604051610361919061169f565b60405180910390f35b348015610375575f5ffd5b5061037e610d0b565b60405161038b9190611573565b60405180910390f35b34801561039f575f5ffd5b506103a8610d30565b6040516103b5919061199a565b60405180910390f35b3480156103c9575f5ffd5b506103d2610dbc565b005b3480156103df575f5ffd5b506103e8610ee0565b005b3480156103f5575f5ffd5b506103fe6110e7565b60405161040b919061151b565b60405180910390f35b34801561041f575f5ffd5b506104286110ed565b604051610435919061151b565b60405180910390f35b6104466110f3565b6040516104549291906119ba565b60405180910390f35b348015610468575f5ffd5b50610483600480360381019061047e919061189b565b61122c565b005b348015610490575f5ffd5b506104ab60048036038101906104a691906119e1565b611240565b6040516104b8919061151b565b60405180910390f35b60045481565b600560049054906101000a900473ffffffffffffffffffffffffffffffffffffffff1681565b60025f9054906101000a900473ffffffffffffffffffffffffffffffffffffffff1673ffffffffffffffffffffffffffffffffffffffff163373ffffffffffffffffffffffffffffffffffffffff16146105a1573360025f9054906101000a900473ffffffffffffffffffffffffffffffffffffffff166040517f1cf993f4000000000000000000000000000000000000000000000000000000008152600401610598929190611a0c565b60405180910390fd5b6105ac838383611260565b505050565b600560019054906101000a900460ff1681565b5f5f5f600a6001815481106105dc576105db611a33565b5b905f5260205f20015490505f6009600654111561060757600a826106009190611a8d565b905061065a565b606360065411156106265760648261061f9190611a8d565b9050610659565b6103e76006541115610647576103e8826106409190611a8d565b9050610658565b612710826106559190611a8d565b90505b5b5b60075f8281526020019081526020015f205f9054906101000a900473ffffffffffffffffffffffffffffffffffffffff16600560046101000a81548173ffffffffffffffffffffffffffffffffffffffff021916908373ffffffffffffffffffffffffffffffffffffffff16021790555080600560049054906101000a900473ffffffffffffffffffffffffffffffffffffffff169350935050509091565b5f6107026112b0565b5f151560055f9054906101000a900460ff16151514610756576040517f08c379a000000000000000000000000000000000000000000000000000000000815260040161074d90611b07565b60405180910390fd5b6127108210610763575f5ffd5b662386f26fc1000034146107ac576040517f08c379a00000000000000000000000000000000000000000000000000000000081526004016107a390611b6f565b60405180910390fd5b82600390816107bb9190611d92565b50816004819055505f600681905550600160055f6101000a81548160ff02191690831515021790555060055f9054906101000a900460ff16905092915050565b60015f9054906101000a900473ffffffffffffffffffffffffffffffffffffffff1673ffffffffffffffffffffffffffffffffffffffff163373ffffffffffffffffffffffffffffffffffffffff161461088a576040517f08c379a000000000000000000000000000000000000000000000000000000000815260040161088190611eab565b60405180910390fd5b5f5f5f9054906101000a900473ffffffffffffffffffffffffffffffffffffffff169050335f5f6101000a81548173ffffffffffffffffffffffffffffffffffffffff021916908373ffffffffffffffffffffffffffffffffffffffff1602179055505f60015f6101000a81548173ffffffffffffffffffffffffffffffffffffffff021916908373ffffffffffffffffffffffffffffffffffffffff1602179055503373ffffffffffffffffffffffffffffffffffffffff168173ffffffffffffffffffffffffffffffffffffffff167f8be0079c531659141344cd1fd0a4f28419497f9722a3daafe3b4186f6b6457e060405160405180910390a350565b5f5f5f9054906101000a900473ffffffffffffffffffffffffffffffffffffffff16905090565b6109b961098a565b73ffffffffffffffffffffffffffffffffffffffff163373ffffffffffffffffffffffffffffffffffffffff1614158015610a41575060025f9054906101000a900473ffffffffffffffffffffffffffffffffffffffff1673ffffffffffffffffffffffffffffffffffffffff163373ffffffffffffffffffffffffffffffffffffffff1614155b15610aaf5733610a4f61098a565b60025f9054906101000a900473ffffffffffffffffffffffffffffffffffffffff166040517f061db9c1000000000000000000000000000000000000000000000000000000008152600401610aa693929190611ec9565b60405180910390fd5b5f73ffffffffffffffffffffffffffffffffffffffff168173ffffffffffffffffffffffffffffffffffffffff1603610b14576040517fd92e233d00000000000000000000000000000000000000000000000000000000815260040160405180910390fd5b8060025f6101000a81548173ffffffffffffffffffffffffffffffffffffffff021916908373ffffffffffffffffffffffffffffffffffffffff1602179055507fd1a6a14209a385a964d036e404cb5cfb71f4000cdb03c9366292430787261be681604051610b839190611573565b60405180910390a150565b60065481565b610b9c6112b0565b6001600560016101000a81548160ff0219169083151502179055610bf5576040517f08c379a0000000000000000000000000000000000000000000000000000000008152600401610bec90611f48565b60405180910390fd5b5f60095f9054906101000a900473ffffffffffffffffffffffffffffffffffffffff1673ffffffffffffffffffffffffffffffffffffffff1647604051610c3b90611f93565b5f6040518083038185875af1925050503d805f8114610c75576040519150601f19603f3d011682016040523d82523d5f602084013e610c7a565b606091505b5050905080610cbe576040517f08c379a0000000000000000000000000000000000000000000000000000000008152600401610cb590611ff1565b60405180910390fd5b50565b60025f9054906101000a900473ffffffffffffffffffffffffffffffffffffffff1681565b60055f9054906101000a900460ff1681565b600560029054906101000a900460ff1681565b60095f9054906101000a900473ffffffffffffffffffffffffffffffffffffffff1681565b60038054610d3d90611bba565b80601f0160208091040260200160405190810160405280929190818152602001828054610d6990611bba565b8015610db45780601f10610d8b57610100808354040283529160200191610db4565b820191905f5260205f20905b815481529060010190602001808311610d9757829003601f168201915b505050505081565b5f1515600560019054906101000a900460ff16151514610e11576040517f08c379a0000000000000000000000000000000000000000000000000000000008152600401610e0890612059565b60405180910390fd5b5f600560049054906101000a900473ffffffffffffffffffffffffffffffffffffffff1673ffffffffffffffffffffffffffffffffffffffff16600854604051610e5a90611f93565b5f6040518083038185875af1925050503d805f8114610e94576040519150601f19603f3d011682016040523d82523d5f602084013e610e99565b606091505b5050905080610edd576040517f08c379a0000000000000000000000000000000000000000000000000000000008152600401610ed490611ff1565b60405180910390fd5b50565b6001600560026101000a81548160ff0219169083151502179055610f39576040517f08c379a0000000000000000000000000000000000000000000000000000000008152600401610f30906120c1565b60405180910390fd5b5f600560036101000a81548160ff0219169083151502179055610f91576040517f08c379a0000000000000000000000000000000000000000000000000000000008152600401610f8890612129565b60405180910390fd5b60025f9054906101000a900473ffffffffffffffffffffffffffffffffffffffff1673ffffffffffffffffffffffffffffffffffffffff16639b1c385e6040518060c001604052807f000000000000000000000000000000000000000000000000000000000000000081526020017f00000000000000000000000000000000000000000000000000000000000000008152602001600361ffff168152602001620186a063ffffffff168152602001600163ffffffff16815260200161106560405180602001604052805f1515815250611340565b8152506040518263ffffffff1660e01b81526004016110849190612280565b6020604051808303815f875af11580156110a0573d5f5f3e3d5ffd5b505050506040513d601f19601f820116820180604052508101906110c491906122b4565b600b819055506001600560036101000a81548160ff021916908315150217905550565b60085481565b600b5481565b5f5f6001151560055f9054906101000a900460ff1615151461114a576040517f08c379a000000000000000000000000000000000000000000000000000000000815260040161114190612329565b60405180910390fd5b662386f26fc100003414611193576040517f08c379a000000000000000000000000000000000000000000000000000000000815260040161118a90611b6f565b60405180910390fd5b3360075f60065481526020019081526020015f205f6101000a81548173ffffffffffffffffffffffffffffffffffffffff021916908373ffffffffffffffffffffffffffffffffffffffff16021790555060065f8154809291906111f690612374565b9190505550662386f26fc1000060085f82825461121391906123bb565b925050819055505f600190508060065492509250509091565b6112346112b0565b61123d816113d8565b50565b600a818154811061124f575f80fd5b905f5260205f20015f915090505481565b8181600a91826112719291906124de565b507fefb16d61046900da527008568620fb9f8420e2f5ed4de3bfbded5035c9362b0e82826040516112a39291906125dc565b60405180910390a1505050565b5f5f9054906101000a900473ffffffffffffffffffffffffffffffffffffffff1673ffffffffffffffffffffffffffffffffffffffff163373ffffffffffffffffffffffffffffffffffffffff161461133e576040517f08c379a000000000000000000000000000000000000000000000000000000000815260040161133590612648565b60405180910390fd5b565b60607f92fd13387c7fe7befbc38d303d6468778fb9731bc4583f17d92989c6fcfdeaaa82604051602401611374919061268f565b604051602081830303815290604052907bffffffffffffffffffffffffffffffffffffffffffffffffffffffff19166020820180517bffffffffffffffffffffffffffffffffffffffffffffffffffffffff83818316178352505050509050919050565b3373ffffffffffffffffffffffffffffffffffffffff168173ffffffffffffffffffffffffffffffffffffffff1603611446576040517f08c379a000000000000000000000000000000000000000000000000000000000815260040161143d906126f2565b60405180910390fd5b8060015f6101000a81548173ffffffffffffffffffffffffffffffffffffffff021916908373ffffffffffffffffffffffffffffffffffffffff1602179055508073ffffffffffffffffffffffffffffffffffffffff165f5f9054906101000a900473ffffffffffffffffffffffffffffffffffffffff1673ffffffffffffffffffffffffffffffffffffffff167fed8889f560326eb138920d842192f0eb3dd22b4f139c87a2c57538e05bae127860405160405180910390a350565b5f819050919050565b61151581611503565b82525050565b5f60208201905061152e5f83018461150c565b92915050565b5f73ffffffffffffffffffffffffffffffffffffffff82169050919050565b5f61155d82611534565b9050919050565b61156d81611553565b82525050565b5f6020820190506115865f830184611564565b92915050565b5f604051905090565b5f5ffd5b5f5ffd5b6115a681611503565b81146115b0575f5ffd5b50565b5f813590506115c18161159d565b92915050565b5f5ffd5b5f5ffd5b5f5ffd5b5f5f83601f8401126115e8576115e76115c7565b5b8235905067ffffffffffffffff811115611605576116046115cb565b5b602083019150836020820283011115611621576116206115cf565b5b9250929050565b5f5f5f6040848603121561163f5761163e611595565b5b5f61164c868287016115b3565b935050602084013567ffffffffffffffff81111561166d5761166c611599565b5b611679868287016115d3565b92509250509250925092565b5f8115159050919050565b61169981611685565b82525050565b5f6020820190506116b25f830184611690565b92915050565b5f6040820190506116cb5f83018561150c565b6116d86020830184611564565b9392505050565b5f5ffd5b5f601f19601f8301169050919050565b7f4e487b71000000000000000000000000000000000000000000000000000000005f52604160045260245ffd5b611729826116e3565b810181811067ffffffffffffffff82111715611748576117476116f3565b5b80604052505050565b5f61175a61158c565b90506117668282611720565b919050565b5f67ffffffffffffffff821115611785576117846116f3565b5b61178e826116e3565b9050602081019050919050565b828183375f83830152505050565b5f6117bb6117b68461176b565b611751565b9050828152602081018484840111156117d7576117d66116df565b5b6117e284828561179b565b509392505050565b5f82601f8301126117fe576117fd6115c7565b5b813561180e8482602086016117a9565b91505092915050565b5f5f6040838503121561182d5761182c611595565b5b5f83013567ffffffffffffffff81111561184a57611849611599565b5b611856858286016117ea565b9250506020611867858286016115b3565b9150509250929050565b61187a81611553565b8114611884575f5ffd5b50565b5f8135905061189581611871565b92915050565b5f602082840312156118b0576118af611595565b5b5f6118bd84828501611887565b91505092915050565b5f819050919050565b5f6118e96118e46118df84611534565b6118c6565b611534565b9050919050565b5f6118fa826118cf565b9050919050565b5f61190b826118f0565b9050919050565b61191b81611901565b82525050565b5f6020820190506119345f830184611912565b92915050565b5f81519050919050565b5f82825260208201905092915050565b8281835e5f83830152505050565b5f61196c8261193a565b6119768185611944565b9350611986818560208601611954565b61198f816116e3565b840191505092915050565b5f6020820190508181035f8301526119b28184611962565b905092915050565b5f6040820190506119cd5f830185611690565b6119da602083018461150c565b9392505050565b5f602082840312156119f6576119f5611595565b5b5f611a03848285016115b3565b91505092915050565b5f604082019050611a1f5f830185611564565b611a2c6020830184611564565b9392505050565b7f4e487b71000000000000000000000000000000000000000000000000000000005f52603260045260245ffd5b7f4e487b71000000000000000000000000000000000000000000000000000000005f52601260045260245ffd5b5f611a9782611503565b9150611aa283611503565b925082611ab257611ab1611a60565b5b828206905092915050565b7f416c7265616479207374617274656400000000000000000000000000000000005f82015250565b5f611af1600f83611944565b9150611afc82611abd565b602082019050919050565b5f6020820190508181035f830152611b1e81611ae5565b9050919050565b7f53656e6420302e30312045544820746f20627579207469636b657400000000005f82015250565b5f611b59601b83611944565b9150611b6482611b25565b602082019050919050565b5f6020820190508181035f830152611b8681611b4d565b9050919050565b7f4e487b71000000000000000000000000000000000000000000000000000000005f52602260045260245ffd5b5f6002820490506001821680611bd157607f821691505b602082108103611be457611be3611b8d565b5b50919050565b5f819050815f5260205f209050919050565b5f6020601f8301049050919050565b5f82821b905092915050565b5f60088302611c467fffffffffffffffffffffffffffffffffffffffffffffffffffffffffffffffff82611c0b565b611c508683611c0b565b95508019841693508086168417925050509392505050565b5f611c82611c7d611c7884611503565b6118c6565b611503565b9050919050565b5f819050919050565b611c9b83611c68565b611caf611ca782611c89565b848454611c17565b825550505050565b5f5f905090565b611cc6611cb7565b611cd1818484611c92565b505050565b5f5b82811015611cf757611cec5f828401611cbe565b600181019050611cd8565b505050565b601f821115611d4a5782821115611d4957611d1681611bea565b611d1f83611bfc565b611d2885611bfc565b6020861015611d35575f90505b808301611d4482840382611cd6565b505050505b5b505050565b5f82821c905092915050565b5f611d6a5f1984600802611d4f565b1980831691505092915050565b5f611d828383611d5b565b9150826002028217905092915050565b611d9b8261193a565b67ffffffffffffffff811115611db457611db36116f3565b5b611dbe8254611bba565b611dc9828285611cfc565b5f60209050601f831160018114611dfa575f8415611de8578287015190505b611df28582611d77565b865550611e59565b601f198416611e0886611bea565b5f5b82811015611e2f57848901518255600182019150602085019450602081019050611e0a565b86831015611e4c5784890151611e48601f891682611d5b565b8355505b6001600288020188555050505b505050505050565b7f4d7573742062652070726f706f736564206f776e6572000000000000000000005f82015250565b5f611e95601683611944565b9150611ea082611e61565b602082019050919050565b5f6020820190508181035f830152611ec281611e89565b9050919050565b5f606082019050611edc5f830186611564565b611ee96020830185611564565b611ef66040830184611564565b949350505050565b7f52656c65617365207265776172647320666972737400000000000000000000005f82015250565b5f611f32601583611944565b9150611f3d82611efe565b602082019050919050565b5f6020820190508181035f830152611f5f81611f26565b9050919050565b5f81905092915050565b50565b5f611f7e5f83611f66565b9150611f8982611f70565b5f82019050919050565b5f611f9d82611f73565b9150819050919050565b7f4661696c656420746f2073656e642045746865720000000000000000000000005f82015250565b5f611fdb601483611944565b9150611fe682611fa7565b602082019050919050565b5f6020820190508181035f83015261200881611fcf565b9050919050565b7f4e6f2072657761726473000000000000000000000000000000000000000000005f82015250565b5f612043600a83611944565b915061204e8261200f565b602082019050919050565b5f6020820190508181035f83015261207081612037565b9050919050565b7f4e6f742066696e697368656420796574000000000000000000000000000000005f82015250565b5f6120ab601083611944565b91506120b682612077565b602082019050919050565b5f6020820190508181035f8301526120d88161209f565b9050919050565b7f416c7265616479207265717565737465640000000000000000000000000000005f82015250565b5f612113601183611944565b915061211e826120df565b602082019050919050565b5f6020820190508181035f83015261214081612107565b9050919050565b5f819050919050565b61215981612147565b82525050565b61216881611503565b82525050565b5f61ffff82169050919050565b6121848161216e565b82525050565b5f63ffffffff82169050919050565b6121a28161218a565b82525050565b5f81519050919050565b5f82825260208201905092915050565b5f6121cc826121a8565b6121d681856121b2565b93506121e6818560208601611954565b6121ef816116e3565b840191505092915050565b5f60c083015f83015161220f5f860182612150565b506020830151612222602086018261215f565b506040830151612235604086018261217b565b5060608301516122486060860182612199565b50608083015161225b6080860182612199565b5060a083015184820360a086015261227382826121c2565b9150508091505092915050565b5f6020820190508181035f83015261229881846121fa565b905092915050565b5f815190506122ae8161159d565b92915050565b5f602082840312156122c9576122c8611595565b5b5f6122d6848285016122a0565b91505092915050565b7f4e6f7420737461727465642079657400000000000000000000000000000000005f82015250565b5f612313600f83611944565b915061231e826122df565b602082019050919050565b5f6020820190508181035f83015261234081612307565b9050919050565b7f4e487b71000000000000000000000000000000000000000000000000000000005f52601160045260245ffd5b5f61237e82611503565b91507fffffffffffffffffffffffffffffffffffffffffffffffffffffffffffffffff82036123b0576123af612347565b5b600182019050919050565b5f6123c582611503565b91506123d083611503565b92508282019050808211156123e8576123e7612347565b5b92915050565b5f81549050919050565b5f8190506001806001038301049050919050565b5f819050815f5260205f209050919050565b5f5b8281101561243f576124345f828401611cbe565b600181019050612420565b505050565b8183101561247b57612455826123f8565b61245e846123f8565b6124678361240c565b8181016124768385038261241e565b505050505b505050565b6801000000000000000082111561249a576124996116f3565b5b6124a3816123ee565b8282556124b1838284612444565b505050565b5f82905092915050565b5f81356124cc8161159d565b80915050919050565b5f819050919050565b6124e883836124b6565b67ffffffffffffffff811115612501576125006116f3565b5b61250b8183612480565b612514836124d5565b61251d8361240c565b600183045f5b8181101561255a575f612535856124c0565b61253e81611c89565b8092506020870196505050808285015550600181019050612523565b5050505050505050565b5f82825260208201905092915050565b5f5ffd5b82818337505050565b5f61258c8385612564565b93507f07ffffffffffffffffffffffffffffffffffffffffffffffffffffffffffffff8311156125bf576125be612574565b5b6020830292506125d0838584612578565b82840190509392505050565b5f6020820190508181035f8301526125f5818486612581565b90509392505050565b7f4f6e6c792063616c6c61626c65206279206f776e6572000000000000000000005f82015250565b5f612632601683611944565b915061263d826125fe565b602082019050919050565b5f6020820190508181035f83015261265f81612626565b9050919050565b61266f81611685565b82525050565b602082015f8201516126895f850182612666565b50505050565b5f6020820190506126a25f830184612675565b92915050565b7f43616e6e6f74207472616e7366657220746f2073656c660000000000000000005f82015250565b5f6126dc601783611944565b91506126e7826126a8565b602082019050919050565b5f6020820190508181035f830152612709816126d0565b905091905056fea2646970667358221220308aa8ac795d8ec6aeb99b5a0e07d4c0f5d91c4e6a61f9d5401b0dd2f3659bb464736f6c63430008210033","linkReferences":{}},"methodIdentifiers":{"acceptOwnership()":"79ba5097","buyTicket()":"edca914c","createAndStartLottery(string,uint256)":"67c828b7","lotAdmin()":"c1c02e5a","lotFinished()":"c03dbdc2","lotMaxAmount()":"14a5cdb4","lotName()":"cd37e958","lotNonce()":"996da106","lotRewards()":"e3974895","lotRewardsReleased()":"2969c189","lotStarted()":"ad6c4dd7","lotWinner()":"1ac7be16","owner()":"8da5cb5b","rawFulfillRandomWords(uint256,uint256[])":"1fe543e3","releaseComissions()":"9c0c6a78","releaseRewards()":"d0fab3ca","requestRandomWords()":"e0c86289","revealRandomWinner()":"44c4dc99","s_randomWords(uint256)":"f6eaffc8","s_requestId()":"e89e106a","s_vrfCoordinator()":"9eccacf6","setCoordinator(address)":"8ea98117","transferOwnership(address)":"f2fde38b"},"id":37}