{"abi":[{"type":"constructor","inputs":[{"name":"subscriptionId","type":"uint256","internalType":"uint256"},{"name":"vrfCoordinator","type":"address","internalType":"address"},{"name":"keyHash","type":"bytes32","internalType":"bytes32"}],"stateMutability":"nonpayable"},{"type":"function","name":"BuyTicket","inputs":[],"outputs":[{"name":"","type":"bool","internalType":"bool"},{"name":"","type":"uint256","internalType":"uint256"}],"stateMutability":"payable"},{"type":"function","name":"ChangeOnwer","inputs":[{"name":"_new_owner","type":"address","internalType":"address"}],"outputs":[],"stateMutability":"nonpayable"},{"type":"function","name":"CreateAndStartLottery","inputs":[{"name":"_name","type":"string","internalType":"string"},{"name":"_max_amount","type":"uint256","internalType":"uint256"}],"outputs":[{"name":"","type":"bool","internalType":"bool"}],"stateMutability":"payable"},{"type":"function","name":"ReleaseComissions","inputs":[],"outputs":[],"stateMutability":"nonpayable"},{"type":"function","name":"ReleaseRewards","inputs":[],"outputs":[],"stateMutability":"nonpayable"},{"type":"function","name":"RequestRandomWinner","inputs":[],"outputs":[{"name":"","type":"uint256","internalType":"uint256"},{"name":"","type":"address","internalType":"address"}],"stateMutability":"nonpayable"},{"type":"function","name":"acceptOwnership","inputs":[],"outputs":[],"stateMutability":"nonpayable"},{"type":"function","name":"owner","inputs":[],"outputs":[{"name":"","type":"address","internalType":"address"}],"stateMutability":"view"},{"type":"function","name":"rawFulfillRandomWords","inputs":[{"name":"requestId","type":"uint256","internalType":"uint256"},{"name":"randomWords","type":"uint256[]","internalType":"uint256[]"}],"outputs":[],"stateMutability":"nonpayable"},{"type":"function","name":"requestRandomWords","inputs":[],"outputs":[],"stateMutability":"nonpayable"},{"type":"function","name":"s_finished","inputs":[],"outputs":[{"name":"","type":"bool","internalType":"bool"}],"stateMutability":"view"},{"type":"function","name":"s_max_amount","inputs":[],"outputs":[{"name":"","type":"uint256","internalType":"uint256"}],"stateMutability":"view"},{"type":"function","name":"s_name","inputs":[],"outputs":[{"name":"","type":"string","internalType":"string"}],"stateMutability":"view"},{"type":"function","name":"s_owner","inputs":[],"outputs":[{"name":"","type":"address","internalType":"address"}],"stateMutability":"view"},{"type":"function","name":"s_randomWords","inputs":[{"name":"","type":"uint256","internalType":"uint256"}],"outputs":[{"name":"","type":"uint256","internalType":"uint256"}],"stateMutability":"view"},{"type":"function","name":"s_requestId","inputs":[],"outputs":[{"name":"","type":"uint256","internalType":"uint256"}],"stateMutability":"view"},{"type":"function","name":"s_rewards","inputs":[],"outputs":[{"name":"","type":"uint256","internalType":"uint256"}],"stateMutability":"view"},{"type":"function","name":"s_rewards_released","inputs":[],"outputs":[{"name":"","type":"bool","internalType":"bool"}],"stateMutability":"view"},{"type":"function","name":"s_started","inputs":[],"outputs":[{"name":"","type":"bool","internalType":"bool"}],"stateMutability":"view"},{"type":"function","name":"s_ticket_nonce","inputs":[],"outputs":[{"name":"","type":"uint256","internalType":"uint256"}],"stateMutability":"view"},{"type":"function","name":"s_vrfCoordinator","inputs":[],"outputs":[{"name":"","type":"address","internalType":"contract IVRFCoordinatorV2Plus"}],"stateMutability":"view"},{"type":"function","name":"s_winner","inputs":[],"outputs":[{"name":"","type":"address","internalType":"address"}],"stateMutability":"view"},{"type":"function","name":"setCoordinator","inputs":[{"name":"_vrfCoordinator","type":"address","internalType":"address"}],"outputs":[],"stateMutability":"nonpayable"},{"type":"function","name":"transferOwnership","inputs":[{"name":"to","type":"address","internalType":"address"}],"outputs":[],"stateMutability":"nonpayable"},{"type":"event","name":"CoordinatorSet","inputs":[{"name":"vrfCoordinator","type":"address","indexed":false,"internalType":"address"}],"anonymous":false},{"type":"event","name":"OwnershipTransferRequested","inputs":[{"name":"from","type":"address","indexed":true,"internalType":"address"},{"name":"to","type":"address","indexed":true,"internalType":"address"}],"anonymous":false},{"type":"event","name":"OwnershipTransferred","inputs":[{"name":"from","type":"address","indexed":true,"internalType":"address"},{"name":"to","type":"address","indexed":true,"internalType":"address"}],"anonymous":false},{"type":"event","name":"ReturnedRandomness","inputs":[{"name":"randomWords","type":"uint256[]","indexed":false,"internalType":"uint256[]"}],"anonymous":false},{"type":"error","name":"OnlyCoordinatorCanFulfill","inputs":[{"name":"have","type":"address","internalType":"address"},{"name":"want","type":"address","internalType":"address"}]},{"type":"error","name":"OnlyOwnerOrCoordinator","inputs":[{"name":"have","type":"address","internalType":"address"},{"name":"owner","type":"address","internalType":"address"},{"name":"coordinator","type":"address","internalType":"address"}]},{"type":"error","name":"ZeroAddress","inputs":[]}],"bytecode":{"object":"0x60c060405234801561000f575f5ffd5b50604051612bef380380612bef833981810160405281019061003191906103d5565b8133805f5f73ffffffffffffffffffffffffffffffffffffffff168273ffffffffffffffffffffffffffffffffffffffff16036100a3576040517f08c379a000000000000000000000000000000000000000000000000000000000815260040161009a9061047f565b60405180910390fd5b815f5f6101000a81548173ffffffffffffffffffffffffffffffffffffffff021916908373ffffffffffffffffffffffffffffffffffffffff1602179055505f73ffffffffffffffffffffffffffffffffffffffff168173ffffffffffffffffffffffffffffffffffffffff161461012557610124816101e660201b60201c565b5b5050505f73ffffffffffffffffffffffffffffffffffffffff168173ffffffffffffffffffffffffffffffffffffffff160361018d576040517fd92e233d00000000000000000000000000000000000000000000000000000000815260040160405180910390fd5b8060025f6101000a81548173ffffffffffffffffffffffffffffffffffffffff021916908373ffffffffffffffffffffffffffffffffffffffff160217905550508060a081815250508260808181525050505050610505565b3373ffffffffffffffffffffffffffffffffffffffff168173ffffffffffffffffffffffffffffffffffffffff1603610254576040517f08c379a000000000000000000000000000000000000000000000000000000000815260040161024b906104e7565b60405180910390fd5b8060015f6101000a81548173ffffffffffffffffffffffffffffffffffffffff021916908373ffffffffffffffffffffffffffffffffffffffff1602179055508073ffffffffffffffffffffffffffffffffffffffff165f5f9054906101000a900473ffffffffffffffffffffffffffffffffffffffff1673ffffffffffffffffffffffffffffffffffffffff167fed8889f560326eb138920d842192f0eb3dd22b4f139c87a2c57538e05bae127860405160405180910390a350565b5f5ffd5b5f819050919050565b61032781610315565b8114610331575f5ffd5b50565b5f815190506103428161031e565b92915050565b5f73ffffffffffffffffffffffffffffffffffffffff82169050919050565b5f61037182610348565b9050919050565b61038181610367565b811461038b575f5ffd5b50565b5f8151905061039c81610378565b92915050565b5f819050919050565b6103b4816103a2565b81146103be575f5ffd5b50565b5f815190506103cf816103ab565b92915050565b5f5f5f606084860312156103ec576103eb610311565b5b5f6103f986828701610334565b935050602061040a8682870161038e565b925050604061041b868287016103c1565b9150509250925092565b5f82825260208201905092915050565b7f43616e6e6f7420736574206f776e657220746f207a65726f00000000000000005f82015250565b5f610469601883610425565b915061047482610435565b602082019050919050565b5f6020820190508181035f8301526104968161045d565b9050919050565b7f43616e6e6f74207472616e7366657220746f2073656c660000000000000000005f82015250565b5f6104d1601783610425565b91506104dc8261049d565b602082019050919050565b5f6020820190508181035f8301526104fe816104c5565b9050919050565b60805160a0516126c96105265f395f61107901525f61109f01526126c95ff3fe60806040526004361061014a575f3560e01c80639eccacf6116100b5578063e0c862891161006e578063e0c86289146103fc578063e397824014610412578063e89e106a1461043c578063f2fde38b14610466578063f6eaffc81461048e578063fde8f0bf146104ca5761014a565b80639eccacf6146102fc578063a044ee2a14610326578063a280a8f71461034e578063afb41dac14610378578063bba1964f146103a2578063d8e4b3a0146103cc5761014a565b80637428fe05116101075780637428fe0514610221578063761aef781461024b57806379ba50971461026a57806384a95d97146102805780638da5cb5b146102aa5780638ea98117146102d45761014a565b8063037c325f1461014e5780631b56563c146101785780631fe543e31461018e5780633dc452e1146101b6578063507f9f4b146101e05780635e8de0db146101f6575b5f5ffd5b348015610159575f5ffd5b506101626104f4565b60405161016f9190611528565b60405180910390f35b348015610183575f5ffd5b5061018c6104fa565b005b348015610199575f5ffd5b506101b460048036038101906101af91906115dd565b610621565b005b3480156101c1575f5ffd5b506101ca6106e5565b6040516101d79190611679565b60405180910390f35b3480156101eb575f5ffd5b506101f461070b565b005b348015610201575f5ffd5b5061020a61083b565b604051610218929190611692565b60405180910390f35b34801561022c575f5ffd5b50610235610939565b6040516102429190611528565b60405180910390f35b61025361093f565b6040516102619291906116d3565b60405180910390f35b348015610275575f5ffd5b5061027e610a78565b005b34801561028b575f5ffd5b50610294610c07565b6040516102a191906116fa565b60405180910390f35b3480156102b5575f5ffd5b506102be610c1a565b6040516102cb9190611679565b60405180910390f35b3480156102df575f5ffd5b506102fa60048036038101906102f5919061173d565b610c41565b005b348015610307575f5ffd5b50610310610e1e565b60405161031d91906117c3565b60405180910390f35b348015610331575f5ffd5b5061034c6004803603810190610347919061173d565b610e43565b005b348015610359575f5ffd5b50610362610e8e565b60405161036f91906116fa565b60405180910390f35b348015610383575f5ffd5b5061038c610ea0565b6040516103999190611528565b60405180910390f35b3480156103ad575f5ffd5b506103b6610ea6565b6040516103c3919061184c565b60405180910390f35b6103e660048036038101906103e19190611994565b610f32565b6040516103f391906116fa565b60405180910390f35b348015610407575f5ffd5b50610410611027565b005b34801561041d575f5ffd5b5061042661116a565b6040516104339190611679565b60405180910390f35b348015610447575f5ffd5b5061045061118f565b60405161045d9190611528565b60405180910390f35b348015610471575f5ffd5b5061048c6004803603810190610487919061173d565b611195565b005b348015610499575f5ffd5b506104b460048036038101906104af91906119ee565b6111a9565b6040516104c19190611528565b60405180910390f35b3480156104d5575f5ffd5b506104de6111c9565b6040516104eb91906116fa565b60405180910390f35b60045481565b5f1515600560019054906101000a900460ff1615151461054f576040517f08c379a000000000000000000000000000000000000000000000000000000000815260040161054690611a63565b60405180910390fd5b5f5f600560039054906101000a900473ffffffffffffffffffffffffffffffffffffffff1673ffffffffffffffffffffffffffffffffffffffff1660085460405161059990611aae565b5f6040518083038185875af1925050503d805f81146105d3576040519150601f19603f3d011682016040523d82523d5f602084013e6105d8565b606091505b50915091508161061d576040517f08c379a000000000000000000000000000000000000000000000000000000000815260040161061490611b0c565b60405180910390fd5b5050565b60025f9054906101000a900473ffffffffffffffffffffffffffffffffffffffff1673ffffffffffffffffffffffffffffffffffffffff163373ffffffffffffffffffffffffffffffffffffffff16146106d5573360025f9054906101000a900473ffffffffffffffffffffffffffffffffffffffff166040517f1cf993f40000000000000000000000000000000000000000000000000000000081526004016106cc929190611b2a565b60405180910390fd5b6106e08383836111dc565b505050565b600560039054906101000a900473ffffffffffffffffffffffffffffffffffffffff1681565b61071361122c565b6001600560016101000a81548160ff021916908315150217905561076c576040517f08c379a000000000000000000000000000000000000000000000000000000000815260040161076390611b9b565b60405180910390fd5b5f5f60095f9054906101000a900473ffffffffffffffffffffffffffffffffffffffff1673ffffffffffffffffffffffffffffffffffffffff16476040516107b390611aae565b5f6040518083038185875af1925050503d805f81146107ed576040519150601f19603f3d011682016040523d82523d5f602084013e6107f2565b606091505b509150915081610837576040517f08c379a000000000000000000000000000000000000000000000000000000000815260040161082e90611b0c565b60405180910390fd5b5050565b5f5f6001600560026101000a81548160ff0219169083151502179055610896576040517f08c379a000000000000000000000000000000000000000000000000000000000815260040161088d90611c03565b60405180910390fd5b5f6001905060075f8281526020019081526020015f205f9054906101000a900473ffffffffffffffffffffffffffffffffffffffff16600560036101000a81548173ffffffffffffffffffffffffffffffffffffffff021916908373ffffffffffffffffffffffffffffffffffffffff16021790555080600560039054906101000a900473ffffffffffffffffffffffffffffffffffffffff1692509250509091565b60065481565b5f5f6001151560055f9054906101000a900460ff16151514610996576040517f08c379a000000000000000000000000000000000000000000000000000000000815260040161098d90611c6b565b60405180910390fd5b662386f26fc1000034146109df576040517f08c379a00000000000000000000000000000000000000000000000000000000081526004016109d690611cd3565b60405180910390fd5b3360075f60065481526020019081526020015f205f6101000a81548173ffffffffffffffffffffffffffffffffffffffff021916908373ffffffffffffffffffffffffffffffffffffffff16021790555060065f815480929190610a4290611d1e565b9190505550662386f26fc1000060085f828254610a5f9190611d65565b925050819055505f600190508060065492509250509091565b60015f9054906101000a900473ffffffffffffffffffffffffffffffffffffffff1673ffffffffffffffffffffffffffffffffffffffff163373ffffffffffffffffffffffffffffffffffffffff1614610b07576040517f08c379a0000000000000000000000000000000000000000000000000000000008152600401610afe90611de2565b60405180910390fd5b5f5f5f9054906101000a900473ffffffffffffffffffffffffffffffffffffffff169050335f5f6101000a81548173ffffffffffffffffffffffffffffffffffffffff021916908373ffffffffffffffffffffffffffffffffffffffff1602179055505f60015f6101000a81548173ffffffffffffffffffffffffffffffffffffffff021916908373ffffffffffffffffffffffffffffffffffffffff1602179055503373ffffffffffffffffffffffffffffffffffffffff168173ffffffffffffffffffffffffffffffffffffffff167f8be0079c531659141344cd1fd0a4f28419497f9722a3daafe3b4186f6b6457e060405160405180910390a350565b600560019054906101000a900460ff1681565b5f5f5f9054906101000a900473ffffffffffffffffffffffffffffffffffffffff16905090565b610c49610c1a565b73ffffffffffffffffffffffffffffffffffffffff163373ffffffffffffffffffffffffffffffffffffffff1614158015610cd1575060025f9054906101000a900473ffffffffffffffffffffffffffffffffffffffff1673ffffffffffffffffffffffffffffffffffffffff163373ffffffffffffffffffffffffffffffffffffffff1614155b15610d3f5733610cdf610c1a565b60025f9054906101000a900473ffffffffffffffffffffffffffffffffffffffff166040517f061db9c1000000000000000000000000000000000000000000000000000000008152600401610d3693929190611e00565b60405180910390fd5b5f73ffffffffffffffffffffffffffffffffffffffff168173ffffffffffffffffffffffffffffffffffffffff1603610da4576040517fd92e233d00000000000000000000000000000000000000000000000000000000815260040160405180910390fd5b8060025f6101000a81548173ffffffffffffffffffffffffffffffffffffffff021916908373ffffffffffffffffffffffffffffffffffffffff1602179055507fd1a6a14209a385a964d036e404cb5cfb71f4000cdb03c9366292430787261be681604051610e139190611679565b60405180910390a150565b60025f9054906101000a900473ffffffffffffffffffffffffffffffffffffffff1681565b610e4b61122c565b8060095f6101000a81548173ffffffffffffffffffffffffffffffffffffffff021916908373ffffffffffffffffffffffffffffffffffffffff16021790555050565b60055f9054906101000a900460ff1681565b60085481565b60038054610eb390611e62565b80601f0160208091040260200160405190810160405280929190818152602001828054610edf90611e62565b8015610f2a5780601f10610f0157610100808354040283529160200191610f2a565b820191905f5260205f20905b815481529060010190602001808311610f0d57829003601f168201915b505050505081565b5f610f3b61122c565b5f151560055f9054906101000a900460ff16151514610f8f576040517f08c379a0000000000000000000000000000000000000000000000000000000008152600401610f8690611edc565b60405180910390fd5b662386f26fc100003414610fd8576040517f08c379a0000000000000000000000000000000000000000000000000000000008152600401610fcf90611cd3565b60405180910390fd5b8260039081610fe791906120a2565b50816004819055505f600681905550600160055f6101000a81548160ff02191690831515021790555060055f9054906101000a900460ff16905092915050565b61102f6112bd565b60025f9054906101000a900473ffffffffffffffffffffffffffffffffffffffff1673ffffffffffffffffffffffffffffffffffffffff16639b1c385e6040518060c001604052807f000000000000000000000000000000000000000000000000000000000000000081526020017f00000000000000000000000000000000000000000000000000000000000000008152602001600361ffff168152602001620186a063ffffffff168152602001600263ffffffff16815260200161110360405180602001604052805f151581525061134d565b8152506040518263ffffffff1660e01b815260040161112291906122aa565b6020604051808303815f875af115801561113e573d5f5f3e3d5ffd5b505050506040513d601f19601f8201168201806040525081019061116291906122de565b600b81905550565b60095f9054906101000a900473ffffffffffffffffffffffffffffffffffffffff1681565b600b5481565b61119d6112bd565b6111a6816113e5565b50565b600a81815481106111b8575f80fd5b905f5260205f20015f915090505481565b600560029054906101000a900460ff1681565b8181600a91826111ed9291906123f9565b507fefb16d61046900da527008568620fb9f8420e2f5ed4de3bfbded5035c9362b0e828260405161121f9291906124f7565b60405180910390a1505050565b60095f9054906101000a900473ffffffffffffffffffffffffffffffffffffffff1673ffffffffffffffffffffffffffffffffffffffff163373ffffffffffffffffffffffffffffffffffffffff16146112bb576040517f08c379a00000000000000000000000000000000000000000000000000000000081526004016112b290612563565b60405180910390fd5b565b5f5f9054906101000a900473ffffffffffffffffffffffffffffffffffffffff1673ffffffffffffffffffffffffffffffffffffffff163373ffffffffffffffffffffffffffffffffffffffff161461134b576040517f08c379a0000000000000000000000000000000000000000000000000000000008152600401611342906125cb565b60405180910390fd5b565b60607f92fd13387c7fe7befbc38d303d6468778fb9731bc4583f17d92989c6fcfdeaaa826040516024016113819190612612565b604051602081830303815290604052907bffffffffffffffffffffffffffffffffffffffffffffffffffffffff19166020820180517bffffffffffffffffffffffffffffffffffffffffffffffffffffffff83818316178352505050509050919050565b3373ffffffffffffffffffffffffffffffffffffffff168173ffffffffffffffffffffffffffffffffffffffff1603611453576040517f08c379a000000000000000000000000000000000000000000000000000000000815260040161144a90612675565b60405180910390fd5b8060015f6101000a81548173ffffffffffffffffffffffffffffffffffffffff021916908373ffffffffffffffffffffffffffffffffffffffff1602179055508073ffffffffffffffffffffffffffffffffffffffff165f5f9054906101000a900473ffffffffffffffffffffffffffffffffffffffff1673ffffffffffffffffffffffffffffffffffffffff167fed8889f560326eb138920d842192f0eb3dd22b4f139c87a2c57538e05bae127860405160405180910390a350565b5f819050919050565b61152281611510565b82525050565b5f60208201905061153b5f830184611519565b92915050565b5f604051905090565b5f5ffd5b5f5ffd5b61155b81611510565b8114611565575f5ffd5b50565b5f8135905061157681611552565b92915050565b5f5ffd5b5f5ffd5b5f5ffd5b5f5f83601f84011261159d5761159c61157c565b5b8235905067ffffffffffffffff8111156115ba576115b9611580565b5b6020830191508360208202830111156115d6576115d5611584565b5b9250929050565b5f5f5f604084860312156115f4576115f361154a565b5b5f61160186828701611568565b935050602084013567ffffffffffffffff8111156116225761162161154e565b5b61162e86828701611588565b92509250509250925092565b5f73ffffffffffffffffffffffffffffffffffffffff82169050919050565b5f6116638261163a565b9050919050565b61167381611659565b82525050565b5f60208201905061168c5f83018461166a565b92915050565b5f6040820190506116a55f830185611519565b6116b2602083018461166a565b9392505050565b5f8115159050919050565b6116cd816116b9565b82525050565b5f6040820190506116e65f8301856116c4565b6116f36020830184611519565b9392505050565b5f60208201905061170d5f8301846116c4565b92915050565b61171c81611659565b8114611726575f5ffd5b50565b5f8135905061173781611713565b92915050565b5f602082840312156117525761175161154a565b5b5f61175f84828501611729565b91505092915050565b5f819050919050565b5f61178b6117866117818461163a565b611768565b61163a565b9050919050565b5f61179c82611771565b9050919050565b5f6117ad82611792565b9050919050565b6117bd816117a3565b82525050565b5f6020820190506117d65f8301846117b4565b92915050565b5f81519050919050565b5f82825260208201905092915050565b8281835e5f83830152505050565b5f601f19601f8301169050919050565b5f61181e826117dc565b61182881856117e6565b93506118388185602086016117f6565b61184181611804565b840191505092915050565b5f6020820190508181035f8301526118648184611814565b905092915050565b5f5ffd5b7f4e487b71000000000000000000000000000000000000000000000000000000005f52604160045260245ffd5b6118a682611804565b810181811067ffffffffffffffff821117156118c5576118c4611870565b5b80604052505050565b5f6118d7611541565b90506118e3828261189d565b919050565b5f67ffffffffffffffff82111561190257611901611870565b5b61190b82611804565b9050602081019050919050565b828183375f83830152505050565b5f611938611933846118e8565b6118ce565b9050828152602081018484840111156119545761195361186c565b5b61195f848285611918565b509392505050565b5f82601f83011261197b5761197a61157c565b5b813561198b848260208601611926565b91505092915050565b5f5f604083850312156119aa576119a961154a565b5b5f83013567ffffffffffffffff8111156119c7576119c661154e565b5b6119d385828601611967565b92505060206119e485828601611568565b9150509250929050565b5f60208284031215611a0357611a0261154a565b5b5f611a1084828501611568565b91505092915050565b7f4e6f2072657761726473000000000000000000000000000000000000000000005f82015250565b5f611a4d600a836117e6565b9150611a5882611a19565b602082019050919050565b5f6020820190508181035f830152611a7a81611a41565b9050919050565b5f81905092915050565b50565b5f611a995f83611a81565b9150611aa482611a8b565b5f82019050919050565b5f611ab882611a8e565b9150819050919050565b7f4661696c656420746f2073656e642045746865720000000000000000000000005f82015250565b5f611af66014836117e6565b9150611b0182611ac2565b602082019050919050565b5f6020820190508181035f830152611b2381611aea565b9050919050565b5f604082019050611b3d5f83018561166a565b611b4a602083018461166a565b9392505050565b7f52656c65617365207265776172647320666972737400000000000000000000005f82015250565b5f611b856015836117e6565b9150611b9082611b51565b602082019050919050565b5f6020820190508181035f830152611bb281611b79565b9050919050565b7f4e6f742066696e697368656420796574000000000000000000000000000000005f82015250565b5f611bed6010836117e6565b9150611bf882611bb9565b602082019050919050565b5f6020820190508181035f830152611c1a81611be1565b9050919050565b7f4e6f7420737461727465642079657400000000000000000000000000000000005f82015250565b5f611c55600f836117e6565b9150611c6082611c21565b602082019050919050565b5f6020820190508181035f830152611c8281611c49565b9050919050565b7f53656e6420302e30312045544820746f20627579207469636b657400000000005f82015250565b5f611cbd601b836117e6565b9150611cc882611c89565b602082019050919050565b5f6020820190508181035f830152611cea81611cb1565b9050919050565b7f4e487b71000000000000000000000000000000000000000000000000000000005f52601160045260245ffd5b5f611d2882611510565b91507fffffffffffffffffffffffffffffffffffffffffffffffffffffffffffffffff8203611d5a57611d59611cf1565b5b600182019050919050565b5f611d6f82611510565b9150611d7a83611510565b9250828201905080821115611d9257611d91611cf1565b5b92915050565b7f4d7573742062652070726f706f736564206f776e6572000000000000000000005f82015250565b5f611dcc6016836117e6565b9150611dd782611d98565b602082019050919050565b5f6020820190508181035f830152611df981611dc0565b9050919050565b5f606082019050611e135f83018661166a565b611e20602083018561166a565b611e2d604083018461166a565b949350505050565b7f4e487b71000000000000000000000000000000000000000000000000000000005f52602260045260245ffd5b5f6002820490506001821680611e7957607f821691505b602082108103611e8c57611e8b611e35565b5b50919050565b7f416c7265616479207374617274656400000000000000000000000000000000005f82015250565b5f611ec6600f836117e6565b9150611ed182611e92565b602082019050919050565b5f6020820190508181035f830152611ef381611eba565b9050919050565b5f819050815f5260205f209050919050565b5f6020601f8301049050919050565b5f82821b905092915050565b5f60088302611f567fffffffffffffffffffffffffffffffffffffffffffffffffffffffffffffffff82611f1b565b611f608683611f1b565b95508019841693508086168417925050509392505050565b5f611f92611f8d611f8884611510565b611768565b611510565b9050919050565b5f819050919050565b611fab83611f78565b611fbf611fb782611f99565b848454611f27565b825550505050565b5f5f905090565b611fd6611fc7565b611fe1818484611fa2565b505050565b5f5b8281101561200757611ffc5f828401611fce565b600181019050611fe8565b505050565b601f82111561205a57828211156120595761202681611efa565b61202f83611f0c565b61203885611f0c565b6020861015612045575f90505b80830161205482840382611fe6565b505050505b5b505050565b5f82821c905092915050565b5f61207a5f198460080261205f565b1980831691505092915050565b5f612092838361206b565b9150826002028217905092915050565b6120ab826117dc565b67ffffffffffffffff8111156120c4576120c3611870565b5b6120ce8254611e62565b6120d982828561200c565b5f60209050601f83116001811461210a575f84156120f8578287015190505b6121028582612087565b865550612169565b601f19841661211886611efa565b5f5b8281101561213f5784890151825560018201915060208501945060208101905061211a565b8683101561215c5784890151612158601f89168261206b565b8355505b6001600288020188555050505b505050505050565b5f819050919050565b61218381612171565b82525050565b61219281611510565b82525050565b5f61ffff82169050919050565b6121ae81612198565b82525050565b5f63ffffffff82169050919050565b6121cc816121b4565b82525050565b5f81519050919050565b5f82825260208201905092915050565b5f6121f6826121d2565b61220081856121dc565b93506122108185602086016117f6565b61221981611804565b840191505092915050565b5f60c083015f8301516122395f86018261217a565b50602083015161224c6020860182612189565b50604083015161225f60408601826121a5565b50606083015161227260608601826121c3565b50608083015161228560808601826121c3565b5060a083015184820360a086015261229d82826121ec565b9150508091505092915050565b5f6020820190508181035f8301526122c28184612224565b905092915050565b5f815190506122d881611552565b92915050565b5f602082840312156122f3576122f261154a565b5b5f612300848285016122ca565b91505092915050565b5f81549050919050565b5f8190506001806001038301049050919050565b5f819050815f5260205f209050919050565b5f5b8281101561235a5761234f5f828401611fce565b60018101905061233b565b505050565b818310156123965761237082612313565b61237984612313565b61238283612327565b81810161239183850382612339565b505050505b505050565b680100000000000000008211156123b5576123b4611870565b5b6123be81612309565b8282556123cc83828461235f565b505050565b5f82905092915050565b5f81356123e781611552565b80915050919050565b5f819050919050565b61240383836123d1565b67ffffffffffffffff81111561241c5761241b611870565b5b612426818361239b565b61242f836123f0565b61243883612327565b600183045f5b81811015612475575f612450856123db565b61245981611f99565b809250602087019650505080828501555060018101905061243e565b5050505050505050565b5f82825260208201905092915050565b5f5ffd5b82818337505050565b5f6124a7838561247f565b93507f07ffffffffffffffffffffffffffffffffffffffffffffffffffffffffffffff8311156124da576124d961248f565b5b6020830292506124eb838584612493565b82840190509392505050565b5f6020820190508181035f83015261251081848661249c565b90509392505050565b7f4e6f74206f776e657200000000000000000000000000000000000000000000005f82015250565b5f61254d6009836117e6565b915061255882612519565b602082019050919050565b5f6020820190508181035f83015261257a81612541565b9050919050565b7f4f6e6c792063616c6c61626c65206279206f776e6572000000000000000000005f82015250565b5f6125b56016836117e6565b91506125c082612581565b602082019050919050565b5f6020820190508181035f8301526125e2816125a9565b9050919050565b6125f2816116b9565b82525050565b602082015f82015161260c5f8501826125e9565b50505050565b5f6020820190506126255f8301846125f8565b92915050565b7f43616e6e6f74207472616e7366657220746f2073656c660000000000000000005f82015250565b5f61265f6017836117e6565b915061266a8261262b565b602082019050919050565b5f6020820190508181035f83015261268c81612653565b905091905056fea2646970667358221220ae0386d22d13e22bd79eaf531d84aa1e66fdd0906d8963f3b14a62674893dbf064736f6c63430008210033","linkReferences":{}},"methodIdentifiers":{"BuyTicket()":"761aef78","ChangeOnwer(address)":"a044ee2a","CreateAndStartLottery(string,uint256)":"d8e4b3a0","ReleaseComissions()":"507f9f4b","ReleaseRewards()":"1b56563c","RequestRandomWinner()":"5e8de0db","acceptOwnership()":"79ba5097","owner()":"8da5cb5b","rawFulfillRandomWords(uint256,uint256[])":"1fe543e3","requestRandomWords()":"e0c86289","s_finished()":"fde8f0bf","s_max_amount()":"037c325f","s_name()":"bba1964f","s_owner()":"e3978240","s_randomWords(uint256)":"f6eaffc8","s_requestId()":"e89e106a","s_rewards()":"afb41dac","s_rewards_released()":"84a95d97","s_started()":"a280a8f7","s_ticket_nonce()":"7428fe05","s_vrfCoordinator()":"9eccacf6","s_winner()":"3dc452e1","setCoordinator(address)":"8ea98117","transferOwnership(address)":"f2fde38b"},"id":38}