{"abi":[{"type":"constructor","inputs":[{"name":"subscriptionId","type":"uint256","internalType":"uint256"},{"name":"vrfCoordinator","type":"address","internalType":"address"},{"name":"keyHash","type":"bytes32","internalType":"bytes32"}],"stateMutability":"nonpayable"},{"type":"function","name":"acceptOwnership","inputs":[],"outputs":[],"stateMutability":"nonpayable"},{"type":"function","name":"buyTicket","inputs":[],"outputs":[{"name":"","type":"bool","internalType":"bool"},{"name":"","type":"uint256","internalType":"uint256"}],"stateMutability":"payable"},{"type":"function","name":"createAndStartLottery","inputs":[{"name":"_name","type":"string","internalType":"string"},{"name":"_maxAmount","type":"uint256","internalType":"uint256"}],"outputs":[{"name":"","type":"bool","internalType":"bool"}],"stateMutability":"payable"},{"type":"function","name":"lotAdmin","inputs":[],"outputs":[{"name":"","type":"address","internalType":"address"}],"stateMutability":"view"},{"type":"function","name":"lotFinished","inputs":[],"outputs":[{"name":"","type":"bool","internalType":"bool"}],"stateMutability":"view"},{"type":"function","name":"lotMaxAmount","inputs":[],"outputs":[{"name":"","type":"uint256","internalType":"uint256"}],"stateMutability":"view"},{"type":"function","name":"lotName","inputs":[],"outputs":[{"name":"","type":"string","internalType":"string"}],"stateMutability":"view"},{"type":"function","name":"lotNonce","inputs":[],"outputs":[{"name":"","type":"uint256","internalType":"uint256"}],"stateMutability":"view"},{"type":"function","name":"lotRewards","inputs":[],"outputs":[{"name":"","type":"uint256","internalType":"uint256"}],"stateMutability":"view"},{"type":"function","name":"lotRewardsReleased","inputs":[],"outputs":[{"name":"","type":"bool","internalType":"bool"}],"stateMutability":"view"},{"type":"function","name":"lotStarted","inputs":[],"outputs":[{"name":"","type":"bool","internalType":"bool"}],"stateMutability":"view"},{"type":"function","name":"lotWinner","inputs":[],"outputs":[{"name":"","type":"address","internalType":"address"}],"stateMutability":"view"},{"type":"function","name":"owner","inputs":[],"outputs":[{"name":"","type":"address","internalType":"address"}],"stateMutability":"view"},{"type":"function","name":"rawFulfillRandomWords","inputs":[{"name":"requestId","type":"uint256","internalType":"uint256"},{"name":"randomWords","type":"uint256[]","internalType":"uint256[]"}],"outputs":[],"stateMutability":"nonpayable"},{"type":"function","name":"releaseComissions","inputs":[],"outputs":[],"stateMutability":"nonpayable"},{"type":"function","name":"releaseRewards","inputs":[],"outputs":[],"stateMutability":"nonpayable"},{"type":"function","name":"requestRandomWinner","inputs":[],"outputs":[{"name":"","type":"uint256","internalType":"uint256"},{"name":"","type":"address","internalType":"address"}],"stateMutability":"nonpayable"},{"type":"function","name":"requestRandomWords","inputs":[],"outputs":[],"stateMutability":"nonpayable"},{"type":"function","name":"s_randomWords","inputs":[{"name":"","type":"uint256","internalType":"uint256"}],"outputs":[{"name":"","type":"uint256","internalType":"uint256"}],"stateMutability":"view"},{"type":"function","name":"s_requestId","inputs":[],"outputs":[{"name":"","type":"uint256","internalType":"uint256"}],"stateMutability":"view"},{"type":"function","name":"s_vrfCoordinator","inputs":[],"outputs":[{"name":"","type":"address","internalType":"contract IVRFCoordinatorV2Plus"}],"stateMutability":"view"},{"type":"function","name":"setCoordinator","inputs":[{"name":"_vrfCoordinator","type":"address","internalType":"address"}],"outputs":[],"stateMutability":"nonpayable"},{"type":"function","name":"transferOwnership","inputs":[{"name":"to","type":"address","internalType":"address"}],"outputs":[],"stateMutability":"nonpayable"},{"type":"event","name":"CoordinatorSet","inputs":[{"name":"vrfCoordinator","type":"address","indexed":false,"internalType":"address"}],"anonymous":false},{"type":"event","name":"OwnershipTransferRequested","inputs":[{"name":"from","type":"address","indexed":true,"internalType":"address"},{"name":"to","type":"address","indexed":true,"internalType":"address"}],"anonymous":false},{"type":"event","name":"OwnershipTransferred","inputs":[{"name":"from","type":"address","indexed":true,"internalType":"address"},{"name":"to","type":"address","indexed":true,"internalType":"address"}],"anonymous":false},{"type":"event","name":"ReturnedRandomness","inputs":[{"name":"randomWords","type":"uint256[]","indexed":false,"internalType":"uint256[]"}],"anonymous":false},{"type":"error","name":"OnlyCoordinatorCanFulfill","inputs":[{"name":"have","type":"address","internalType":"address"},{"name":"want","type":"address","internalType":"address"}]},{"type":"error","name":"OnlyOwnerOrCoordinator","inputs":[{"name":"have","type":"address","internalType":"address"},{"name":"owner","type":"address","internalType":"address"},{"name":"coordinator","type":"address","internalType":"address"}]},{"type":"error","name":"ZeroAddress","inputs":[]}],"bytecode":{"object":"0x60c060405234801561000f575f5ffd5b50604051612a72380380612a72833981810160405281019061003191906103d5565b8133805f5f73ffffffffffffffffffffffffffffffffffffffff168273ffffffffffffffffffffffffffffffffffffffff16036100a3576040517f08c379a000000000000000000000000000000000000000000000000000000000815260040161009a9061047f565b60405180910390fd5b815f5f6101000a81548173ffffffffffffffffffffffffffffffffffffffff021916908373ffffffffffffffffffffffffffffffffffffffff1602179055505f73ffffffffffffffffffffffffffffffffffffffff168173ffffffffffffffffffffffffffffffffffffffff161461012557610124816101e660201b60201c565b5b5050505f73ffffffffffffffffffffffffffffffffffffffff168173ffffffffffffffffffffffffffffffffffffffff160361018d576040517fd92e233d00000000000000000000000000000000000000000000000000000000815260040160405180910390fd5b8060025f6101000a81548173ffffffffffffffffffffffffffffffffffffffff021916908373ffffffffffffffffffffffffffffffffffffffff160217905550508060a081815250508260808181525050505050610505565b3373ffffffffffffffffffffffffffffffffffffffff168173ffffffffffffffffffffffffffffffffffffffff1603610254576040517f08c379a000000000000000000000000000000000000000000000000000000000815260040161024b906104e7565b60405180910390fd5b8060015f6101000a81548173ffffffffffffffffffffffffffffffffffffffff021916908373ffffffffffffffffffffffffffffffffffffffff1602179055508073ffffffffffffffffffffffffffffffffffffffff165f5f9054906101000a900473ffffffffffffffffffffffffffffffffffffffff1673ffffffffffffffffffffffffffffffffffffffff167fed8889f560326eb138920d842192f0eb3dd22b4f139c87a2c57538e05bae127860405160405180910390a350565b5f5ffd5b5f819050919050565b61032781610315565b8114610331575f5ffd5b50565b5f815190506103428161031e565b92915050565b5f73ffffffffffffffffffffffffffffffffffffffff82169050919050565b5f61037182610348565b9050919050565b61038181610367565b811461038b575f5ffd5b50565b5f8151905061039c81610378565b92915050565b5f819050919050565b6103b4816103a2565b81146103be575f5ffd5b50565b5f815190506103cf816103ab565b92915050565b5f5f5f606084860312156103ec576103eb610311565b5b5f6103f986828701610334565b935050602061040a8682870161038e565b925050604061041b868287016103c1565b9150509250925092565b5f82825260208201905092915050565b7f43616e6e6f7420736574206f776e657220746f207a65726f00000000000000005f82015250565b5f610469601883610425565b915061047482610435565b602082019050919050565b5f6020820190508181035f8301526104968161045d565b9050919050565b7f43616e6e6f74207472616e7366657220746f2073656c660000000000000000005f82015250565b5f6104d1601783610425565b91506104dc8261049d565b602082019050919050565b5f6020820190508181035f8301526104fe816104c5565b9050919050565b60805160a05161254c6105265f395f610eee01525f610f14015261254c5ff3fe60806040526004361061013f575f3560e01c80639eccacf6116100b5578063e0c862891161006e578063e0c86289146103d4578063e3974895146103ea578063e89e106a14610414578063edca914c1461043e578063f2fde38b1461045d578063f6eaffc8146104855761013f565b80639eccacf6146102ec578063ad6c4dd714610316578063c03dbdc214610340578063c1c02e5a1461036a578063cd37e95814610394578063d0fab3ca146103be5761013f565b806367c828b71161010757806367c828b71461021457806379ba5097146102445780638da5cb5b1461025a5780638ea9811714610284578063996da106146102ac5780639c0c6a78146102d65761013f565b806314a5cdb4146101435780631ac7be161461016d5780631fe543e3146101975780632969c189146101bf578063522a1f0b146101e9575b5f5ffd5b34801561014e575f5ffd5b506101576104c1565b6040516101649190611413565b60405180910390f35b348015610178575f5ffd5b506101816104c7565b60405161018e919061146b565b60405180910390f35b3480156101a2575f5ffd5b506101bd60048036038101906101b89190611520565b6104ed565b005b3480156101ca575f5ffd5b506101d36105b1565b6040516101e09190611597565b60405180910390f35b3480156101f4575f5ffd5b506101fd6105c4565b60405161020b9291906115b0565b60405180910390f35b61022e6004803603810190610229919061170f565b6106c2565b60405161023b9190611597565b60405180910390f35b34801561024f575f5ffd5b506102586107b7565b005b348015610265575f5ffd5b5061026e610946565b60405161027b919061146b565b60405180910390f35b34801561028f575f5ffd5b506102aa60048036038101906102a59190611793565b61096d565b005b3480156102b7575f5ffd5b506102c0610b4a565b6040516102cd9190611413565b60405180910390f35b3480156102e1575f5ffd5b506102ea610b50565b005b3480156102f7575f5ffd5b50610300610c7d565b60405161030d9190611819565b60405180910390f35b348015610321575f5ffd5b5061032a610ca2565b6040516103379190611597565b60405180910390f35b34801561034b575f5ffd5b50610354610cb4565b6040516103619190611597565b60405180910390f35b348015610375575f5ffd5b5061037e610cc7565b60405161038b919061146b565b60405180910390f35b34801561039f575f5ffd5b506103a8610cec565b6040516103b59190611892565b60405180910390f35b3480156103c9575f5ffd5b506103d2610d78565b005b3480156103df575f5ffd5b506103e8610e9c565b005b3480156103f5575f5ffd5b506103fe610fdf565b60405161040b9190611413565b60405180910390f35b34801561041f575f5ffd5b50610428610fe5565b6040516104359190611413565b60405180910390f35b610446610feb565b6040516104549291906118b2565b60405180910390f35b348015610468575f5ffd5b50610483600480360381019061047e9190611793565b611124565b005b348015610490575f5ffd5b506104ab60048036038101906104a691906118d9565b611138565b6040516104b89190611413565b60405180910390f35b60045481565b600560039054906101000a900473ffffffffffffffffffffffffffffffffffffffff1681565b60025f9054906101000a900473ffffffffffffffffffffffffffffffffffffffff1673ffffffffffffffffffffffffffffffffffffffff163373ffffffffffffffffffffffffffffffffffffffff16146105a1573360025f9054906101000a900473ffffffffffffffffffffffffffffffffffffffff166040517f1cf993f4000000000000000000000000000000000000000000000000000000008152600401610598929190611904565b60405180910390fd5b6105ac838383611158565b505050565b600560019054906101000a900460ff1681565b5f5f6001600560026101000a81548160ff021916908315150217905561061f576040517f08c379a000000000000000000000000000000000000000000000000000000000815260040161061690611975565b60405180910390fd5b5f6001905060075f8281526020019081526020015f205f9054906101000a900473ffffffffffffffffffffffffffffffffffffffff16600560036101000a81548173ffffffffffffffffffffffffffffffffffffffff021916908373ffffffffffffffffffffffffffffffffffffffff16021790555080600560039054906101000a900473ffffffffffffffffffffffffffffffffffffffff1692509250509091565b5f6106cb6111a8565b5f151560055f9054906101000a900460ff1615151461071f576040517f08c379a0000000000000000000000000000000000000000000000000000000008152600401610716906119dd565b60405180910390fd5b662386f26fc100003414610768576040517f08c379a000000000000000000000000000000000000000000000000000000000815260040161075f90611a45565b60405180910390fd5b82600390816107779190611c68565b50816004819055505f600681905550600160055f6101000a81548160ff02191690831515021790555060055f9054906101000a900460ff16905092915050565b60015f9054906101000a900473ffffffffffffffffffffffffffffffffffffffff1673ffffffffffffffffffffffffffffffffffffffff163373ffffffffffffffffffffffffffffffffffffffff1614610846576040517f08c379a000000000000000000000000000000000000000000000000000000000815260040161083d90611d81565b60405180910390fd5b5f5f5f9054906101000a900473ffffffffffffffffffffffffffffffffffffffff169050335f5f6101000a81548173ffffffffffffffffffffffffffffffffffffffff021916908373ffffffffffffffffffffffffffffffffffffffff1602179055505f60015f6101000a81548173ffffffffffffffffffffffffffffffffffffffff021916908373ffffffffffffffffffffffffffffffffffffffff1602179055503373ffffffffffffffffffffffffffffffffffffffff168173ffffffffffffffffffffffffffffffffffffffff167f8be0079c531659141344cd1fd0a4f28419497f9722a3daafe3b4186f6b6457e060405160405180910390a350565b5f5f5f9054906101000a900473ffffffffffffffffffffffffffffffffffffffff16905090565b610975610946565b73ffffffffffffffffffffffffffffffffffffffff163373ffffffffffffffffffffffffffffffffffffffff16141580156109fd575060025f9054906101000a900473ffffffffffffffffffffffffffffffffffffffff1673ffffffffffffffffffffffffffffffffffffffff163373ffffffffffffffffffffffffffffffffffffffff1614155b15610a6b5733610a0b610946565b60025f9054906101000a900473ffffffffffffffffffffffffffffffffffffffff166040517f061db9c1000000000000000000000000000000000000000000000000000000008152600401610a6293929190611d9f565b60405180910390fd5b5f73ffffffffffffffffffffffffffffffffffffffff168173ffffffffffffffffffffffffffffffffffffffff1603610ad0576040517fd92e233d00000000000000000000000000000000000000000000000000000000815260040160405180910390fd5b8060025f6101000a81548173ffffffffffffffffffffffffffffffffffffffff021916908373ffffffffffffffffffffffffffffffffffffffff1602179055507fd1a6a14209a385a964d036e404cb5cfb71f4000cdb03c9366292430787261be681604051610b3f919061146b565b60405180910390a150565b60065481565b610b586111a8565b6001600560016101000a81548160ff0219169083151502179055610bb1576040517f08c379a0000000000000000000000000000000000000000000000000000000008152600401610ba890611e1e565b60405180910390fd5b5f60095f9054906101000a900473ffffffffffffffffffffffffffffffffffffffff1673ffffffffffffffffffffffffffffffffffffffff1647604051610bf790611e69565b5f6040518083038185875af1925050503d805f8114610c31576040519150601f19603f3d011682016040523d82523d5f602084013e610c36565b606091505b5050905080610c7a576040517f08c379a0000000000000000000000000000000000000000000000000000000008152600401610c7190611ec7565b60405180910390fd5b50565b60025f9054906101000a900473ffffffffffffffffffffffffffffffffffffffff1681565b60055f9054906101000a900460ff1681565b600560029054906101000a900460ff1681565b60095f9054906101000a900473ffffffffffffffffffffffffffffffffffffffff1681565b60038054610cf990611a90565b80601f0160208091040260200160405190810160405280929190818152602001828054610d2590611a90565b8015610d705780601f10610d4757610100808354040283529160200191610d70565b820191905f5260205f20905b815481529060010190602001808311610d5357829003601f168201915b505050505081565b5f1515600560019054906101000a900460ff16151514610dcd576040517f08c379a0000000000000000000000000000000000000000000000000000000008152600401610dc490611f2f565b60405180910390fd5b5f600560039054906101000a900473ffffffffffffffffffffffffffffffffffffffff1673ffffffffffffffffffffffffffffffffffffffff16600854604051610e1690611e69565b5f6040518083038185875af1925050503d805f8114610e50576040519150601f19603f3d011682016040523d82523d5f602084013e610e55565b606091505b5050905080610e99576040517f08c379a0000000000000000000000000000000000000000000000000000000008152600401610e9090611ec7565b60405180910390fd5b50565b610ea46111a8565b60025f9054906101000a900473ffffffffffffffffffffffffffffffffffffffff1673ffffffffffffffffffffffffffffffffffffffff16639b1c385e6040518060c001604052807f000000000000000000000000000000000000000000000000000000000000000081526020017f00000000000000000000000000000000000000000000000000000000000000008152602001600361ffff168152602001620186a063ffffffff168152602001600263ffffffff168152602001610f7860405180602001604052805f1515815250611238565b8152506040518263ffffffff1660e01b8152600401610f979190612086565b6020604051808303815f875af1158015610fb3573d5f5f3e3d5ffd5b505050506040513d601f19601f82011682018060405250810190610fd791906120ba565b600b81905550565b60085481565b600b5481565b5f5f6001151560055f9054906101000a900460ff16151514611042576040517f08c379a00000000000000000000000000000000000000000000000000000000081526004016110399061212f565b60405180910390fd5b662386f26fc10000341461108b576040517f08c379a000000000000000000000000000000000000000000000000000000000815260040161108290611a45565b60405180910390fd5b3360075f60065481526020019081526020015f205f6101000a81548173ffffffffffffffffffffffffffffffffffffffff021916908373ffffffffffffffffffffffffffffffffffffffff16021790555060065f8154809291906110ee9061217a565b9190505550662386f26fc1000060085f82825461110b91906121c1565b925050819055505f600190508060065492509250509091565b61112c6111a8565b611135816112d0565b50565b600a8181548110611147575f80fd5b905f5260205f20015f915090505481565b8181600a91826111699291906122e4565b507fefb16d61046900da527008568620fb9f8420e2f5ed4de3bfbded5035c9362b0e828260405161119b9291906123e2565b60405180910390a1505050565b5f5f9054906101000a900473ffffffffffffffffffffffffffffffffffffffff1673ffffffffffffffffffffffffffffffffffffffff163373ffffffffffffffffffffffffffffffffffffffff1614611236576040517f08c379a000000000000000000000000000000000000000000000000000000000815260040161122d9061244e565b60405180910390fd5b565b60607f92fd13387c7fe7befbc38d303d6468778fb9731bc4583f17d92989c6fcfdeaaa8260405160240161126c9190612495565b604051602081830303815290604052907bffffffffffffffffffffffffffffffffffffffffffffffffffffffff19166020820180517bffffffffffffffffffffffffffffffffffffffffffffffffffffffff83818316178352505050509050919050565b3373ffffffffffffffffffffffffffffffffffffffff168173ffffffffffffffffffffffffffffffffffffffff160361133e576040517f08c379a0000000000000000000000000000000000000000000000000000000008152600401611335906124f8565b60405180910390fd5b8060015f6101000a81548173ffffffffffffffffffffffffffffffffffffffff021916908373ffffffffffffffffffffffffffffffffffffffff1602179055508073ffffffffffffffffffffffffffffffffffffffff165f5f9054906101000a900473ffffffffffffffffffffffffffffffffffffffff1673ffffffffffffffffffffffffffffffffffffffff167fed8889f560326eb138920d842192f0eb3dd22b4f139c87a2c57538e05bae127860405160405180910390a350565b5f819050919050565b61140d816113fb565b82525050565b5f6020820190506114265f830184611404565b92915050565b5f73ffffffffffffffffffffffffffffffffffffffff82169050919050565b5f6114558261142c565b9050919050565b6114658161144b565b82525050565b5f60208201905061147e5f83018461145c565b92915050565b5f604051905090565b5f5ffd5b5f5ffd5b61149e816113fb565b81146114a8575f5ffd5b50565b5f813590506114b981611495565b92915050565b5f5ffd5b5f5ffd5b5f5ffd5b5f5f83601f8401126114e0576114df6114bf565b5b8235905067ffffffffffffffff8111156114fd576114fc6114c3565b5b602083019150836020820283011115611519576115186114c7565b5b9250929050565b5f5f5f604084860312156115375761153661148d565b5b5f611544868287016114ab565b935050602084013567ffffffffffffffff81111561156557611564611491565b5b611571868287016114cb565b92509250509250925092565b5f8115159050919050565b6115918161157d565b82525050565b5f6020820190506115aa5f830184611588565b92915050565b5f6040820190506115c35f830185611404565b6115d0602083018461145c565b9392505050565b5f5ffd5b5f601f19601f8301169050919050565b7f4e487b71000000000000000000000000000000000000000000000000000000005f52604160045260245ffd5b611621826115db565b810181811067ffffffffffffffff821117156116405761163f6115eb565b5b80604052505050565b5f611652611484565b905061165e8282611618565b919050565b5f67ffffffffffffffff82111561167d5761167c6115eb565b5b611686826115db565b9050602081019050919050565b828183375f83830152505050565b5f6116b36116ae84611663565b611649565b9050828152602081018484840111156116cf576116ce6115d7565b5b6116da848285611693565b509392505050565b5f82601f8301126116f6576116f56114bf565b5b81356117068482602086016116a1565b91505092915050565b5f5f604083850312156117255761172461148d565b5b5f83013567ffffffffffffffff81111561174257611741611491565b5b61174e858286016116e2565b925050602061175f858286016114ab565b9150509250929050565b6117728161144b565b811461177c575f5ffd5b50565b5f8135905061178d81611769565b92915050565b5f602082840312156117a8576117a761148d565b5b5f6117b58482850161177f565b91505092915050565b5f819050919050565b5f6117e16117dc6117d78461142c565b6117be565b61142c565b9050919050565b5f6117f2826117c7565b9050919050565b5f611803826117e8565b9050919050565b611813816117f9565b82525050565b5f60208201905061182c5f83018461180a565b92915050565b5f81519050919050565b5f82825260208201905092915050565b8281835e5f83830152505050565b5f61186482611832565b61186e818561183c565b935061187e81856020860161184c565b611887816115db565b840191505092915050565b5f6020820190508181035f8301526118aa818461185a565b905092915050565b5f6040820190506118c55f830185611588565b6118d26020830184611404565b9392505050565b5f602082840312156118ee576118ed61148d565b5b5f6118fb848285016114ab565b91505092915050565b5f6040820190506119175f83018561145c565b611924602083018461145c565b9392505050565b7f4e6f742066696e697368656420796574000000000000000000000000000000005f82015250565b5f61195f60108361183c565b915061196a8261192b565b602082019050919050565b5f6020820190508181035f83015261198c81611953565b9050919050565b7f416c7265616479207374617274656400000000000000000000000000000000005f82015250565b5f6119c7600f8361183c565b91506119d282611993565b602082019050919050565b5f6020820190508181035f8301526119f4816119bb565b9050919050565b7f53656e6420302e30312045544820746f20627579207469636b657400000000005f82015250565b5f611a2f601b8361183c565b9150611a3a826119fb565b602082019050919050565b5f6020820190508181035f830152611a5c81611a23565b9050919050565b7f4e487b71000000000000000000000000000000000000000000000000000000005f52602260045260245ffd5b5f6002820490506001821680611aa757607f821691505b602082108103611aba57611ab9611a63565b5b50919050565b5f819050815f5260205f209050919050565b5f6020601f8301049050919050565b5f82821b905092915050565b5f60088302611b1c7fffffffffffffffffffffffffffffffffffffffffffffffffffffffffffffffff82611ae1565b611b268683611ae1565b95508019841693508086168417925050509392505050565b5f611b58611b53611b4e846113fb565b6117be565b6113fb565b9050919050565b5f819050919050565b611b7183611b3e565b611b85611b7d82611b5f565b848454611aed565b825550505050565b5f5f905090565b611b9c611b8d565b611ba7818484611b68565b505050565b5f5b82811015611bcd57611bc25f828401611b94565b600181019050611bae565b505050565b601f821115611c205782821115611c1f57611bec81611ac0565b611bf583611ad2565b611bfe85611ad2565b6020861015611c0b575f90505b808301611c1a82840382611bac565b505050505b5b505050565b5f82821c905092915050565b5f611c405f1984600802611c25565b1980831691505092915050565b5f611c588383611c31565b9150826002028217905092915050565b611c7182611832565b67ffffffffffffffff811115611c8a57611c896115eb565b5b611c948254611a90565b611c9f828285611bd2565b5f60209050601f831160018114611cd0575f8415611cbe578287015190505b611cc88582611c4d565b865550611d2f565b601f198416611cde86611ac0565b5f5b82811015611d0557848901518255600182019150602085019450602081019050611ce0565b86831015611d225784890151611d1e601f891682611c31565b8355505b6001600288020188555050505b505050505050565b7f4d7573742062652070726f706f736564206f776e6572000000000000000000005f82015250565b5f611d6b60168361183c565b9150611d7682611d37565b602082019050919050565b5f6020820190508181035f830152611d9881611d5f565b9050919050565b5f606082019050611db25f83018661145c565b611dbf602083018561145c565b611dcc604083018461145c565b949350505050565b7f52656c65617365207265776172647320666972737400000000000000000000005f82015250565b5f611e0860158361183c565b9150611e1382611dd4565b602082019050919050565b5f6020820190508181035f830152611e3581611dfc565b9050919050565b5f81905092915050565b50565b5f611e545f83611e3c565b9150611e5f82611e46565b5f82019050919050565b5f611e7382611e49565b9150819050919050565b7f4661696c656420746f2073656e642045746865720000000000000000000000005f82015250565b5f611eb160148361183c565b9150611ebc82611e7d565b602082019050919050565b5f6020820190508181035f830152611ede81611ea5565b9050919050565b7f4e6f2072657761726473000000000000000000000000000000000000000000005f82015250565b5f611f19600a8361183c565b9150611f2482611ee5565b602082019050919050565b5f6020820190508181035f830152611f4681611f0d565b9050919050565b5f819050919050565b611f5f81611f4d565b82525050565b611f6e816113fb565b82525050565b5f61ffff82169050919050565b611f8a81611f74565b82525050565b5f63ffffffff82169050919050565b611fa881611f90565b82525050565b5f81519050919050565b5f82825260208201905092915050565b5f611fd282611fae565b611fdc8185611fb8565b9350611fec81856020860161184c565b611ff5816115db565b840191505092915050565b5f60c083015f8301516120155f860182611f56565b5060208301516120286020860182611f65565b50604083015161203b6040860182611f81565b50606083015161204e6060860182611f9f565b5060808301516120616080860182611f9f565b5060a083015184820360a08601526120798282611fc8565b9150508091505092915050565b5f6020820190508181035f83015261209e8184612000565b905092915050565b5f815190506120b481611495565b92915050565b5f602082840312156120cf576120ce61148d565b5b5f6120dc848285016120a6565b91505092915050565b7f4e6f7420737461727465642079657400000000000000000000000000000000005f82015250565b5f612119600f8361183c565b9150612124826120e5565b602082019050919050565b5f6020820190508181035f8301526121468161210d565b9050919050565b7f4e487b71000000000000000000000000000000000000000000000000000000005f52601160045260245ffd5b5f612184826113fb565b91507fffffffffffffffffffffffffffffffffffffffffffffffffffffffffffffffff82036121b6576121b561214d565b5b600182019050919050565b5f6121cb826113fb565b91506121d6836113fb565b92508282019050808211156121ee576121ed61214d565b5b92915050565b5f81549050919050565b5f8190506001806001038301049050919050565b5f819050815f5260205f209050919050565b5f5b828110156122455761223a5f828401611b94565b600181019050612226565b505050565b818310156122815761225b826121fe565b612264846121fe565b61226d83612212565b81810161227c83850382612224565b505050505b505050565b680100000000000000008211156122a05761229f6115eb565b5b6122a9816121f4565b8282556122b783828461224a565b505050565b5f82905092915050565b5f81356122d281611495565b80915050919050565b5f819050919050565b6122ee83836122bc565b67ffffffffffffffff811115612307576123066115eb565b5b6123118183612286565b61231a836122db565b61232383612212565b600183045f5b81811015612360575f61233b856122c6565b61234481611b5f565b8092506020870196505050808285015550600181019050612329565b5050505050505050565b5f82825260208201905092915050565b5f5ffd5b82818337505050565b5f612392838561236a565b93507f07ffffffffffffffffffffffffffffffffffffffffffffffffffffffffffffff8311156123c5576123c461237a565b5b6020830292506123d683858461237e565b82840190509392505050565b5f6020820190508181035f8301526123fb818486612387565b90509392505050565b7f4f6e6c792063616c6c61626c65206279206f776e6572000000000000000000005f82015250565b5f61243860168361183c565b915061244382612404565b602082019050919050565b5f6020820190508181035f8301526124658161242c565b9050919050565b6124758161157d565b82525050565b602082015f82015161248f5f85018261246c565b50505050565b5f6020820190506124a85f83018461247b565b92915050565b7f43616e6e6f74207472616e7366657220746f2073656c660000000000000000005f82015250565b5f6124e260178361183c565b91506124ed826124ae565b602082019050919050565b5f6020820190508181035f83015261250f816124d6565b905091905056fea2646970667358221220c84ad4c1c6d6d508e9f3fe854df2d6c6bddbd7575f7b1b248799d40b0a3697fb64736f6c63430008210033","linkReferences":{}},"methodIdentifiers":{"acceptOwnership()":"79ba5097","buyTicket()":"edca914c","createAndStartLottery(string,uint256)":"67c828b7","lotAdmin()":"c1c02e5a","lotFinished()":"c03dbdc2","lotMaxAmount()":"14a5cdb4","lotName()":"cd37e958","lotNonce()":"996da106","lotRewards()":"e3974895","lotRewardsReleased()":"2969c189","lotStarted()":"ad6c4dd7","lotWinner()":"1ac7be16","owner()":"8da5cb5b","rawFulfillRandomWords(uint256,uint256[])":"1fe543e3","releaseComissions()":"9c0c6a78","releaseRewards()":"d0fab3ca","requestRandomWinner()":"522a1f0b","requestRandomWords()":"e0c86289","s_randomWords(uint256)":"f6eaffc8","s_requestId()":"e89e106a","s_vrfCoordinator()":"9eccacf6","setCoordinator(address)":"8ea98117","transferOwnership(address)":"f2fde38b"},"id":37}