{"abi":[{"type":"constructor","inputs":[{"name":"subscriptionId","type":"uint256","internalType":"uint256"},{"name":"vrfCoordinator","type":"address","internalType":"address"},{"name":"keyHash","type":"bytes32","internalType":"bytes32"}],"stateMutability":"nonpayable"},{"type":"function","name":"acceptOwnership","inputs":[],"outputs":[],"stateMutability":"nonpayable"},{"type":"function","name":"buyTicket","inputs":[],"outputs":[{"name":"","type":"bool","internalType":"bool"},{"name":"","type":"uint256","internalType":"uint256"}],"stateMutability":"payable"},{"type":"function","name":"createAndStartLottery","inputs":[{"name":"_name","type":"string","internalType":"string"},{"name":"_maxTicketAmountOption","type":"uint8","internalType":"uint8"}],"outputs":[{"name":"","type":"bool","internalType":"bool"}],"stateMutability":"payable"},{"type":"function","name":"lotAdmin","inputs":[],"outputs":[{"name":"","type":"address","internalType":"address"}],"stateMutability":"view"},{"type":"function","name":"lotFinished","inputs":[],"outputs":[{"name":"","type":"bool","internalType":"bool"}],"stateMutability":"view"},{"type":"function","name":"lotMaxNonce","inputs":[],"outputs":[{"name":"","type":"uint256","internalType":"uint256"}],"stateMutability":"view"},{"type":"function","name":"lotName","inputs":[],"outputs":[{"name":"","type":"string","internalType":"string"}],"stateMutability":"view"},{"type":"function","name":"lotNonce","inputs":[],"outputs":[{"name":"","type":"uint256","internalType":"uint256"}],"stateMutability":"view"},{"type":"function","name":"lotRandomWordsRecieved","inputs":[],"outputs":[{"name":"","type":"bool","internalType":"bool"}],"stateMutability":"view"},{"type":"function","name":"lotRandomWordsRequestMade","inputs":[],"outputs":[{"name":"","type":"bool","internalType":"bool"}],"stateMutability":"view"},{"type":"function","name":"lotRewards","inputs":[],"outputs":[{"name":"","type":"uint256","internalType":"uint256"}],"stateMutability":"view"},{"type":"function","name":"lotRewardsReleased","inputs":[],"outputs":[{"name":"","type":"bool","internalType":"bool"}],"stateMutability":"view"},{"type":"function","name":"lotStarted","inputs":[],"outputs":[{"name":"","type":"bool","internalType":"bool"}],"stateMutability":"view"},{"type":"function","name":"lotWinner","inputs":[],"outputs":[{"name":"","type":"address","internalType":"address"}],"stateMutability":"view"},{"type":"function","name":"owner","inputs":[],"outputs":[{"name":"","type":"address","internalType":"address"}],"stateMutability":"view"},{"type":"function","name":"rawFulfillRandomWords","inputs":[{"name":"requestId","type":"uint256","internalType":"uint256"},{"name":"randomWords","type":"uint256[]","internalType":"uint256[]"}],"outputs":[],"stateMutability":"nonpayable"},{"type":"function","name":"releaseComissions","inputs":[],"outputs":[],"stateMutability":"nonpayable"},{"type":"function","name":"releaseRewards","inputs":[],"outputs":[],"stateMutability":"nonpayable"},{"type":"function","name":"requestRandomWords","inputs":[],"outputs":[],"stateMutability":"nonpayable"},{"type":"function","name":"revealRandomWinner","inputs":[],"outputs":[{"name":"","type":"uint256","internalType":"uint256"},{"name":"","type":"address","internalType":"address"}],"stateMutability":"nonpayable"},{"type":"function","name":"s_randomWords","inputs":[{"name":"","type":"uint256","internalType":"uint256"}],"outputs":[{"name":"","type":"uint256","internalType":"uint256"}],"stateMutability":"view"},{"type":"function","name":"s_requestId","inputs":[],"outputs":[{"name":"","type":"uint256","internalType":"uint256"}],"stateMutability":"view"},{"type":"function","name":"s_vrfCoordinator","inputs":[],"outputs":[{"name":"","type":"address","internalType":"contract IVRFCoordinatorV2Plus"}],"stateMutability":"view"},{"type":"function","name":"setCoordinator","inputs":[{"name":"_vrfCoordinator","type":"address","internalType":"address"}],"outputs":[],"stateMutability":"nonpayable"},{"type":"function","name":"transferOwnership","inputs":[{"name":"to","type":"address","internalType":"address"}],"outputs":[],"stateMutability":"nonpayable"},{"type":"event","name":"CoordinatorSet","inputs":[{"name":"vrfCoordinator","type":"address","indexed":false,"internalType":"address"}],"anonymous":false},{"type":"event","name":"OwnershipTransferRequested","inputs":[{"name":"from","type":"address","indexed":true,"internalType":"address"},{"name":"to","type":"address","indexed":true,"internalType":"address"}],"anonymous":false},{"type":"event","name":"OwnershipTransferred","inputs":[{"name":"from","type":"address","indexed":true,"internalType":"address"},{"name":"to","type":"address","indexed":true,"internalType":"address"}],"anonymous":false},{"type":"event","name":"ReturnedRandomness","inputs":[{"name":"randomWords","type":"uint256[]","indexed":false,"internalType":"uint256[]"}],"anonymous":false},{"type":"error","name":"OnlyCoordinatorCanFulfill","inputs":[{"name":"have","type":"address","internalType":"address"},{"name":"want","type":"address","internalType":"address"}]},{"type":"error","name":"OnlyOwnerOrCoordinator","inputs":[{"name":"have","type":"address","internalType":"address"},{"name":"owner","type":"address","internalType":"address"},{"name":"coordinator","type":"address","internalType":"address"}]},{"type":"error","name":"ZeroAddress","inputs":[]}],"bytecode":{"object":"0x60c060405234801561000f575f5ffd5b50604051612f3a380380612f3a833981810160405281019061003191906103d5565b8133805f5f73ffffffffffffffffffffffffffffffffffffffff168273ffffffffffffffffffffffffffffffffffffffff16036100a3576040517f08c379a000000000000000000000000000000000000000000000000000000000815260040161009a9061047f565b60405180910390fd5b815f5f6101000a81548173ffffffffffffffffffffffffffffffffffffffff021916908373ffffffffffffffffffffffffffffffffffffffff1602179055505f73ffffffffffffffffffffffffffffffffffffffff168173ffffffffffffffffffffffffffffffffffffffff161461012557610124816101e660201b60201c565b5b5050505f73ffffffffffffffffffffffffffffffffffffffff168173ffffffffffffffffffffffffffffffffffffffff160361018d576040517fd92e233d00000000000000000000000000000000000000000000000000000000815260040160405180910390fd5b8060025f6101000a81548173ffffffffffffffffffffffffffffffffffffffff021916908373ffffffffffffffffffffffffffffffffffffffff160217905550508060a081815250508260808181525050505050610505565b3373ffffffffffffffffffffffffffffffffffffffff168173ffffffffffffffffffffffffffffffffffffffff1603610254576040517f08c379a000000000000000000000000000000000000000000000000000000000815260040161024b906104e7565b60405180910390fd5b8060015f6101000a81548173ffffffffffffffffffffffffffffffffffffffff021916908373ffffffffffffffffffffffffffffffffffffffff1602179055508073ffffffffffffffffffffffffffffffffffffffff165f5f9054906101000a900473ffffffffffffffffffffffffffffffffffffffff1673ffffffffffffffffffffffffffffffffffffffff167fed8889f560326eb138920d842192f0eb3dd22b4f139c87a2c57538e05bae127860405160405180910390a350565b5f5ffd5b5f819050919050565b61032781610315565b8114610331575f5ffd5b50565b5f815190506103428161031e565b92915050565b5f73ffffffffffffffffffffffffffffffffffffffff82169050919050565b5f61037182610348565b9050919050565b61038181610367565b811461038b575f5ffd5b50565b5f8151905061039c81610378565b92915050565b5f819050919050565b6103b4816103a2565b81146103be575f5ffd5b50565b5f815190506103cf816103ab565b92915050565b5f5f5f606084860312156103ec576103eb610311565b5b5f6103f986828701610334565b935050602061040a8682870161038e565b925050604061041b868287016103c1565b9150509250925092565b5f82825260208201905092915050565b7f43616e6e6f7420736574206f776e657220746f207a65726f00000000000000005f82015250565b5f610469601883610425565b915061047482610435565b602082019050919050565b5f6020820190508181035f8301526104968161045d565b9050919050565b7f43616e6e6f74207472616e7366657220746f2073656c660000000000000000005f82015250565b5f6104d1601783610425565b91506104dc8261049d565b602082019050919050565b5f6020820190508181035f8301526104fe816104c5565b9050919050565b60805160a051612a146105265f395f6110fe01525f6111240152612a145ff3fe608060405260043610610165575f3560e01c80639c0c6a78116100d0578063d0fab3ca11610089578063e89e106a11610063578063e89e106a1461048e578063edca914c146104b8578063f2fde38b146104d7578063f6eaffc8146104ff57610165565b8063d0fab3ca14610438578063e0c862891461044e578063e39748951461046457610165565b80639c0c6a78146103505780639eccacf614610366578063ad6c4dd714610390578063c03dbdc2146103ba578063c1c02e5a146103e4578063cd37e9581461040e57610165565b80635631059b116101225780635631059b1461026a57806379ba5097146102945780638da5cb5b146102aa5780638ea98117146102d457806399451e99146102fc578063996da1061461032657610165565b80630d0ad784146101695780631ac7be16146101995780631fe543e3146101c35780632969c189146101eb57806344c4dc9914610215578063554fa6e314610240575b5f5ffd5b610183600480360381019061017e919061184e565b61053b565b60405161019091906118c2565b60405180910390f35b3480156101a4575f5ffd5b506101ad61067d565b6040516101ba919061191a565b60405180910390f35b3480156101ce575f5ffd5b506101e960048036038101906101e491906119c3565b6106a1565b005b3480156101f6575f5ffd5b506101ff610765565b60405161020c91906118c2565b60405180910390f35b348015610220575f5ffd5b50610229610778565b604051610237929190611a2f565b60405180910390f35b34801561024b575f5ffd5b506102546108fd565b6040516102619190611a56565b60405180910390f35b348015610275575f5ffd5b5061027e610903565b60405161028b91906118c2565b60405180910390f35b34801561029f575f5ffd5b506102a8610916565b005b3480156102b5575f5ffd5b506102be610aa5565b6040516102cb919061191a565b60405180910390f35b3480156102df575f5ffd5b506102fa60048036038101906102f59190611a99565b610acc565b005b348015610307575f5ffd5b50610310610ca9565b60405161031d91906118c2565b60405180910390f35b348015610331575f5ffd5b5061033a610cbc565b6040516103479190611a56565b60405180910390f35b34801561035b575f5ffd5b50610364610cc2565b005b348015610371575f5ffd5b5061037a610dec565b6040516103879190611b1f565b60405180910390f35b34801561039b575f5ffd5b506103a4610e11565b6040516103b191906118c2565b60405180910390f35b3480156103c5575f5ffd5b506103ce610e23565b6040516103db91906118c2565b60405180910390f35b3480156103ef575f5ffd5b506103f8610e36565b604051610405919061191a565b60405180910390f35b348015610419575f5ffd5b50610422610e5b565b60405161042f9190611b98565b60405180910390f35b348015610443575f5ffd5b5061044c610ee7565b005b348015610459575f5ffd5b50610462611009565b005b34801561046f575f5ffd5b5061047861120a565b6040516104859190611a56565b60405180910390f35b348015610499575f5ffd5b506104a2611210565b6040516104af9190611a56565b60405180910390f35b6104c0611216565b6040516104ce929190611bb8565b60405180910390f35b3480156104e2575f5ffd5b506104fd60048036038101906104f89190611a99565b6113d9565b005b34801561050a575f5ffd5b5061052560048036038101906105209190611bdf565b6113ed565b6040516105329190611a56565b60405180910390f35b5f61054461140d565b5f151560055f9054906101000a900460ff16151514610598576040517f08c379a000000000000000000000000000000000000000000000000000000000815260040161058f90611c54565b60405180910390fd5b662386f26fc1000034146105e1576040517f08c379a00000000000000000000000000000000000000000000000000000000081526004016105d890611cbc565b60405180910390fd5b5f8260ff16036105f857600a600481905550610635565b60018260ff1603610610576064600481905550610634565b60028260ff1603610629576103e8600481905550610633565b6127106004819055505b5b5b82600390816106449190611edf565b505f600681905550600160055f6101000a81548160ff02191690831515021790555060055f9054906101000a900460ff16905092915050565b60058054906101000a900473ffffffffffffffffffffffffffffffffffffffff1681565b60025f9054906101000a900473ffffffffffffffffffffffffffffffffffffffff1673ffffffffffffffffffffffffffffffffffffffff163373ffffffffffffffffffffffffffffffffffffffff1614610755573360025f9054906101000a900473ffffffffffffffffffffffffffffffffffffffff166040517f1cf993f400000000000000000000000000000000000000000000000000000000815260040161074c929190611fae565b60405180910390fd5b61076083838361149d565b505050565b600560049054906101000a900460ff1681565b5f5f60011515600560039054906101000a900460ff161515146107d0576040517f08c379a00000000000000000000000000000000000000000000000000000000081526004016107c79061201f565b60405180910390fd5b5f600a6001815481106107e6576107e561203d565b5b905f5260205f20015490505f600a6006540361081057600a826108099190612097565b9050610861565b60646006540361082e576064826108279190612097565b9050610860565b6103e86006540361084e576103e8826108479190612097565b905061085f565b6127108261085c9190612097565b90505b5b5b60075f8281526020019081526020015f205f9054906101000a900473ffffffffffffffffffffffffffffffffffffffff166005806101000a81548173ffffffffffffffffffffffffffffffffffffffff021916908373ffffffffffffffffffffffffffffffffffffffff1602179055508060058054906101000a900473ffffffffffffffffffffffffffffffffffffffff169350935050509091565b60045481565b600560029054906101000a900460ff1681565b60015f9054906101000a900473ffffffffffffffffffffffffffffffffffffffff1673ffffffffffffffffffffffffffffffffffffffff163373ffffffffffffffffffffffffffffffffffffffff16146109a5576040517f08c379a000000000000000000000000000000000000000000000000000000000815260040161099c90612111565b60405180910390fd5b5f5f5f9054906101000a900473ffffffffffffffffffffffffffffffffffffffff169050335f5f6101000a81548173ffffffffffffffffffffffffffffffffffffffff021916908373ffffffffffffffffffffffffffffffffffffffff1602179055505f60015f6101000a81548173ffffffffffffffffffffffffffffffffffffffff021916908373ffffffffffffffffffffffffffffffffffffffff1602179055503373ffffffffffffffffffffffffffffffffffffffff168173ffffffffffffffffffffffffffffffffffffffff167f8be0079c531659141344cd1fd0a4f28419497f9722a3daafe3b4186f6b6457e060405160405180910390a350565b5f5f5f9054906101000a900473ffffffffffffffffffffffffffffffffffffffff16905090565b610ad4610aa5565b73ffffffffffffffffffffffffffffffffffffffff163373ffffffffffffffffffffffffffffffffffffffff1614158015610b5c575060025f9054906101000a900473ffffffffffffffffffffffffffffffffffffffff1673ffffffffffffffffffffffffffffffffffffffff163373ffffffffffffffffffffffffffffffffffffffff1614155b15610bca5733610b6a610aa5565b60025f9054906101000a900473ffffffffffffffffffffffffffffffffffffffff166040517f061db9c1000000000000000000000000000000000000000000000000000000008152600401610bc19392919061212f565b60405180910390fd5b5f73ffffffffffffffffffffffffffffffffffffffff168173ffffffffffffffffffffffffffffffffffffffff1603610c2f576040517fd92e233d00000000000000000000000000000000000000000000000000000000815260040160405180910390fd5b8060025f6101000a81548173ffffffffffffffffffffffffffffffffffffffff021916908373ffffffffffffffffffffffffffffffffffffffff1602179055507fd1a6a14209a385a964d036e404cb5cfb71f4000cdb03c9366292430787261be681604051610c9e919061191a565b60405180910390a150565b600560039054906101000a900460ff1681565b60065481565b610cca61140d565b60011515600560049054906101000a900460ff16151514610d20576040517f08c379a0000000000000000000000000000000000000000000000000000000008152600401610d17906121ae565b60405180910390fd5b5f60095f9054906101000a900473ffffffffffffffffffffffffffffffffffffffff1673ffffffffffffffffffffffffffffffffffffffff1647604051610d66906121f9565b5f6040518083038185875af1925050503d805f8114610da0576040519150601f19603f3d011682016040523d82523d5f602084013e610da5565b606091505b5050905080610de9576040517f08c379a0000000000000000000000000000000000000000000000000000000008152600401610de090612257565b60405180910390fd5b50565b60025f9054906101000a900473ffffffffffffffffffffffffffffffffffffffff1681565b60055f9054906101000a900460ff1681565b600560019054906101000a900460ff1681565b60095f9054906101000a900473ffffffffffffffffffffffffffffffffffffffff1681565b60038054610e6890611d07565b80601f0160208091040260200160405190810160405280929190818152602001828054610e9490611d07565b8015610edf5780601f10610eb657610100808354040283529160200191610edf565b820191905f5260205f20905b815481529060010190602001808311610ec257829003601f168201915b505050505081565b5f1515600560049054906101000a900460ff16151514610f3c576040517f08c379a0000000000000000000000000000000000000000000000000000000008152600401610f33906122bf565b60405180910390fd5b5f60058054906101000a900473ffffffffffffffffffffffffffffffffffffffff1673ffffffffffffffffffffffffffffffffffffffff16600854604051610f83906121f9565b5f6040518083038185875af1925050503d805f8114610fbd576040519150601f19603f3d011682016040523d82523d5f602084013e610fc2565b606091505b5050905080611006576040517f08c379a0000000000000000000000000000000000000000000000000000000008152600401610ffd90612257565b60405180910390fd5b50565b60011515600560019054906101000a900460ff1615151461105f576040517f08c379a000000000000000000000000000000000000000000000000000000000815260040161105690612327565b60405180910390fd5b5f1515600560029054906101000a900460ff161515146110b4576040517f08c379a00000000000000000000000000000000000000000000000000000000081526004016110ab9061238f565b60405180910390fd5b60025f9054906101000a900473ffffffffffffffffffffffffffffffffffffffff1673ffffffffffffffffffffffffffffffffffffffff16639b1c385e6040518060c001604052807f000000000000000000000000000000000000000000000000000000000000000081526020017f00000000000000000000000000000000000000000000000000000000000000008152602001600361ffff168152602001620186a063ffffffff168152602001600163ffffffff16815260200161118860405180602001604052805f1515815250611508565b8152506040518263ffffffff1660e01b81526004016111a791906124e6565b6020604051808303815f875af11580156111c3573d5f5f3e3d5ffd5b505050506040513d601f19601f820116820180604052508101906111e7919061251a565b600b819055506001600560026101000a81548160ff021916908315150217905550565b60085481565b600b5481565b5f5f6001151560055f9054906101000a900460ff1615151461126d576040517f08c379a00000000000000000000000000000000000000000000000000000000081526004016112649061258f565b60405180910390fd5b5f1515600560019054906101000a900460ff161515146112c2576040517f08c379a00000000000000000000000000000000000000000000000000000000081526004016112b9906125f7565b60405180910390fd5b662386f26fc10000341461130b576040517f08c379a000000000000000000000000000000000000000000000000000000000815260040161130290611cbc565b60405180910390fd5b3360075f60065481526020019081526020015f205f6101000a81548173ffffffffffffffffffffffffffffffffffffffff021916908373ffffffffffffffffffffffffffffffffffffffff16021790555060065f81548092919061136e90612642565b9190505550662386f26fc1000060085f82825461138b9190612689565b925050819055505f60019050600654600454036113cb576001600560016101000a81548160ff0219169083151502179055508060065492509250506113d5565b8060065492509250505b9091565b6113e161140d565b6113ea816115a0565b50565b600a81815481106113fc575f80fd5b905f5260205f20015f915090505481565b5f5f9054906101000a900473ffffffffffffffffffffffffffffffffffffffff1673ffffffffffffffffffffffffffffffffffffffff163373ffffffffffffffffffffffffffffffffffffffff161461149b576040517f08c379a000000000000000000000000000000000000000000000000000000000815260040161149290612706565b60405180910390fd5b565b8181600a91826114ae929190612814565b507fefb16d61046900da527008568620fb9f8420e2f5ed4de3bfbded5035c9362b0e82826040516114e0929190612912565b60405180910390a16001600560036101000a81548160ff021916908315150217905550505050565b60607f92fd13387c7fe7befbc38d303d6468778fb9731bc4583f17d92989c6fcfdeaaa8260405160240161153c919061295d565b604051602081830303815290604052907bffffffffffffffffffffffffffffffffffffffffffffffffffffffff19166020820180517bffffffffffffffffffffffffffffffffffffffffffffffffffffffff83818316178352505050509050919050565b3373ffffffffffffffffffffffffffffffffffffffff168173ffffffffffffffffffffffffffffffffffffffff160361160e576040517f08c379a0000000000000000000000000000000000000000000000000000000008152600401611605906129c0565b60405180910390fd5b8060015f6101000a81548173ffffffffffffffffffffffffffffffffffffffff021916908373ffffffffffffffffffffffffffffffffffffffff1602179055508073ffffffffffffffffffffffffffffffffffffffff165f5f9054906101000a900473ffffffffffffffffffffffffffffffffffffffff1673ffffffffffffffffffffffffffffffffffffffff167fed8889f560326eb138920d842192f0eb3dd22b4f139c87a2c57538e05bae127860405160405180910390a350565b5f604051905090565b5f5ffd5b5f5ffd5b5f5ffd5b5f5ffd5b5f601f19601f8301169050919050565b7f4e487b71000000000000000000000000000000000000000000000000000000005f52604160045260245ffd5b61172a826116e4565b810181811067ffffffffffffffff82111715611749576117486116f4565b5b80604052505050565b5f61175b6116cb565b90506117678282611721565b919050565b5f67ffffffffffffffff821115611786576117856116f4565b5b61178f826116e4565b9050602081019050919050565b828183375f83830152505050565b5f6117bc6117b78461176c565b611752565b9050828152602081018484840111156117d8576117d76116e0565b5b6117e384828561179c565b509392505050565b5f82601f8301126117ff576117fe6116dc565b5b813561180f8482602086016117aa565b91505092915050565b5f60ff82169050919050565b61182d81611818565b8114611837575f5ffd5b50565b5f8135905061184881611824565b92915050565b5f5f60408385031215611864576118636116d4565b5b5f83013567ffffffffffffffff811115611881576118806116d8565b5b61188d858286016117eb565b925050602061189e8582860161183a565b9150509250929050565b5f8115159050919050565b6118bc816118a8565b82525050565b5f6020820190506118d55f8301846118b3565b92915050565b5f73ffffffffffffffffffffffffffffffffffffffff82169050919050565b5f611904826118db565b9050919050565b611914816118fa565b82525050565b5f60208201905061192d5f83018461190b565b92915050565b5f819050919050565b61194581611933565b811461194f575f5ffd5b50565b5f813590506119608161193c565b92915050565b5f5ffd5b5f5ffd5b5f5f83601f840112611983576119826116dc565b5b8235905067ffffffffffffffff8111156119a05761199f611966565b5b6020830191508360208202830111156119bc576119bb61196a565b5b9250929050565b5f5f5f604084860312156119da576119d96116d4565b5b5f6119e786828701611952565b935050602084013567ffffffffffffffff811115611a0857611a076116d8565b5b611a148682870161196e565b92509250509250925092565b611a2981611933565b82525050565b5f604082019050611a425f830185611a20565b611a4f602083018461190b565b9392505050565b5f602082019050611a695f830184611a20565b92915050565b611a78816118fa565b8114611a82575f5ffd5b50565b5f81359050611a9381611a6f565b92915050565b5f60208284031215611aae57611aad6116d4565b5b5f611abb84828501611a85565b91505092915050565b5f819050919050565b5f611ae7611ae2611add846118db565b611ac4565b6118db565b9050919050565b5f611af882611acd565b9050919050565b5f611b0982611aee565b9050919050565b611b1981611aff565b82525050565b5f602082019050611b325f830184611b10565b92915050565b5f81519050919050565b5f82825260208201905092915050565b8281835e5f83830152505050565b5f611b6a82611b38565b611b748185611b42565b9350611b84818560208601611b52565b611b8d816116e4565b840191505092915050565b5f6020820190508181035f830152611bb08184611b60565b905092915050565b5f604082019050611bcb5f8301856118b3565b611bd86020830184611a20565b9392505050565b5f60208284031215611bf457611bf36116d4565b5b5f611c0184828501611952565b91505092915050565b7f416c7265616479207374617274656400000000000000000000000000000000005f82015250565b5f611c3e600f83611b42565b9150611c4982611c0a565b602082019050919050565b5f6020820190508181035f830152611c6b81611c32565b9050919050565b7f53656e6420302e30312045544820746f20627579207469636b657400000000005f82015250565b5f611ca6601b83611b42565b9150611cb182611c72565b602082019050919050565b5f6020820190508181035f830152611cd381611c9a565b9050919050565b7f4e487b71000000000000000000000000000000000000000000000000000000005f52602260045260245ffd5b5f6002820490506001821680611d1e57607f821691505b602082108103611d3157611d30611cda565b5b50919050565b5f819050815f5260205f209050919050565b5f6020601f8301049050919050565b5f82821b905092915050565b5f60088302611d937fffffffffffffffffffffffffffffffffffffffffffffffffffffffffffffffff82611d58565b611d9d8683611d58565b95508019841693508086168417925050509392505050565b5f611dcf611dca611dc584611933565b611ac4565b611933565b9050919050565b5f819050919050565b611de883611db5565b611dfc611df482611dd6565b848454611d64565b825550505050565b5f5f905090565b611e13611e04565b611e1e818484611ddf565b505050565b5f5b82811015611e4457611e395f828401611e0b565b600181019050611e25565b505050565b601f821115611e975782821115611e9657611e6381611d37565b611e6c83611d49565b611e7585611d49565b6020861015611e82575f90505b808301611e9182840382611e23565b505050505b5b505050565b5f82821c905092915050565b5f611eb75f1984600802611e9c565b1980831691505092915050565b5f611ecf8383611ea8565b9150826002028217905092915050565b611ee882611b38565b67ffffffffffffffff811115611f0157611f006116f4565b5b611f0b8254611d07565b611f16828285611e49565b5f60209050601f831160018114611f47575f8415611f35578287015190505b611f3f8582611ec4565b865550611fa6565b601f198416611f5586611d37565b5f5b82811015611f7c57848901518255600182019150602085019450602081019050611f57565b86831015611f995784890151611f95601f891682611ea8565b8355505b6001600288020188555050505b505050505050565b5f604082019050611fc15f83018561190b565b611fce602083018461190b565b9392505050565b7f4e6f206f7261636c6520616e73776572207965740000000000000000000000005f82015250565b5f612009601483611b42565b915061201482611fd5565b602082019050919050565b5f6020820190508181035f83015261203681611ffd565b9050919050565b7f4e487b71000000000000000000000000000000000000000000000000000000005f52603260045260245ffd5b7f4e487b71000000000000000000000000000000000000000000000000000000005f52601260045260245ffd5b5f6120a182611933565b91506120ac83611933565b9250826120bc576120bb61206a565b5b828206905092915050565b7f4d7573742062652070726f706f736564206f776e6572000000000000000000005f82015250565b5f6120fb601683611b42565b9150612106826120c7565b602082019050919050565b5f6020820190508181035f830152612128816120ef565b9050919050565b5f6060820190506121425f83018661190b565b61214f602083018561190b565b61215c604083018461190b565b949350505050565b7f52656c65617365207265776172647320666972737400000000000000000000005f82015250565b5f612198601583611b42565b91506121a382612164565b602082019050919050565b5f6020820190508181035f8301526121c58161218c565b9050919050565b5f81905092915050565b50565b5f6121e45f836121cc565b91506121ef826121d6565b5f82019050919050565b5f612203826121d9565b9150819050919050565b7f4661696c656420746f2073656e642045746865720000000000000000000000005f82015250565b5f612241601483611b42565b915061224c8261220d565b602082019050919050565b5f6020820190508181035f83015261226e81612235565b9050919050565b7f4e6f2072657761726473000000000000000000000000000000000000000000005f82015250565b5f6122a9600a83611b42565b91506122b482612275565b602082019050919050565b5f6020820190508181035f8301526122d68161229d565b9050919050565b7f4e6f742066696e697368656420796574000000000000000000000000000000005f82015250565b5f612311601083611b42565b915061231c826122dd565b602082019050919050565b5f6020820190508181035f83015261233e81612305565b9050919050565b7f416c7265616479207265717565737465640000000000000000000000000000005f82015250565b5f612379601183611b42565b915061238482612345565b602082019050919050565b5f6020820190508181035f8301526123a68161236d565b9050919050565b5f819050919050565b6123bf816123ad565b82525050565b6123ce81611933565b82525050565b5f61ffff82169050919050565b6123ea816123d4565b82525050565b5f63ffffffff82169050919050565b612408816123f0565b82525050565b5f81519050919050565b5f82825260208201905092915050565b5f6124328261240e565b61243c8185612418565b935061244c818560208601611b52565b612455816116e4565b840191505092915050565b5f60c083015f8301516124755f8601826123b6565b50602083015161248860208601826123c5565b50604083015161249b60408601826123e1565b5060608301516124ae60608601826123ff565b5060808301516124c160808601826123ff565b5060a083015184820360a08601526124d98282612428565b9150508091505092915050565b5f6020820190508181035f8301526124fe8184612460565b905092915050565b5f815190506125148161193c565b92915050565b5f6020828403121561252f5761252e6116d4565b5b5f61253c84828501612506565b91505092915050565b7f4e6f7420737461727465642079657400000000000000000000000000000000005f82015250565b5f612579600f83611b42565b915061258482612545565b602082019050919050565b5f6020820190508181035f8301526125a68161256d565b9050919050565b7f416c72656164792066696e6973686564000000000000000000000000000000005f82015250565b5f6125e1601083611b42565b91506125ec826125ad565b602082019050919050565b5f6020820190508181035f83015261260e816125d5565b9050919050565b7f4e487b71000000000000000000000000000000000000000000000000000000005f52601160045260245ffd5b5f61264c82611933565b91507fffffffffffffffffffffffffffffffffffffffffffffffffffffffffffffffff820361267e5761267d612615565b5b600182019050919050565b5f61269382611933565b915061269e83611933565b92508282019050808211156126b6576126b5612615565b5b92915050565b7f4f6e6c792063616c6c61626c65206279206f776e6572000000000000000000005f82015250565b5f6126f0601683611b42565b91506126fb826126bc565b602082019050919050565b5f6020820190508181035f83015261271d816126e4565b9050919050565b5f81549050919050565b5f8190506001806001038301049050919050565b5f819050815f5260205f209050919050565b5f5b828110156127755761276a5f828401611e0b565b600181019050612756565b505050565b818310156127b15761278b8261272e565b6127948461272e565b61279d83612742565b8181016127ac83850382612754565b505050505b505050565b680100000000000000008211156127d0576127cf6116f4565b5b6127d981612724565b8282556127e783828461277a565b505050565b5f82905092915050565b5f81356128028161193c565b80915050919050565b5f819050919050565b61281e83836127ec565b67ffffffffffffffff811115612837576128366116f4565b5b61284181836127b6565b61284a8361280b565b61285383612742565b600183045f5b81811015612890575f61286b856127f6565b61287481611dd6565b8092506020870196505050808285015550600181019050612859565b5050505050505050565b5f82825260208201905092915050565b5f5ffd5b82818337505050565b5f6128c2838561289a565b93507f07ffffffffffffffffffffffffffffffffffffffffffffffffffffffffffffff8311156128f5576128f46128aa565b5b6020830292506129068385846128ae565b82840190509392505050565b5f6020820190508181035f83015261292b8184866128b7565b90509392505050565b61293d816118a8565b82525050565b602082015f8201516129575f850182612934565b50505050565b5f6020820190506129705f830184612943565b92915050565b7f43616e6e6f74207472616e7366657220746f2073656c660000000000000000005f82015250565b5f6129aa601783611b42565b91506129b582612976565b602082019050919050565b5f6020820190508181035f8301526129d78161299e565b905091905056fea2646970667358221220699d2bef461e20bd7d0ff478532e7adfacb0484b47c9e0342427a8a6e294ef4164736f6c63430008210033","linkReferences":{}},"methodIdentifiers":{"acceptOwnership()":"79ba5097","buyTicket()":"edca914c","createAndStartLottery(string,uint8)":"0d0ad784","lotAdmin()":"c1c02e5a","lotFinished()":"c03dbdc2","lotMaxNonce()":"554fa6e3","lotName()":"cd37e958","lotNonce()":"996da106","lotRandomWordsRecieved()":"99451e99","lotRandomWordsRequestMade()":"5631059b","lotRewards()":"e3974895","lotRewardsReleased()":"2969c189","lotStarted()":"ad6c4dd7","lotWinner()":"1ac7be16","owner()":"8da5cb5b","rawFulfillRandomWords(uint256,uint256[])":"1fe543e3","releaseComissions()":"9c0c6a78","releaseRewards()":"d0fab3ca","requestRandomWords()":"e0c86289","revealRandomWinner()":"44c4dc99","s_randomWords(uint256)":"f6eaffc8","s_requestId()":"e89e106a","s_vrfCoordinator()":"9eccacf6","setCoordinator(address)":"8ea98117","transferOwnership(address)":"f2fde38b"},"id":37}