{"abi":[{"type":"constructor","inputs":[{"name":"subscriptionId","type":"uint256","internalType":"uint256"},{"name":"vrfCoordinator","type":"address","internalType":"address"},{"name":"keyHash","type":"bytes32","internalType":"bytes32"}],"stateMutability":"nonpayable"},{"type":"function","name":"acceptOwnership","inputs":[],"outputs":[],"stateMutability":"nonpayable"},{"type":"function","name":"buyTicket","inputs":[],"outputs":[{"name":"","type":"bool","internalType":"bool"},{"name":"","type":"uint256","internalType":"uint256"}],"stateMutability":"payable"},{"type":"function","name":"createAndStartLottery","inputs":[{"name":"_name","type":"string","internalType":"string"},{"name":"_maxNonce","type":"uint256","internalType":"uint256"}],"outputs":[{"name":"","type":"bool","internalType":"bool"}],"stateMutability":"payable"},{"type":"function","name":"lotAdmin","inputs":[],"outputs":[{"name":"","type":"address","internalType":"address"}],"stateMutability":"view"},{"type":"function","name":"lotFinished","inputs":[],"outputs":[{"name":"","type":"bool","internalType":"bool"}],"stateMutability":"view"},{"type":"function","name":"lotMaxNonce","inputs":[],"outputs":[{"name":"","type":"uint256","internalType":"uint256"}],"stateMutability":"view"},{"type":"function","name":"lotName","inputs":[],"outputs":[{"name":"","type":"string","internalType":"string"}],"stateMutability":"view"},{"type":"function","name":"lotNonce","inputs":[],"outputs":[{"name":"","type":"uint256","internalType":"uint256"}],"stateMutability":"view"},{"type":"function","name":"lotRandomWordsRecieved","inputs":[],"outputs":[{"name":"","type":"bool","internalType":"bool"}],"stateMutability":"view"},{"type":"function","name":"lotRandomWordsRequestMade","inputs":[],"outputs":[{"name":"","type":"bool","internalType":"bool"}],"stateMutability":"view"},{"type":"function","name":"lotRewards","inputs":[],"outputs":[{"name":"","type":"uint256","internalType":"uint256"}],"stateMutability":"view"},{"type":"function","name":"lotRewardsReleased","inputs":[],"outputs":[{"name":"","type":"bool","internalType":"bool"}],"stateMutability":"view"},{"type":"function","name":"lotStarted","inputs":[],"outputs":[{"name":"","type":"bool","internalType":"bool"}],"stateMutability":"view"},{"type":"function","name":"lotWinner","inputs":[],"outputs":[{"name":"","type":"address","internalType":"address"}],"stateMutability":"view"},{"type":"function","name":"owner","inputs":[],"outputs":[{"name":"","type":"address","internalType":"address"}],"stateMutability":"view"},{"type":"function","name":"rawFulfillRandomWords","inputs":[{"name":"requestId","type":"uint256","internalType":"uint256"},{"name":"randomWords","type":"uint256[]","internalType":"uint256[]"}],"outputs":[],"stateMutability":"nonpayable"},{"type":"function","name":"releaseComissions","inputs":[],"outputs":[],"stateMutability":"nonpayable"},{"type":"function","name":"releaseRewards","inputs":[],"outputs":[],"stateMutability":"nonpayable"},{"type":"function","name":"requestRandomWords","inputs":[],"outputs":[],"stateMutability":"nonpayable"},{"type":"function","name":"revealRandomWinner","inputs":[],"outputs":[{"name":"","type":"uint256","internalType":"uint256"},{"name":"","type":"address","internalType":"address"}],"stateMutability":"nonpayable"},{"type":"function","name":"s_randomWords","inputs":[{"name":"","type":"uint256","internalType":"uint256"}],"outputs":[{"name":"","type":"uint256","internalType":"uint256"}],"stateMutability":"view"},{"type":"function","name":"s_requestId","inputs":[],"outputs":[{"name":"","type":"uint256","internalType":"uint256"}],"stateMutability":"view"},{"type":"function","name":"s_vrfCoordinator","inputs":[],"outputs":[{"name":"","type":"address","internalType":"contract IVRFCoordinatorV2Plus"}],"stateMutability":"view"},{"type":"function","name":"setCoordinator","inputs":[{"name":"_vrfCoordinator","type":"address","internalType":"address"}],"outputs":[],"stateMutability":"nonpayable"},{"type":"function","name":"transferOwnership","inputs":[{"name":"to","type":"address","internalType":"address"}],"outputs":[],"stateMutability":"nonpayable"},{"type":"event","name":"CoordinatorSet","inputs":[{"name":"vrfCoordinator","type":"address","indexed":false,"internalType":"address"}],"anonymous":false},{"type":"event","name":"OwnershipTransferRequested","inputs":[{"name":"from","type":"address","indexed":true,"internalType":"address"},{"name":"to","type":"address","indexed":true,"internalType":"address"}],"anonymous":false},{"type":"event","name":"OwnershipTransferred","inputs":[{"name":"from","type":"address","indexed":true,"internalType":"address"},{"name":"to","type":"address","indexed":true,"internalType":"address"}],"anonymous":false},{"type":"event","name":"ReturnedRandomness","inputs":[{"name":"randomWords","type":"uint256[]","indexed":false,"internalType":"uint256[]"}],"anonymous":false},{"type":"error","name":"OnlyCoordinatorCanFulfill","inputs":[{"name":"have","type":"address","internalType":"address"},{"name":"want","type":"address","internalType":"address"}]},{"type":"error","name":"OnlyOwnerOrCoordinator","inputs":[{"name":"have","type":"address","internalType":"address"},{"name":"owner","type":"address","internalType":"address"},{"name":"coordinator","type":"address","internalType":"address"}]},{"type":"error","name":"ZeroAddress","inputs":[]}],"bytecode":{"object":"0x60c060405234801561000f575f5ffd5b50604051612ec7380380612ec7833981810160405281019061003191906103d5565b8133805f5f73ffffffffffffffffffffffffffffffffffffffff168273ffffffffffffffffffffffffffffffffffffffff16036100a3576040517f08c379a000000000000000000000000000000000000000000000000000000000815260040161009a9061047f565b60405180910390fd5b815f5f6101000a81548173ffffffffffffffffffffffffffffffffffffffff021916908373ffffffffffffffffffffffffffffffffffffffff1602179055505f73ffffffffffffffffffffffffffffffffffffffff168173ffffffffffffffffffffffffffffffffffffffff161461012557610124816101e660201b60201c565b5b5050505f73ffffffffffffffffffffffffffffffffffffffff168173ffffffffffffffffffffffffffffffffffffffff160361018d576040517fd92e233d00000000000000000000000000000000000000000000000000000000815260040160405180910390fd5b8060025f6101000a81548173ffffffffffffffffffffffffffffffffffffffff021916908373ffffffffffffffffffffffffffffffffffffffff160217905550508060a081815250508260808181525050505050610505565b3373ffffffffffffffffffffffffffffffffffffffff168173ffffffffffffffffffffffffffffffffffffffff1603610254576040517f08c379a000000000000000000000000000000000000000000000000000000000815260040161024b906104e7565b60405180910390fd5b8060015f6101000a81548173ffffffffffffffffffffffffffffffffffffffff021916908373ffffffffffffffffffffffffffffffffffffffff1602179055508073ffffffffffffffffffffffffffffffffffffffff165f5f9054906101000a900473ffffffffffffffffffffffffffffffffffffffff1673ffffffffffffffffffffffffffffffffffffffff167fed8889f560326eb138920d842192f0eb3dd22b4f139c87a2c57538e05bae127860405160405180910390a350565b5f5ffd5b5f819050919050565b61032781610315565b8114610331575f5ffd5b50565b5f815190506103428161031e565b92915050565b5f73ffffffffffffffffffffffffffffffffffffffff82169050919050565b5f61037182610348565b9050919050565b61038181610367565b811461038b575f5ffd5b50565b5f8151905061039c81610378565b92915050565b5f819050919050565b6103b4816103a2565b81146103be575f5ffd5b50565b5f815190506103cf816103ab565b92915050565b5f5f5f606084860312156103ec576103eb610311565b5b5f6103f986828701610334565b935050602061040a8682870161038e565b925050604061041b868287016103c1565b9150509250925092565b5f82825260208201905092915050565b7f43616e6e6f7420736574206f776e657220746f207a65726f00000000000000005f82015250565b5f610469601883610425565b915061047482610435565b602082019050919050565b5f6020820190508181035f8301526104968161045d565b9050919050565b7f43616e6e6f74207472616e7366657220746f2073656c660000000000000000005f82015250565b5f6104d1601783610425565b91506104dc8261049d565b602082019050919050565b5f6020820190508181035f8301526104fe816104c5565b9050919050565b60805160a0516129a16105265f395f6110c101525f6110e701526129a15ff3fe608060405260043610610165575f3560e01c80639c0c6a78116100d0578063d0fab3ca11610089578063e89e106a11610063578063e89e106a1461048e578063edca914c146104b8578063f2fde38b146104d7578063f6eaffc8146104ff57610165565b8063d0fab3ca14610438578063e0c862891461044e578063e39748951461046457610165565b80639c0c6a78146103505780639eccacf614610366578063ad6c4dd714610390578063c03dbdc2146103ba578063c1c02e5a146103e4578063cd37e9581461040e57610165565b806367c828b71161012257806367c828b71461026457806379ba5097146102945780638da5cb5b146102aa5780638ea98117146102d457806399451e99146102fc578063996da1061461032657610165565b80631ac7be16146101695780631fe543e3146101935780632969c189146101bb57806344c4dc99146101e5578063554fa6e3146102105780635631059b1461023a575b5f5ffd5b348015610174575f5ffd5b5061017d61053b565b60405161018a91906116cd565b60405180910390f35b34801561019e575f5ffd5b506101b960048036038101906101b4919061178b565b61055f565b005b3480156101c6575f5ffd5b506101cf610623565b6040516101dc9190611802565b60405180910390f35b3480156101f0575f5ffd5b506101f9610636565b60405161020792919061182a565b60405180910390f35b34801561021b575f5ffd5b506102246107be565b6040516102319190611851565b60405180910390f35b348015610245575f5ffd5b5061024e6107c4565b60405161025b9190611802565b60405180910390f35b61027e600480360381019061027991906119a2565b6107d7565b60405161028b9190611802565b60405180910390f35b34801561029f575f5ffd5b506102a86108d9565b005b3480156102b5575f5ffd5b506102be610a68565b6040516102cb91906116cd565b60405180910390f35b3480156102df575f5ffd5b506102fa60048036038101906102f59190611a26565b610a8f565b005b348015610307575f5ffd5b50610310610c6c565b60405161031d9190611802565b60405180910390f35b348015610331575f5ffd5b5061033a610c7f565b6040516103479190611851565b60405180910390f35b34801561035b575f5ffd5b50610364610c85565b005b348015610371575f5ffd5b5061037a610daf565b6040516103879190611aac565b60405180910390f35b34801561039b575f5ffd5b506103a4610dd4565b6040516103b19190611802565b60405180910390f35b3480156103c5575f5ffd5b506103ce610de6565b6040516103db9190611802565b60405180910390f35b3480156103ef575f5ffd5b506103f8610df9565b60405161040591906116cd565b60405180910390f35b348015610419575f5ffd5b50610422610e1e565b60405161042f9190611b25565b60405180910390f35b348015610443575f5ffd5b5061044c610eaa565b005b348015610459575f5ffd5b50610462610fcc565b005b34801561046f575f5ffd5b506104786111cd565b6040516104859190611851565b60405180910390f35b348015610499575f5ffd5b506104a26111d3565b6040516104af9190611851565b60405180910390f35b6104c06111d9565b6040516104ce929190611b45565b60405180910390f35b3480156104e2575f5ffd5b506104fd60048036038101906104f89190611a26565b61139c565b005b34801561050a575f5ffd5b5061052560048036038101906105209190611b6c565b6113b0565b6040516105329190611851565b60405180910390f35b60058054906101000a900473ffffffffffffffffffffffffffffffffffffffff1681565b60025f9054906101000a900473ffffffffffffffffffffffffffffffffffffffff1673ffffffffffffffffffffffffffffffffffffffff163373ffffffffffffffffffffffffffffffffffffffff1614610613573360025f9054906101000a900473ffffffffffffffffffffffffffffffffffffffff166040517f1cf993f400000000000000000000000000000000000000000000000000000000815260040161060a929190611b97565b60405180910390fd5b61061e8383836113d0565b505050565b600560049054906101000a900460ff1681565b5f5f60011515600560039054906101000a900460ff1615151461068e576040517f08c379a000000000000000000000000000000000000000000000000000000000815260040161068590611c08565b60405180910390fd5b5f600a6001815481106106a4576106a3611c26565b5b905f5260205f20015490505f600960065410156106cf57600a826106c89190611c80565b9050610722565b606360065410156106ee576064826106e79190611c80565b9050610721565b6103e7600654101561070f576103e8826107089190611c80565b9050610720565b6127108261071d9190611c80565b90505b5b5b60075f8281526020019081526020015f205f9054906101000a900473ffffffffffffffffffffffffffffffffffffffff166005806101000a81548173ffffffffffffffffffffffffffffffffffffffff021916908373ffffffffffffffffffffffffffffffffffffffff1602179055508060058054906101000a900473ffffffffffffffffffffffffffffffffffffffff169350935050509091565b60045481565b600560029054906101000a900460ff1681565b5f6107e061143b565b5f151560055f9054906101000a900460ff16151514610834576040517f08c379a000000000000000000000000000000000000000000000000000000000815260040161082b90611cfa565b60405180910390fd5b662386f26fc10000341461087d576040517f08c379a000000000000000000000000000000000000000000000000000000000815260040161087490611d62565b60405180910390fd5b612710821061088a575f5ffd5b82600390816108999190611f85565b50816004819055505f600681905550600160055f6101000a81548160ff02191690831515021790555060055f9054906101000a900460ff16905092915050565b60015f9054906101000a900473ffffffffffffffffffffffffffffffffffffffff1673ffffffffffffffffffffffffffffffffffffffff163373ffffffffffffffffffffffffffffffffffffffff1614610968576040517f08c379a000000000000000000000000000000000000000000000000000000000815260040161095f9061209e565b60405180910390fd5b5f5f5f9054906101000a900473ffffffffffffffffffffffffffffffffffffffff169050335f5f6101000a81548173ffffffffffffffffffffffffffffffffffffffff021916908373ffffffffffffffffffffffffffffffffffffffff1602179055505f60015f6101000a81548173ffffffffffffffffffffffffffffffffffffffff021916908373ffffffffffffffffffffffffffffffffffffffff1602179055503373ffffffffffffffffffffffffffffffffffffffff168173ffffffffffffffffffffffffffffffffffffffff167f8be0079c531659141344cd1fd0a4f28419497f9722a3daafe3b4186f6b6457e060405160405180910390a350565b5f5f5f9054906101000a900473ffffffffffffffffffffffffffffffffffffffff16905090565b610a97610a68565b73ffffffffffffffffffffffffffffffffffffffff163373ffffffffffffffffffffffffffffffffffffffff1614158015610b1f575060025f9054906101000a900473ffffffffffffffffffffffffffffffffffffffff1673ffffffffffffffffffffffffffffffffffffffff163373ffffffffffffffffffffffffffffffffffffffff1614155b15610b8d5733610b2d610a68565b60025f9054906101000a900473ffffffffffffffffffffffffffffffffffffffff166040517f061db9c1000000000000000000000000000000000000000000000000000000008152600401610b84939291906120bc565b60405180910390fd5b5f73ffffffffffffffffffffffffffffffffffffffff168173ffffffffffffffffffffffffffffffffffffffff1603610bf2576040517fd92e233d00000000000000000000000000000000000000000000000000000000815260040160405180910390fd5b8060025f6101000a81548173ffffffffffffffffffffffffffffffffffffffff021916908373ffffffffffffffffffffffffffffffffffffffff1602179055507fd1a6a14209a385a964d036e404cb5cfb71f4000cdb03c9366292430787261be681604051610c6191906116cd565b60405180910390a150565b600560039054906101000a900460ff1681565b60065481565b610c8d61143b565b60011515600560049054906101000a900460ff16151514610ce3576040517f08c379a0000000000000000000000000000000000000000000000000000000008152600401610cda9061213b565b60405180910390fd5b5f60095f9054906101000a900473ffffffffffffffffffffffffffffffffffffffff1673ffffffffffffffffffffffffffffffffffffffff1647604051610d2990612186565b5f6040518083038185875af1925050503d805f8114610d63576040519150601f19603f3d011682016040523d82523d5f602084013e610d68565b606091505b5050905080610dac576040517f08c379a0000000000000000000000000000000000000000000000000000000008152600401610da3906121e4565b60405180910390fd5b50565b60025f9054906101000a900473ffffffffffffffffffffffffffffffffffffffff1681565b60055f9054906101000a900460ff1681565b600560019054906101000a900460ff1681565b60095f9054906101000a900473ffffffffffffffffffffffffffffffffffffffff1681565b60038054610e2b90611dad565b80601f0160208091040260200160405190810160405280929190818152602001828054610e5790611dad565b8015610ea25780601f10610e7957610100808354040283529160200191610ea2565b820191905f5260205f20905b815481529060010190602001808311610e8557829003601f168201915b505050505081565b5f1515600560049054906101000a900460ff16151514610eff576040517f08c379a0000000000000000000000000000000000000000000000000000000008152600401610ef69061224c565b60405180910390fd5b5f60058054906101000a900473ffffffffffffffffffffffffffffffffffffffff1673ffffffffffffffffffffffffffffffffffffffff16600854604051610f4690612186565b5f6040518083038185875af1925050503d805f8114610f80576040519150601f19603f3d011682016040523d82523d5f602084013e610f85565b606091505b5050905080610fc9576040517f08c379a0000000000000000000000000000000000000000000000000000000008152600401610fc0906121e4565b60405180910390fd5b50565b60011515600560019054906101000a900460ff16151514611022576040517f08c379a0000000000000000000000000000000000000000000000000000000008152600401611019906122b4565b60405180910390fd5b5f1515600560029054906101000a900460ff16151514611077576040517f08c379a000000000000000000000000000000000000000000000000000000000815260040161106e9061231c565b60405180910390fd5b60025f9054906101000a900473ffffffffffffffffffffffffffffffffffffffff1673ffffffffffffffffffffffffffffffffffffffff16639b1c385e6040518060c001604052807f000000000000000000000000000000000000000000000000000000000000000081526020017f00000000000000000000000000000000000000000000000000000000000000008152602001600361ffff168152602001620186a063ffffffff168152602001600163ffffffff16815260200161114b60405180602001604052805f15158152506114cb565b8152506040518263ffffffff1660e01b815260040161116a9190612473565b6020604051808303815f875af1158015611186573d5f5f3e3d5ffd5b505050506040513d601f19601f820116820180604052508101906111aa91906124a7565b600b819055506001600560026101000a81548160ff021916908315150217905550565b60085481565b600b5481565b5f5f6001151560055f9054906101000a900460ff16151514611230576040517f08c379a00000000000000000000000000000000000000000000000000000000081526004016112279061251c565b60405180910390fd5b5f1515600560019054906101000a900460ff16151514611285576040517f08c379a000000000000000000000000000000000000000000000000000000000815260040161127c90612584565b60405180910390fd5b662386f26fc1000034146112ce576040517f08c379a00000000000000000000000000000000000000000000000000000000081526004016112c590611d62565b60405180910390fd5b3360075f60065481526020019081526020015f205f6101000a81548173ffffffffffffffffffffffffffffffffffffffff021916908373ffffffffffffffffffffffffffffffffffffffff16021790555060065f815480929190611331906125cf565b9190505550662386f26fc1000060085f82825461134e9190612616565b925050819055505f600190506006546004540361138e576001600560016101000a81548160ff021916908315150217905550806006549250925050611398565b8060065492509250505b9091565b6113a461143b565b6113ad81611563565b50565b600a81815481106113bf575f80fd5b905f5260205f20015f915090505481565b8181600a91826113e1929190612739565b507fefb16d61046900da527008568620fb9f8420e2f5ed4de3bfbded5035c9362b0e8282604051611413929190612837565b60405180910390a16001600560036101000a81548160ff021916908315150217905550505050565b5f5f9054906101000a900473ffffffffffffffffffffffffffffffffffffffff1673ffffffffffffffffffffffffffffffffffffffff163373ffffffffffffffffffffffffffffffffffffffff16146114c9576040517f08c379a00000000000000000000000000000000000000000000000000000000081526004016114c0906128a3565b60405180910390fd5b565b60607f92fd13387c7fe7befbc38d303d6468778fb9731bc4583f17d92989c6fcfdeaaa826040516024016114ff91906128ea565b604051602081830303815290604052907bffffffffffffffffffffffffffffffffffffffffffffffffffffffff19166020820180517bffffffffffffffffffffffffffffffffffffffffffffffffffffffff83818316178352505050509050919050565b3373ffffffffffffffffffffffffffffffffffffffff168173ffffffffffffffffffffffffffffffffffffffff16036115d1576040517f08c379a00000000000000000000000000000000000000000000000000000000081526004016115c89061294d565b60405180910390fd5b8060015f6101000a81548173ffffffffffffffffffffffffffffffffffffffff021916908373ffffffffffffffffffffffffffffffffffffffff1602179055508073ffffffffffffffffffffffffffffffffffffffff165f5f9054906101000a900473ffffffffffffffffffffffffffffffffffffffff1673ffffffffffffffffffffffffffffffffffffffff167fed8889f560326eb138920d842192f0eb3dd22b4f139c87a2c57538e05bae127860405160405180910390a350565b5f73ffffffffffffffffffffffffffffffffffffffff82169050919050565b5f6116b78261168e565b9050919050565b6116c7816116ad565b82525050565b5f6020820190506116e05f8301846116be565b92915050565b5f604051905090565b5f5ffd5b5f5ffd5b5f819050919050565b611709816116f7565b8114611713575f5ffd5b50565b5f8135905061172481611700565b92915050565b5f5ffd5b5f5ffd5b5f5ffd5b5f5f83601f84011261174b5761174a61172a565b5b8235905067ffffffffffffffff8111156117685761176761172e565b5b60208301915083602082028301111561178457611783611732565b5b9250929050565b5f5f5f604084860312156117a2576117a16116ef565b5b5f6117af86828701611716565b935050602084013567ffffffffffffffff8111156117d0576117cf6116f3565b5b6117dc86828701611736565b92509250509250925092565b5f8115159050919050565b6117fc816117e8565b82525050565b5f6020820190506118155f8301846117f3565b92915050565b611824816116f7565b82525050565b5f60408201905061183d5f83018561181b565b61184a60208301846116be565b9392505050565b5f6020820190506118645f83018461181b565b92915050565b5f5ffd5b5f601f19601f8301169050919050565b7f4e487b71000000000000000000000000000000000000000000000000000000005f52604160045260245ffd5b6118b48261186e565b810181811067ffffffffffffffff821117156118d3576118d261187e565b5b80604052505050565b5f6118e56116e6565b90506118f182826118ab565b919050565b5f67ffffffffffffffff8211156119105761190f61187e565b5b6119198261186e565b9050602081019050919050565b828183375f83830152505050565b5f611946611941846118f6565b6118dc565b9050828152602081018484840111156119625761196161186a565b5b61196d848285611926565b509392505050565b5f82601f8301126119895761198861172a565b5b8135611999848260208601611934565b91505092915050565b5f5f604083850312156119b8576119b76116ef565b5b5f83013567ffffffffffffffff8111156119d5576119d46116f3565b5b6119e185828601611975565b92505060206119f285828601611716565b9150509250929050565b611a05816116ad565b8114611a0f575f5ffd5b50565b5f81359050611a20816119fc565b92915050565b5f60208284031215611a3b57611a3a6116ef565b5b5f611a4884828501611a12565b91505092915050565b5f819050919050565b5f611a74611a6f611a6a8461168e565b611a51565b61168e565b9050919050565b5f611a8582611a5a565b9050919050565b5f611a9682611a7b565b9050919050565b611aa681611a8c565b82525050565b5f602082019050611abf5f830184611a9d565b92915050565b5f81519050919050565b5f82825260208201905092915050565b8281835e5f83830152505050565b5f611af782611ac5565b611b018185611acf565b9350611b11818560208601611adf565b611b1a8161186e565b840191505092915050565b5f6020820190508181035f830152611b3d8184611aed565b905092915050565b5f604082019050611b585f8301856117f3565b611b65602083018461181b565b9392505050565b5f60208284031215611b8157611b806116ef565b5b5f611b8e84828501611716565b91505092915050565b5f604082019050611baa5f8301856116be565b611bb760208301846116be565b9392505050565b7f4e6f206f7261636c6520616e73776572207965740000000000000000000000005f82015250565b5f611bf2601483611acf565b9150611bfd82611bbe565b602082019050919050565b5f6020820190508181035f830152611c1f81611be6565b9050919050565b7f4e487b71000000000000000000000000000000000000000000000000000000005f52603260045260245ffd5b7f4e487b71000000000000000000000000000000000000000000000000000000005f52601260045260245ffd5b5f611c8a826116f7565b9150611c95836116f7565b925082611ca557611ca4611c53565b5b828206905092915050565b7f416c7265616479207374617274656400000000000000000000000000000000005f82015250565b5f611ce4600f83611acf565b9150611cef82611cb0565b602082019050919050565b5f6020820190508181035f830152611d1181611cd8565b9050919050565b7f53656e6420302e30312045544820746f20627579207469636b657400000000005f82015250565b5f611d4c601b83611acf565b9150611d5782611d18565b602082019050919050565b5f6020820190508181035f830152611d7981611d40565b9050919050565b7f4e487b71000000000000000000000000000000000000000000000000000000005f52602260045260245ffd5b5f6002820490506001821680611dc457607f821691505b602082108103611dd757611dd6611d80565b5b50919050565b5f819050815f5260205f209050919050565b5f6020601f8301049050919050565b5f82821b905092915050565b5f60088302611e397fffffffffffffffffffffffffffffffffffffffffffffffffffffffffffffffff82611dfe565b611e438683611dfe565b95508019841693508086168417925050509392505050565b5f611e75611e70611e6b846116f7565b611a51565b6116f7565b9050919050565b5f819050919050565b611e8e83611e5b565b611ea2611e9a82611e7c565b848454611e0a565b825550505050565b5f5f905090565b611eb9611eaa565b611ec4818484611e85565b505050565b5f5b82811015611eea57611edf5f828401611eb1565b600181019050611ecb565b505050565b601f821115611f3d5782821115611f3c57611f0981611ddd565b611f1283611def565b611f1b85611def565b6020861015611f28575f90505b808301611f3782840382611ec9565b505050505b5b505050565b5f82821c905092915050565b5f611f5d5f1984600802611f42565b1980831691505092915050565b5f611f758383611f4e565b9150826002028217905092915050565b611f8e82611ac5565b67ffffffffffffffff811115611fa757611fa661187e565b5b611fb18254611dad565b611fbc828285611eef565b5f60209050601f831160018114611fed575f8415611fdb578287015190505b611fe58582611f6a565b86555061204c565b601f198416611ffb86611ddd565b5f5b8281101561202257848901518255600182019150602085019450602081019050611ffd565b8683101561203f578489015161203b601f891682611f4e565b8355505b6001600288020188555050505b505050505050565b7f4d7573742062652070726f706f736564206f776e6572000000000000000000005f82015250565b5f612088601683611acf565b915061209382612054565b602082019050919050565b5f6020820190508181035f8301526120b58161207c565b9050919050565b5f6060820190506120cf5f8301866116be565b6120dc60208301856116be565b6120e960408301846116be565b949350505050565b7f52656c65617365207265776172647320666972737400000000000000000000005f82015250565b5f612125601583611acf565b9150612130826120f1565b602082019050919050565b5f6020820190508181035f83015261215281612119565b9050919050565b5f81905092915050565b50565b5f6121715f83612159565b915061217c82612163565b5f82019050919050565b5f61219082612166565b9150819050919050565b7f4661696c656420746f2073656e642045746865720000000000000000000000005f82015250565b5f6121ce601483611acf565b91506121d98261219a565b602082019050919050565b5f6020820190508181035f8301526121fb816121c2565b9050919050565b7f4e6f2072657761726473000000000000000000000000000000000000000000005f82015250565b5f612236600a83611acf565b915061224182612202565b602082019050919050565b5f6020820190508181035f8301526122638161222a565b9050919050565b7f4e6f742066696e697368656420796574000000000000000000000000000000005f82015250565b5f61229e601083611acf565b91506122a98261226a565b602082019050919050565b5f6020820190508181035f8301526122cb81612292565b9050919050565b7f416c7265616479207265717565737465640000000000000000000000000000005f82015250565b5f612306601183611acf565b9150612311826122d2565b602082019050919050565b5f6020820190508181035f830152612333816122fa565b9050919050565b5f819050919050565b61234c8161233a565b82525050565b61235b816116f7565b82525050565b5f61ffff82169050919050565b61237781612361565b82525050565b5f63ffffffff82169050919050565b6123958161237d565b82525050565b5f81519050919050565b5f82825260208201905092915050565b5f6123bf8261239b565b6123c981856123a5565b93506123d9818560208601611adf565b6123e28161186e565b840191505092915050565b5f60c083015f8301516124025f860182612343565b5060208301516124156020860182612352565b506040830151612428604086018261236e565b50606083015161243b606086018261238c565b50608083015161244e608086018261238c565b5060a083015184820360a086015261246682826123b5565b9150508091505092915050565b5f6020820190508181035f83015261248b81846123ed565b905092915050565b5f815190506124a181611700565b92915050565b5f602082840312156124bc576124bb6116ef565b5b5f6124c984828501612493565b91505092915050565b7f4e6f7420737461727465642079657400000000000000000000000000000000005f82015250565b5f612506600f83611acf565b9150612511826124d2565b602082019050919050565b5f6020820190508181035f830152612533816124fa565b9050919050565b7f416c72656164792066696e6973686564000000000000000000000000000000005f82015250565b5f61256e601083611acf565b91506125798261253a565b602082019050919050565b5f6020820190508181035f83015261259b81612562565b9050919050565b7f4e487b71000000000000000000000000000000000000000000000000000000005f52601160045260245ffd5b5f6125d9826116f7565b91507fffffffffffffffffffffffffffffffffffffffffffffffffffffffffffffffff820361260b5761260a6125a2565b5b600182019050919050565b5f612620826116f7565b915061262b836116f7565b9250828201905080821115612643576126426125a2565b5b92915050565b5f81549050919050565b5f8190506001806001038301049050919050565b5f819050815f5260205f209050919050565b5f5b8281101561269a5761268f5f828401611eb1565b60018101905061267b565b505050565b818310156126d6576126b082612653565b6126b984612653565b6126c283612667565b8181016126d183850382612679565b505050505b505050565b680100000000000000008211156126f5576126f461187e565b5b6126fe81612649565b82825561270c83828461269f565b505050565b5f82905092915050565b5f813561272781611700565b80915050919050565b5f819050919050565b6127438383612711565b67ffffffffffffffff81111561275c5761275b61187e565b5b61276681836126db565b61276f83612730565b61277883612667565b600183045f5b818110156127b5575f6127908561271b565b61279981611e7c565b809250602087019650505080828501555060018101905061277e565b5050505050505050565b5f82825260208201905092915050565b5f5ffd5b82818337505050565b5f6127e783856127bf565b93507f07ffffffffffffffffffffffffffffffffffffffffffffffffffffffffffffff83111561281a576128196127cf565b5b60208302925061282b8385846127d3565b82840190509392505050565b5f6020820190508181035f8301526128508184866127dc565b90509392505050565b7f4f6e6c792063616c6c61626c65206279206f776e6572000000000000000000005f82015250565b5f61288d601683611acf565b915061289882612859565b602082019050919050565b5f6020820190508181035f8301526128ba81612881565b9050919050565b6128ca816117e8565b82525050565b602082015f8201516128e45f8501826128c1565b50505050565b5f6020820190506128fd5f8301846128d0565b92915050565b7f43616e6e6f74207472616e7366657220746f2073656c660000000000000000005f82015250565b5f612937601783611acf565b915061294282612903565b602082019050919050565b5f6020820190508181035f8301526129648161292b565b905091905056fea26469706673582212205c5b0e08087a2127e2cc22fe2beb239bc557347e3a62d2605fc10c6d99037b3964736f6c63430008210033","linkReferences":{}},"methodIdentifiers":{"acceptOwnership()":"79ba5097","buyTicket()":"edca914c","createAndStartLottery(string,uint256)":"67c828b7","lotAdmin()":"c1c02e5a","lotFinished()":"c03dbdc2","lotMaxNonce()":"554fa6e3","lotName()":"cd37e958","lotNonce()":"996da106","lotRandomWordsRecieved()":"99451e99","lotRandomWordsRequestMade()":"5631059b","lotRewards()":"e3974895","lotRewardsReleased()":"2969c189","lotStarted()":"ad6c4dd7","lotWinner()":"1ac7be16","owner()":"8da5cb5b","rawFulfillRandomWords(uint256,uint256[])":"1fe543e3","releaseComissions()":"9c0c6a78","releaseRewards()":"d0fab3ca","requestRandomWords()":"e0c86289","revealRandomWinner()":"44c4dc99","s_randomWords(uint256)":"f6eaffc8","s_requestId()":"e89e106a","s_vrfCoordinator()":"9eccacf6","setCoordinator(address)":"8ea98117","transferOwnership(address)":"f2fde38b"},"id":37}